:1019AA00121F3C1216611215491216E5121FCD902C
:1019BA000021E0FCA3E0FDA3E0FEA3E0FF121C1A55
:1019CA007FF47E01121EE7121BDC121A8F9000218F
:1019DA00E0FCA3E0FDA3E0FEA3E0FF121C1A7FF4E3
:1019EA007E01121EE7121BDC121098EF60FA80DAF1
:101F3C00E4F592F591F5B275B10875CA3075C930F2
:031F4C00021DD99A
:101EE7007D607C09ED1D70011C144C70F7EF1F70AD
:061EF700011E144E70EA0A
:011EFD0022C2
:101DD900900000740CF0A3F0A37401F0E4A3F0A345
:101DE90004F0FB7A0079001219557F01121FAE7FAA
:061DF9000A7E00021EE755
:051FD4007F0302186705
:051FD9007F0F021867F4
:100D7800900003120B6700000000900007120B6739
:100D880000000000E490000BF0900003E0F8A3E0FE
:100D9800F9A3E0FAA3E0FBC000C001C002C003123F
:100DA8001FD4E4FCFDD003D002D001D000EB2FFF0C
:100DB800EA3EFEED39FDEC38FC900003120B5B9027
:100DC800000BE004F0E0C3940840BEE490000BF090
:100DD800900007E0F8A3E0F9A3E0FAA3E0FBC00065
:100DE800C001C002C003121FD9E4FCFDD003D00229
:100DF800D001D000EB2FFFEA3EFEED39FDEC38FCC8
:100E0800900007120B5B90000BE004F0E0C394081D
:100E180040BEE47B08FAF9F8900003E0FCA3E0FD8B
:100E2800A3E0FEA3E0FF120A5890000CEEF0A3EF37
:100E3800F0E47B08FAF9F8900007E0FCA3E0FDA3D2
:100E4800E0FEA3E0FF120A5890000EEEF0A3EFF0C8
:100E58004E700790000EF0A304F090000CE0FEA383
:100E6800E0FF7C0F7DFF120BC5C006C007A3E0FEA4
:100E7800A3E0FBAA06E4F9F8D007D006120A5890B6
:100E88000010120B5BE47F187E0CFDFC900010E054
:100E9800F8A3E0F9A3E0FAA3E0FBD3120AEA4003BF
:050EA8007F01227F0024
:010EAD002222
:10133800000000000008083E080800363600003E9D
:101348005149453E00427F40004261514946214192
:10135800454B311814127F1027454545393C4A49F9
:101368004930017109050336494949360649492971
:101378001E7E1111117E7F494949363E4141412265
:101388007F4141221C7F494949417F090909013EA2
:101398004149497A7F0808087F00417F4100204081
:1013A800413F017F081422417F404040407F020CAA
:1013B800027F7F0408107F3E4141413E7F090909B1
:1013C800063E4151215E7F0919294646494949315E
:1013D80001017F01013F4040403F1F2040201F3F47
:1013E8004038403F631408146307087008076151C8
:0313F80049454321
:1019FA00EFB420037F0022EFB42B037F0122EFB460
:101A0A003A037F0222EFC39430400BEFD39439504C
:101A1A0005EF24D3FF22EFC39441400BEFD3945A2E
:101A2A005005EF24CCFF22EFC39461400BEFD3940F
:0B1A3A007A5005EF24ACFF227F002251
:0D1FA100D2CCD2CD0000C2CC0000C2CD22B7
:0B1FBA00C2CC0000D2CD0000D2CC222F
:071D5B00AD07121FA17F7804
:101D6200E4FEEF30E703D38001C392CCEF25E0FF1E
:101D7200D2CD0000C2CD0EEEB408E7D2CCD2CD0057
:031D820000C2CDCF
:011D8500223B
:101F7400121D5BE4FF121D62AF05121D62021FBA3F
:0F1E4400F583E5822CF582E43583F583E493FF83
:101E5300121D5B7F40121D62AF05121D62021FBA85
:101661007F647E00121EE77FAE121F747FD5121FAA
:10167100747F80121F747FA8121F747F1F121F7442
:101681007FD3121F74E4FF121F747F40121F747FF7
:101691008D121F747F14121F747F20121F747F021A
:1016A100121F747FA1121F747FC8121F747FDA1278
:1016B1001F747F02121F747F81121F747FCF121F4C
:1016C100747FD9121F747FF1121F747FDB121F7494
:1016D1007F40121F747FA4121F747FA6121F747F94
:0416E100AF021F74C1
:0F1F84007FAE121F747F8D121F747F10021F74A7
:101DFF00E4FCEC24B0FF121F74E4FF121F747F1079
:101E0F00121F74E4FBE4FF121E530BEBB480F60CAD
:041E1F00ECB404DE3D
:011E2300229C
:101E8000AC07ED24B0FF121F74EC540FFF121F7447
:0C1E9000AF04EFC4540F2410FF021F74B5
:080FA600900014EFF0A3EDF040
:100FAE00AF031219FAEF75F005A42438F97413354E
:100FBE00F0FAA374FFF0A3EAF0A3E9F0900014E0B6
:090FCE00FFA3E0FD121E80E4FC0B
:100FD700900016E0FBA3E0FAA3E0F98C827583008A
:100FE700120960FF900019F0E4A3F0EF30E004E08D
:100FF7004403F0900019E0FF30E105A3E0440CF052
:10100700EF30E20790001AE04430F0900019E0302A
:10101700E305A3E044C0F090001AE0FF121E53E07E
:04102700FF121E5343
:10102B000CECB405A7900014E0FFA3E004FD121E26
:03103B0080E4FC52
:10103E00900016E0FBA3E0FAA3E0F98C8275830022
:10104E00120960FF900019F0E4A3F0EF30E404E021
:10105E004403F0900019E0FF30E505A3E0440CF0E6
:10106E00EF30E60790001AE04430F0900019E030BF
:10107E00E705A3E044C0F090001AE0FF121E53E013
:04108E00FF121E53DC
:051092000CECB405A701
:011097002236
:100C3E0090000EEFF0A3EDF0C007C0057BA07A8602
:100C4E0079017800A3E0FCA3E0FDA3E0FEA3E0FFA2
:100C5E00120A58EF2430FBD005D007120FA69000D1
:100C6E000EE0240CFFC007E47B107A27F9F8900001
:100C7E0010E0FCA3E0FDA3E0FEA3E0FF120A58E49F
:100C8E007B0AFAF9F8120A58EB2430FB90000FE0B9
:100C9E00FDD007120FA690000EE02418FFC007E447
:100CAE007BE87A03F9F8900010E0FCA3E0FDA3E0E6
:100CBE00FEA3E0FF120A58E47B0AFAF9F8120A586A
:100CCE00EB2430FB90000FE0FDD007120FA6900032
:100CDE000EE02424FFC007E47B64FAF9F8900010BC
:100CEE00E0FCA3E0FDA3E0FEA3E0FF120A58E47BC4
:100CFE000AFAF9F8120A58EB2430FB90000FE0FDC7
:100D0E00D007120FA690000EE02430FFC007E47B40
:100D1E000AFAF9F8900010E0FCA3E0FDA3E0FEA3B0
:100D2E00E0FF120A58E47B0AFAF9F8120A58EB248B
:100D3E0030FB90000FE0FDD007120FA690000EE0E2
:100D4E00243CFFC007E47B0AFAF9F8900010E0FC9F
:100D5E00A3E0FDA3E0FEA3E0FF120A58EB2430FB54
:0A0D6E0090000FE0FDD007020FA671
:101B1A0090000DEFF0A3EDF0A3EBF0A3EAF0A3E938
:101B2A00F090000FE0FBA3E0FAA3E0F9120947FBEB
:101B3A00601E90000DE0FFA3E0FD120FA690000DBD
:101B4A00E0240CF0900010E475F001120A0680D12E
:011B5A002268
:041A4500A907AA053E
:101A4900EBC3941B503F121E80E4FC75F020EBA4FD
:101A590024E7F582E5F03405121E440CECB410EBD2
:101A6900EAC39403501FAF01EA04FD121E80E4FC8F
:101A790075F020EBA424F7F582E5F03405121E4435
:051A89000CECB410EBB1
:011A8E002235
:101E630090000EEFF0A3EDF0121A4590000EE0245F
:0D1E730010FFA3E0FD900011E0FB021A45F6
:051EB60042002855AABE
:1016E500E4900000F0A3F0A3F0121FD4900000E0F6
:1016F5006EF0A3E06FF0900000E0FCA3E0FDAE0407
:101705007803C333CE33CED8F9FBAA06ECC4135401
:1017150007FFEAFEEF4BFF900000EEF0A3EFF0E4C9
:10172500FF000FEFB414FA900002E004F0E0C39458
:101735002040B6900000E0645AFEA3E064A5FF9047
:101745000000EEF0A3EFF04E700A9000007412F066
:10175500A37434F0900000E0FFA3E0900028CFF0E0
:03176500A3EFF0FF
:01176800225E
:101B5B00E4900003F0121FD4AB07AA06900028E014
:101B6B006AF0A3E06BF0900028E0FEA3E0FF7C009E
:101B7B007D3D12099FEF2427FFE43E900028F0A340
:101B8B00EFF00000900003E004F0E0C3940840C5C0
:011B9B002227
:101D8600900028E0FEA3E0FF7C9D7D6512099FEF91
:101D9600247AFFEE343B900028F0A3EFF090002861
:0B1DA600E0FCA3E0FDECFFED6FFF226E
:021CCA00AB0766
:101CCC00EBC39D400122EBFFC3ED9FFFE49400CFDB
:101CDC002401CF3400900026F0A3EFF0121D867E75
:0F1CEC0000900026E0FCA3E0FD1209B1ED2BFFF4
:011CFB0022C6
:0F1EBB00440021000000004100200041002500EC
:1014BA007B017A00791490001EE4F0A37405F012FF
:1014CA001CFC90000FA3A3A3E0FF900014E0FEEF22
:1014DA006E60037F002290000FE0FCA3E0FDA3E012
:1014EA00FEA3E0FF7808120AFB900015E06F600384
:1014FA007F002290000FE0FCA3E0FDA3E0FEA3E042
:10150A00FF7810120AFB900016E06F60037F00223A
:10151A0090000FE0FCA3E0FDA3E0FEA3E0FF781833
:10152A00120AFB900017E06F60037F0022900013FD
:0E153A00E0FF900018E06F60037F00227F0149
:011548002280
:0B11850090000DEBF0A3EAF0A3E9F0EE
:101190007B017A00791390001EE4F0A37405F0122D
:1011A0001CFC900017E0FF900010E0FBA3E0FAA306
:1011B000E0F9EF12098D900014E0FFE4FCFDFE78E9
:1011C00008120B0EA804A905AA06AB07900013E0AD
:1011D000FFEB4FFFEAFEE9FDE8FCC004C005C006D6
:1011E000C007900015E0FFE4FCFDFE7810120B0E26
:1011F000D003D002D001D000EF4BFFEE4AFEED4904
:10120000FDEC48FCC004C005C006C007A3E0FFE435
:10121000FCFDFE7818120B0ED003D002D001D000D6
:10122000EF4BFFEE4AFEED49FDEC48FC90000DE06F
:10123000FBA3E0FAA3E0F9120B41900010E0FBA33E
:10124000E0FAA3E0F9120947D3940140037F00229A
:1012500090000DE0FBA3E0FAA3E0F9120B2174FF6C
:0E126000FBFAF9F8C3120AEA7002FF227F01BE
:01126E00225D
:0A17690090000DEEF0FAA3EFF0FB84
:10177300A3A3A3A3E0900014F090000FE0FCA3E068
:10178300FDA3E0FEA3E0FF7808120AFB900015EF2B
:10179300F090000FE0FCA3E0FDA3E0FEA3E0FF78E0
:1017A30010120AFB900016EFF090000FE0FCA3E08C
:1017B300FDA3E0FEA3E0FF7818120AFB900017EFE9
:1017C300F0900013E0900018F0AF03AE02121F4F29
:1017D30090000DE0FEA3E0FF7B017A0079149000F6
:0A17E3001EE4F0A37405F0021C914F
:101549009000107401F0A37400F0A37408F07B01FB
:101559007A007900E4FFFE12118590000AEFF090FD
:1015690000107401F0A37400F0A37409F07B017AF0
:101579000079047F107E0012118590000AE060193D
:10158900900000E0FCA3E0FDA3E0FEA3E0FF9000D3
:1015990021120B5B900008801AEF601D900004E097
:1015A900FCA3E0FDA3E0FEA3E0FF900021120B5B8A
:1015B900900009E0900020F022900021120B6700B2
:0B15C900000000E4900020F012126F00
:0115D40022F4
:10126F00A2AFE43390000BF0E4A3F0C2AF900021E3
:10127F00E0FCA3E0FDA3E0FEA3E0FF90000F120B44
:10128F005B900020E0900013F0E4FFFE12176990CE
:10129F00000CE004F0900021E0FCA3E0FDA3E0FED1
:1012AF00A3E0FF90000F120B5B900020E090001363
:1012BF00F0E4FFFE1214BAEF700990000CE0C39433
:1012CF000340AAE490000CF0900021E0FCA3E0FDA5
:1012DF00A3E0FEA3E0FF90000F120B5B900020E055
:1012EF00900013F07F107E0012176990000CE0043D
:1012FF00F0900021E0FCA3E0FDA3E0FEA3E0FF904F
:10130F00000F120B5B900020E0900013F07F107E17
:10131F00001214BAEF700990000CE0C3940340A8B8
:08132F0090000BE024FF92AFD7
:011337002293
:101F6200900025E004F0E0C3940A4005E4F0121268
:021F72006F22DC
:081FC500E4900025F002126F08
:10195500900001120960FFE5DE54F04FF5DE9000BE
:1019650002120960C43354E0FFE5DE54DF4FF5DEB3
:10197500120947FFD3941F502B900003120960FEF4
:10198500D39401501F900004120960FDD3940350B5
:1019950013EDC43354E0FDEEC433333354804D4F5F
:0519A50090FEA8F022F5
:0C1FAE00EFB4010443BC802253BC7F222E
:10186700EFD3940F4002806BE4F5BDF5BEE5BC54A1
:10187700F044404FF5BC00000000000000000000ED
:10188700E4FDE5BC30E54753BCDFE5DEAFBD30E541
:101897000DEFFEACBEECFBEBFF9000148022900036
:1018A70014E4F0A3EFF0E5BEC4540FFBE0C4F85412
:1018B7000FC868FF900014E0C454F048FEEF4BFFD8
:1018C700EEF0A3EFF0900014E0FEA3E0FF220DED91
:0718D700B4FAAF7E107F00A0
:0118DE0022E7
:0E1F9300E4F5C7F5C5F5C675C3FF75C4FF229A
:071E9C00ECF5C3AF058FC494
:101EA300A2AF92D5C2AF75C65A75C6A50000A2D51A
:031EB30092AF22C9
:101CFC00AD07AC0675C78075F51875C501121E9C2D
:101D0C00E5C212098D0DBD00010C740129F9E43AEC
:101D1C00FA90001E74FFF5F0120A0645F070DE0210
:021D2C001F9303
:101F4F00AD07AC0675C78075F51875C503121E9CD5
:031F5F00021F93CB
:101C9100AD07AC0675C78075F51875C502ECF5C3BF
:101CA100AF058FC4120947F5C2121EA30DBD000175
:101CB1000C740129F9E43AFA90001E74FFF5F01250
:091CC1000A0645F070D7021F93DA
:1000060045525200FF9FFFFEFB00FDFFFFFFFFFF73
:10001600FFFFFFEFBFAFF6FBEFBFFFFFFBEFBFFF3B
:10002600FEFFCFBFFFFEFBFFBFFFFEFBEFBF9FD66E
:10003600FFEFBFFFFEFB6B87FD36DB5093FD7CF9C0
:10004600EFAFFFFEFBEFBF9FFEFBEFBFFFFFFFFF24
:10005600FFFFFFFFFFFFFFFFFFFFFFFFFFFFFFFFAA
:10006600FFFFFFFFFFFFFFFFFFFFFFFFFFFFFFFF9A
:10007600FFFFFFFFBF36F0E0A72D00D8EFAFFFFF71
:10008600FBEF9F7D144200002C3620480B3D9C73ED
:10009600CA210F00584C030A1CC0411945B652002C
:1000A6000004108000010C80C24025090000418335
:1000B6000250C00000000000000001000000001017
:1000C60000C90001000048C0010A10C8C38B0D100A
:1000D60012000004366040035D00608001000000ED
:1000E60040000630C00309051A4000001636614775
:1000F600053C10D00223082051688300F2F9FFFF67
:10010600FFFEFB2FBFFFFEFBEFBFFFFEFBFFBF0F98
:10011600C0FAEFBFFFFEFFEFFFFFFEFB00817FFC93
:10012600FB7F2FFFFEFBFFFF2FD3FBEBA7FFFEDBC3
:10013600C50325208810010D14204003399EF8813F
:10014600A70580F8E0039E7ED8EFBF0F74F2008506
:10015600FF3EF0EF27BFBCF3E6270E00E8C0210FF5
:100166007CE04BAFCF36D20881BDBCF0EFA7BF34E1
:10017600F9C52B0F70D8C907DFFEFBEA0B15100275
:10018600008415342043071C90700C21058048C458
:10019600039E34D0000144100000800C1420C003DC
:1001A6009D02C000200F004060030730C000000021
:1001B6000000000000000000011808000000000018
:1001C60008C0001230C0000000000000000000005F
:1001D6000000000000000000000000000000000019
:1001E6000000000000000000000000000000000009
:1001F6000000000000000000FEBFFFFEFBE2BFFFA4
:10020600FEFBFFBFFFFEFFEFBFAFDCFBEFBFFFFF55
:10021600FBEFBFFFFEFFD0BB7FFEFBEFBFFFFEFF86
:10022600EFFF8FFAFBEFBFFFFEDB0B0F1D368B08D0
:10023600870D34C97103FDFEFB6FAF8DF2FBEFAF87
:10024600FFF7FBEFBFFFFEDA40B9FFFAF0EFBF7F23
:10025600F8F1C7230A40E8E091AF7EFAE72B1D16B6
:100266003800000000000000000000000000000050
:10027600000000200000FEFFFFFFFFED87FD764037
:100286000007190000000000C0FA4000000000004E
:100296000000000000000000000000200000002018
:1002A6000400000000000000FFBFFF760000000011
:1002B60000000001E4FFFEFFFFFFFFFFFF3FE5FF39
:1002C600FFEFBFFFFEFB00BCFFFEFBEFBFFEFAFB2E
:1002D600EFBF0FD0FBEF03DFFEFBEFBEFFFEFB0021
:1002E6001DFD3478EFB7FEF6FBEFBF0FF0FBEFBF57
:1002F600FF7AFA0000000000000000000000000085
:10030600000000000000000000000000EEBFFFFE3D
:10031600FF00811F7CE0ED033DB4F77CBD0F00D0EC
:10032600E1235DFC9A0100000000000000000000CF
:1003360000000000000000000000000000000000B7
:1003460000000000000000000000010000000000A6
:100356000000000000000000000000000000000097
:100366000100000100040000000000200008000059
:10037600FEFFFFFFFFFFFFFFFFFFFFFFFFFFFFFF88
:10038600FFFFFFFFFFFFFFFFFFFFFFFFFFFFFFFF77
:10039600FFFFFFFFFFFFFFFFFFFFFFFFFFFFFFFF67
:1003A600FFFFFFFFFFFFFFFFFFFFFFFFFFFFFFFF57
:1003B600FFFFFFFFFFFFFFFFFFFFFFFFFFFFFFFF47
:1003C600FFFFFFFFFFFFFFFFFEFFFFFFFFFEFBEF4D
:1003D600FFFFFEFBEFBFFFFFFBEFBFFFFFFBFFBF14
:1003E600FFFEFBEFBFFFFEFBEFBFFFFFFBFFBFFF05
:1003F600FEFB0F00000000000000000000000000EF
:1004060000000000000000000000000000000000E6
:1004160000000000000000000000000000000000D6
:1004260000000000000000000000000000000000C6
:1004360000000000000000000000000000000000B6
:1004460000000000000000000000000000000000A6
:100456000000000100000000000000000000000095
:1004660000000000000000000000FEFFFFFFFFFF8D
:10047600FFEFFFFFFFFFFFFFFFFFFFFFFFFFFFFF96
:10048600FFFFFFFFFFFFFFFFFFFFFFFFFFFFFFFF76
:10049600FFFFFFFFFFFFFFFDFFFFFFFFFFFFFFFF68
:1004A600FFFFFFFFFFFFFFFFFFFFFFEFFFFFFEFF67
:1004B600FFBFFFFFFFFFFFFFFFFFBFFFFFFFFFFFC6
:1004C600FFFFFEFBFFBFFFFEFBEFFFFFFFFBFFFF94
:1004D600FFFFFFFFFFFFFFFBFFFFFFFFFBEFBFFF7E
:1004E600FEFBFFBFFFFFFFFFBFFFFFFBEFBFFFFEF0
:1004F600FBEFBFFFFEFBEFBF2FF0FBEFBFFFFEFBE7
:10050600EFBFFFFEFF4099FF7EFBEFBFFFFEFFEF51
:10051600BF0F32FAEF3FFFFCFB00212C3080400377
:100526000D3080C00BFCFAFB65AB0DD0F9E989B63E
:10053600FFD9CF2B47F4530080453E60CD030B080F
:100546002000000000000000000000000000000085
:100556000000000000000000000000000000000095
:1005660000000000EFDFFF7CFAE0847FB6F9CF3FA2
:100576003DDCF17E150D26D1EBCBBFFFCAD119F4B8
:100586004AE0A412F4FC4E10031C03000000088588
:100596002088CD04001DACC04C2A5220C000A058B3
:1005A600002A017380CC20200812508C1D00830085
:1005B600010008840708C142882566A804E0618214
:1005C6000090022005284481C4072804A700800360
:1005D600C49220900104047018C04422124C650293
:0105E6000113
:1017ED00EF8EF0120B981840000018450001184AB2
:1017FD000002184F00031854012C1859012D1827F9
:10180D000258182C02591831025B1836025D183B2C
:10181D0002B0185E0398000018637E007F0A227ED6
:10182D00007F87227E017F04227E017F81227E013F
:10183D007FFE227E027F7C227E027FF9227E037F45
:10184D0076227E037FF3227E047F70227E047FED5D
:0A185D00227E057F6A22E4FEFF22CE
:041D2E00AB07AA064F
:101D3200AE04ED7803CEC313CE13D8F9F9ED5407F0
:101D4200FFEB29F582E43AF583E493FEA8070880C5
:081D520002C313D8FC5401FF89
:011D5A002266
:101ECF00121D86EF7F00FEC007C006121D86EFFDB4
:081EDF00D0E0FED0E04DFF222F
:100EAE00121ECF7C177D1A1209B1C3ED946BEC9410
:100EBE000350057E027F582274952DFD74FC3CFC78
:100ECE00C3ED94EBEC940050057E027F592274150D
:100EDE002DFD74FF3CFCC3ED9473EC940250057E23
:100EEE00027F5B22748D2DFD74FD3CFCC3ED94716D
:100EFE00EC940050057E027F5D22748F2DFD74FFF1
:100F0E003CFCC3ED946DEC940250057E027FB02242
:100F1E0074932DFD74FD3CFCC3ED94FAEC940150DA
:100F2E0004E4FEFF2274062DFD74FE3CFCC3ED941A
:100F3E007AEC940050057E007F012274862DFD749C
:100F4E00FF3CFCC3ED94D1EC940350057E007F0270
:100F5E0022742F2DFD74FC3CFCC3ED942AEC9400FE
:100F6E0050057E007F032274D62DFD74FF3CFCC31A
:100F7E00ED94D3EC940350057E017F2C22742D2D1D
:100F8E00FD74FC3CFEC3ED94D7EE940150057E013A
:070F9E007F2D227E037F98E6
:010FA5002229
:1013FB00E4900007F0120EAE900003EEF0A3EFF0B6
:10140B001217ED900005EEF0A3EFF04E70107BFF7E
:10141B007A007906121E247FDC7E05021EE7121D60
:10142B0086EF7F00FEC007C006121D86EFFDD0E0E1
:10143B00FED0E04DFF900008EEF0A3EFF07C037DB3
:10144B00E81209B1900008ECF0A3EDF0900007E072
:10145B0004F0E0D394324008A3E4F0A304F0801628
:10146B00900005E0FEA3E0FF900008E0FCA3E0FD88
:10147B00121D2EEF60A8900003E0FEA3E0FF7C039B
:10148B007DE8120BC5A804A905AA06AB07900008B6
:10149B00E0FEA3E0FFE4FCFDEB2FFFEA3EFEED399F
:0E14AB00FDEC38FC121B9C7FDC7E05121AD86B
:0114B9002210
:101F2800121D86EF75F00984AFF0121C567FDC7E17
:041F380005021AD8AC
:1018DF00120D78EF7031121DFF9000117402F07B22
:1018EF0001E4FD7F18121E639000117404F07B0356
:1018FF00E4FD7F38121E637B05E4FD7F58121A4505
:10190F007FD07E07021EE7121B5B900020E0B40120
:10191F0005121F2880031213FB121DB17FF47E01E5
:10192F00121AD8900021E0FCA3E0FDA3E0FEA3E093
:10193F002401FFE43EFEE43DFDE43CFC9000211257
:06194F000B5B121F622277
:041ECA0041002A00A9
:03000300021EFEDC
:101EFE00C0E0C083C082C2A890002A7401F0D082D4
:051F0E00D083D0E03299
:071FCD00D288D2A8D2AF2296
:10109800E4900000F0A3F090002AE0FFE4F0EF7085
:1010A80003021158E4900000F0A3F07F50FE121ED6
:1010B800E730B204D2A880DFE4900002F07F0A7E15
:1010C80000121EE720B20C900002E004F0E0C39486
:1010D8006440EA900002E0C39464405A900020E023
:1010E80070047F0180027F00900020EFF012126FE1
:1010F800121DFF900020E0900011B401177416F043
:101108007B15E4FD7F20121E639000117418F07B9C
:1011180017E480137413F07B12E4FD7F20121E6322
:10112800E4900011F07B14FD7F40121E637FDC7E8B
:1011380005121EE780031218DF30B2FD7F507E00D3
:10114800121EE7E490002AF0D2A8121BDC02109FBE
:101158007F0A7E00121EE7900001E004F0700690FE
:101168000000E004F0C3900001E094F4900000E077
:0C1178009401500302109F121F847F019D
:011184002248
:081AD80090000AEEF0A3EFF00C
:101AE000E4A3F0A3F090000AE0FEA3E0FFC390009F
:101AF0000DE09F90000CE09E501D7F0A7E00121E9C
:101B0000E720B2037F012290000DE0240AF090004C
:091B10000CE03400F080CE7F00EF
:011B190022A9
:101F13002B3100081109110A110B110C110D110EAF
:051F2300110F11101167
:101BDC00121DFF900020E0900011B401177416F054
:101BEC007B15E4FD7F20121E639000117418F07BAE
:101BFC0017E480137413F07B12E4FD7F20121E6334
:0E1C0C00E4900011F07B14FD7F40121E632255
:101C1A00900000120B5B121DFF9000117419F07BEB
:101C2A0004E4FD7F28121E637B1AE4FD7F48121A22
:101C3A0045900000E0FCA3E0FDA3E0FEA3E0FF90D6
:0C1C4A000010120B5B7D027F1C020C3EA0
:101B9C0090000A120B5B121DFF9000117413F07B66
:101BAC0012E4FD7F20121E63E4900011F07B14FD03
:101BBC007F40121E6390000AE0FCA3E0FDA3E0FE50
:101BCC00A3E0FF900010120B5B7D027F1C020C3E09
:101DB100121DFF9000117419F07B04E4FD7F1C12C9
:101DC1001E637B1AE4FD7F3C121A457BFF7A1F7963
:081DD10013E4FD7F4C021B1A14
:101E240090000AEBF0A3EAF0A3E9F0121DFF900082
:101E34000AE0FBA3E0FAA3E0F97D017F22021B1A6A
:101C5600900003EFF0C394094002E4F0121DFF90D8
:101C66000003E0FF25E02416F582E4341FF583E443
:101C760093FBEF25E02417F582E4341FF583E49304
:0B1C8600900011F0E4FD7F30021E63AF
:1005E7000000FE2222FE40A09E8282829EA0200062
:1005F70080601F42827F8080432C102844838000C4
:100607004042CC0000445454547F54545444400056
:1006170000007F201000FF15151555957F0000007D
:1006270000C808090EE808000000FF1010101000AD
:10063700103017100E0908FF4141414141FF0000EA
:10064700080888C8380C0B0808E8080808080800D4
:10065700020100FF40414141417F4141414140008A
:100667004040424458C0407F40C050484640400048
:100677008080402018070000003F4040404078003D
:100687000000FE92929292FE92929292FE000000D9
:10069700404044444444447F44444444444040002C
:1006A70000020202028242F20E42820202020000AD
:1006B70010080402010000FF00000001020C000006
:1006C7000000007E424242C24242427E00000000D9
:1006D7008040300E1020407F444444444440400052
:1006E70000080889CA28980000FF20408000000001
:1006F70000020100FF01060000FF000000030000E8
:10070700100C4424140405060404142444140C0097
:10071700004040414141417F41414141404000004B
:1007270000020212620202FE0202423202020000CC
:1007370001010101010101FF0101010101010100A5
:1007470000020CC000F80848484808FF08098A005A
:1007570002027F80403F001E925E20173846F1005C
:1007670000004244584040FF4040504846000000C7
:1007770004040404040404FF04040404040404003B
:100787000484C4B48C10545454FF54547C10100087
:100797008044281827284949497F49494948400042
:1007A700101010FF1010F00000F8080808F80000FB
:1007B7008040300F40807F00007F2020207F000096
:1007C700101010FF1010404848487F48C8484000A4
:1007D7000444827F010002020A1242827F02020061
:1007E7001060028C0024242FE42424E42F24240006
:1007F70004047E0100FF11090719090749917F00C9
:1008070040402020908884838488902020404000A6
:10081700000000003F404040444847404078000007
:1008270000FE225A8608104424F42C2724E40400EE
:1008370000FF040887413F4080BF8595A59F800042
:100847001010D0FF901000FE020202FE0000000010
:10085700040300FF0083601F0000003F4040780052
:10086700404042CC00504EC8487FC848484000002E
:100877000040201F20504C4340404F50505C4000E8
:10088700101012D2565A5253525A56D21210100002
:100897004030007785858DB5858585E70010600038
:1008A70000C0301F1010F00000FF20408000000043
:1008B700814021120C03000000FF0000000300002C
:1008C7001010FF1090E02F29E909E9292FE0000017
:1008D70042827F414425150D05FE0D15254544002F
:1008E700202020FC2426A52C342424FC20202000B2
:1008F70040427D44447C4445447D46457C4040001D
:10090700080808F80808081010FF101010F0000079
:100917001030101F088848300E014080403F00000B
:100927001088C43304F49494F49FF49494F404006A
:100937000100FF004232027282869A82E20A320086
:101A8F00121FC5E4F5BC121F84E4F592F591F5B26F
:101A9F00F5B1F5CAF5C9D288D2A8D2AF43870200F3
:101AAF0000F592F591F5B275B10875CA3075C93068
:101ABF007FC8FE121EE730B2FD7F327E00121EE796
:091ACF00121DD9121661021BDC84
:030000000215D511
:0C15D500787FE4F6D8FD75810702161C33
:10094700BB010689828A83E0225002E722BBFE02AE
:09095700E32289828A83E49322E1
:10096000BB010CE58229F582E5833AF583E022504C
:1009700006E92582F8E622BBFE06E92582F8E22296
:0D098000E58229F582E5833AF583E49322B0
:10098D00BB010689828A83F0225002F722BBFE0149
:02099D00F32243
:10099F00EF8DF0A4A8F0CF8CF0A428CE8DF0A42E6C
:0209AF00FE2226
:1009B100BC000BBE0029EF8DF084FFADF022E4CC2A
:1009C100F875F008EF2FFFEE33FEEC33FCEE9DECF3
:1009D100984005FCEE9DFE0FD5F0E9E4CEFD22ED39
:1009E100F8F5F0EE8420D21CFEADF075F008EF2F83
:1009F100FFED33FD4007985006D5F0F222C398FD74
:050A01000FD5F0EA2210
:100A0600C5F0F8A3E028F0C5F0F8E582158270027B
:060A16001583E038F02218
:100A1C0075F008758200EF2FFFEE33FECD33CDCC91
:100A2C0033CCC58233C5829BED9AEC99E582984014
:100A3C000CF582EE9BFEED9AFDEC99FC0FD5F0D6F1
:100A4C00E4CEFBE4CDFAE4CCF9A88222B800C1B91B
:100A5C000059BA002DEC8BF084CFCECDFCE5F0CB59
:100A6C00F97818EF2FFFEE33FEED33FDEC33FCEB92
:100A7C0033FB10D703994004EB99FB0FD8E5E4F94D
:100A8C00FA227818EF2FFFEE33FEED33FDEC33FC3A
:100A9C00C933C910D7059BE99A4007EC9BFCE99A2E
:100AAC00F90FD8E0E4C9FAE4CCFB2275F010EF2F73
:100ABC00FFEE33FEED33FDCC33CCC833C810D70773
:100ACC009BEC9AE899400AED9BFDEC9AFCE899F8AE
:0E0ADC000FD5F0DAE4CDFBE4CCFAE4C8F92241
:100AEA00EB9FF5F0EA9E42F0E99D42F0E89C45F062
:010AFA0022D9
:100AFB00E8600FECC313FCED13FDEE13FEEF13FFD9
:030B0B00D8F122FC
:100B0E00E8600FEFC333FFEE33FEED33FDEC33FC45
:030B1E00D8F122E9
:100B2100BB010789828A83020BFE5005E9F8020B9B
:100B3100F2BBFE05E9F8020C0A89828A83020C16CF
:100B4100BB010789828A83020B5B5005E9F8020C1D
:0A0B510026BBFE05E9F8020C322273
:0C0B5B00ECF0A3EDF0A3EEF0A3EFF0220D
:100B6700A8828583F0D083D082120B7E120B7E126F
:100B77000B7E120B7EE473E493A3C583C5F0C58394
:100B8700C8C582C8F0A3C583C5F0C583C8C582C8D8
:010B9700223B
:100B9800D083D082F8E4937012740193700DA3A3EC
:100BA80093F8740193F5828883E473740293B5F023
:0D0BB800067403936860E9A3A3A3A380D88B
:100BC500EC8EF0A4CCC5F0CCCDF8EFA4CEC5F02DBD
:100BD500FDE43CFCE8A42EC8C5F03DFDE43CFCEF7B
:0D0BE500A4FFE5F028FEE43DFDE43CFC2209
:1015E1000219AAE493A3F8E493A34003F68001F25D
:1015F10008DFF48029E493A3F85407240CC8C3330B
:10160100C4540F4420C8834004F456800146F6DFD9
:10161100E4800B0102040810204080901EB6E47E95
:10162100019360BCA3FF543F30E509541FFEE493CE
:10163100A360010ECF54C025E060A840B8E493A395
:10164100FAE493A3F8E493A3C8C582C8CAC583CAC0
:10165100F0A3C8C582C8CAC583CADFE9DEE780BE78
:011ECE000013
:0C0BF200E6FC08E6FD08E6FE08E6FF222F
:0C0BFE00E0FCA3E0FDA3E0FEA3E0FF226A
:0C0C0A00E2FC08E2FD08E2FE08E2FF2226
:100C1600E493FC740193FD740293FE740393FF2224
:0C0C2600ECF608EDF608EEF608EFF622FA
:0C0C3200ECF208EDF208EEF208EFF222FE
:00000001FF
