:101A1C00121F7412158F1216B51217CD121FDE90ED
:101A2C000021E0FCA3E0FDA3E0FEA3E0FF121C0EEE
:101A3C007FC87E00121EFC121BD0121B05900021C9
:101A4C00E0FCA3E0FDA3E0FEA3E0FF121C0E7FC8A8
:101A5C007E00121EFC121BD01211BDEF60FA80DA50
:101F7400E4F592F591F5B275B10875CA3075C930BA
:011F8400223A
:101EFC007D007C08ED1D70011C144C70F7EF1F70F9
:061F0C00011E144E70EAF4
:011F120022AC
:101DF600900000740CF0A3F0A37401F0E4A3F0A328
:101E060004F0FB7A0079001219C77F01121FBF7F09
:061E16000A7E00021EFC22
:051FE5007F0302194F0B
:051FEA007F0F02194FFA
:100ECC00900005120BB200000000900009120BB24A
:100EDC0000000000E490000DF0900005E0F8A3E0A5
:100EEC00F9A3E0FAA3E0FBC000C001C002C00312EA
:100EFC001FE5E4FCFDD003D002D001D000EB2FFFA6
:100F0C00EA3EFEED39FDEC38FC900005120BA69084
:100F1C000009E0F8A3E0F9A3E0FAA3E0FBC000C0ED
:100F2C0001C002C003121FEAE4FCFDD003D002D0C2
:100F3C0001D000EB2FFFEA3EFEED39FDEC38FC90C2
:100F4C000009120BA690000DE004F0E0C3940440DD
:100F5C0088E4FFFEFDFC900009E0F8A3E0F9A3E0B3
:100F6C00FAA3E0FBC3120B35700A900009120BB206
:100F7C0000000001E47FFF7E0FFDFC900005E0F80F
:100F8C00A3E0F9A3E0FAA3E0FB120A18900009E031
:100F9C00F8A3E0F9A3E0FAA3E0FB120AA390000E79
:100FAC00120BA6E4FF7E0CFDFC90000EE0F8A3E013
:100FBC00F9A3E0FAA3E0FBD3120B3540037F012227
:020FCC007F00A4
:010FCE002200
:101F5000121FEAD3EF94C5EE940540037F01227F60
:011F60000080
:011F6100225D
:10137700000000000008083E080800363600003E5E
:101387005149453E00427F40004261514946214153
:10139700454B311814127F1027454545393C4A49BA
:1013A7004930017109050336494949360649492932
:1013B7001E7E1111117E7F494949363E4141412226
:1013C7007F4141221C7F494949417F090909013E63
:1013D7004149497A7F0808087F00417F4100204042
:1013E700413F017F081422417F404040407F020C6B
:1013F700027F7F0408107F3E4141413E7F09090972
:10140700063E4151215E7F0919294646494949311E
:1014170001017F01013F4040403F1F2040201F3F07
:101427004038403F63140814630708700807615188
:03143700494543E1
:101ABA00EFB420037F0022EFB42B037F0122EFB49F
:101ACA003A037F0222EFC39430400BEFD39439508C
:101ADA0005EF24D3FF22EFC39441400BEFD3945A6E
:101AEA005005EF24CCFF22EFC39461400BEFD3944F
:0B1AFA007A5005EF24ACFF227F002291
:0D1FB200D2CCD2CD0000C2CC0000C2CD22A6
:0B1FCB00C2CC0000D2CD0000D2CC221E
:071D4F00AD07121FB27F78FF
:101D5600E4FEEF30E703D38001C392CCEF25E0FF2A
:101D6600D2CD0000C2CD0EEEB408E7D2CCD2CD0063
:031D760000C2CDDB
:011D79002247
:101F8500121D4FE4FF121D56AF05121D56021FCB41
:0F1E4000F583E5822CF582E43583F583E493FF87
:101E4F00121D4F7F40121D56AF05121D56021FCB9C
:10158F00D2CCE4FFC2CDD2CD0FEFB409F7121FB208
:10159F00121FCB7F967E00121EFC7FAE121F857F1F
:1015AF00D5121F857F80121F857FA8121F857F1F71
:1015BF00121F857FD3121F85E4FF121F857F4012F4
:1015CF001F857F8D121F857F14121F857F20121F8D
:1015DF00857F02121F857FA1121F857FC8121F856D
:1015EF007FDA121F857F02121F857F81121F857F71
:1015FF00CF121F857FD9121F857FF1121F857FDBC9
:10160F00121F857F40121F857FA4121F857FA61290
:07161F001F857FAF021F854C
:0F1F95007FAE121F857F8D121F857F10021F8563
:101DA500C2AFE4FCEC24B0FF121F85E4FF121F85CF
:101DB5007F10121F85E4FBE4FF121E4F0BEBB4806E
:081DC500F60CECB404DED2AF11
:011DCD0022F3
:101E7C00AC07ED24B0FF121F85EC540FFF121F8529
:0C1E8C00AF04EFC4540F2410FF021F85A8
:0810C700900016EFF0A3EDF01C
:1010CF00AF03121ABAEF75F005A42477F97413352C
:1010DF00F0FAA374FFF0A3EAF0A3E9F0C2AF900017
:0B10EF0016E0FFA3E0FD121E7CE4FCF5
:1010FA00900018E0FBA3E0FAA3E0F98C8275830064
:10110A0012095CFF90001BF0E4A3F0EF30E004E06A
:10111A004403F090001BE0FF30E105A3E0440CF02B
:10112A00EF30E20790001CE04430F090001BE03002
:10113A00E305A3E044C0F090001CE0FF121E4FE05C
:04114A00FF121E4F23
:10114E000CECB405A7900016E0FFA3E004FD121E00
:03115E007CE4FC32
:10116100900018E0FBA3E0FAA3E0F98C82758300FC
:1011710012095CFF90001BF0E4A3F0EF30E404E0FF
:101181004403F090001BE0FF30E505A3E0440CF0C0
:10119100EF30E60790001CE04430F090001BE03097
:1011A100E705A3E044C0F090001CE0FF121E4FE0F1
:0411B100FF121E4FBC
:0711B5000CECB405A7D2AF5A
:0111BC002210
:100C8900900010EFF0A3EDF0C007C0057BA07A86B5
:100C990079017800A3E0FCA3E0FDA3E0FEA3E0FF57
:100CA900120AA3EF2430FBD005D0071210C7900019
:100CB90010E0240CFFC007E47B107A27F9F89000B4
:100CC90012E0FCA3E0FDA3E0FEA3E0FF120AA3E407
:100CD9007B0AFAF9F8120AA3EB2430FB900011E021
:100CE900FDD0071210C7900010E02418FFC007E4D8
:100CF9007BE87A03F9F8900012E0FCA3E0FDA3E099
:100D0900FEA3E0FF120AA3E47B0AFAF9F8120AA388
:100D1900EB2430FB900011E0FDD0071210C79000C2
:100D290010E02424FFC007E47B64FAF9F89000126C
:100D3900E0FCA3E0FDA3E0FEA3E0FF120AA3E47B2D
:100D49000AFAF9F8120AA3EB2430FB900011E0FD2E
:100D5900D0071210C7900010E02430FFC007E47BD1
:100D69000AFAF9F8900012E0FCA3E0FDA3E0FEA363
:100D7900E0FF120AA3E47B0AFAF9F8120AA3EB24AA
:100D890030FB900011E0FDD0071210C7900010E071
:100D9900243CFFC007E47B0AFAF9F8900012E0FC52
:100DA900A3E0FDA3E0FEA3E0FF120AA3EB2430FBBE
:0A0DB900900011E0FDD0070210C702
:101B4E00900005EFF0A3EDF0A3EBF0A3EAF0A3E90C
:101B5E00F0900007E0FBA3E0FAA3E0F9120943FBC3
:101B6E00601E900005E0FFA3E0FD1210C790000577
:101B7E00E0240CF0900008E475F001120A0280D106
:011B8E002234
:041A6C00A907AA0517
:101A7000EBC3941B5043C2AF121E7CE4FC75F020F4
:101A8000EBA424E3F582E5F03405121E400CECB41F
:101A900010EBEAC39403501FAF01EA04FD121E7C51
:101AA000E4FC75F020EBA424F3F582E5F034051294
:091AB0001E400CECB410EBD2AFA7
:011AB900220A
:101E5F00900006EFF0A3EDF0121A6C900006E0244C
:0D1E6F0010FFA3E0FD900009E0FB021A6CDB
:051EB20042002855AAC2
:1017CD00E4900000F0A3F0A3F0121FE5900000E0FC
:1017DD006EF0A3E06FF0900000E0FCA3E0FDAE041E
:1017ED007803C333CE33CED8F9FBAA06ECC4135419
:1017FD0007FFEAFEEF4BFF900000EEF0A3EFF0E4E1
:10180D00FF000FEFB414FA900002E004F0E0C3946F
:10181D002040B6900000E0645AFEA3E064A5FF905E
:10182D000000EEF0A3EFF04E700A9000007412F07D
:10183D00A37434F0900000E0FFA3E0900028CFF0F7
:03184D00A3EFF016
:011850002275
:101B8F00E4900005F0121FE5AB07AA06900028E0CD
:101B9F006AF0A3E06BF0900028E0FEA3E0FF7C006A
:101BAF007D3D12099BEF2427FFE43E900028F0A310
:101BBF00EFF00000900005E004F0E0C3940840C58A
:011BCF0022F3
:101D7A00900028E0FEA3E0FF7C9D7D6512099BEFA1
:101D8A00247AFFEE343B900028F0A3EFF09000286D
:0B1D9A00E0FCA3E0FDECFFED6FFF227A
:021CBE00AB0772
:101CC000EBC39D400122EBFFC3ED9FFFE49400CFE7
:101CD0002401CF3400900026F0A3EFF0121D7A7E8D
:0F1CE00000900026E0FCA3E0FD1209ADED2BFF04
:011CEF0022D2
:0F1EB700440021000000004100200041002500F0
:101626007B017A00791490001EE4F0A37405F01291
:101636001CF090000FA3A3A3E0FF900014E0FEEFC0
:101646006E60037F002290000FE0FCA3E0FDA3E0A4
:10165600FEA3E0FF7808120B46900015E06F6003CA
:101666007F002290000FE0FCA3E0FDA3E0FEA3E0D4
:10167600FF7810120B46900016E06F60037F002281
:1016860090000FE0FCA3E0FDA3E0FEA3E0FF7818C6
:10169600120B46900017E06F60037F002290001344
:0E16A600E0FF900018E06F60037F00227F01DC
:0116B4002213
:0B0DC30090000DEBF0A3EAF0A3E9F0B4
:100DCE007B017A00791390001EE4F0A37405F012F3
:100DDE001CF0900017E0FF900010E0FBA3E0FAA3D8
:100DEE00E0F9EF120989900014E0FFE4FCFDFE78B3
:100DFE0008120B59A804A905AA06AB07900013E028
:100E0E00FFEB4FFFEAFEE9FDE8FCC004C005C0069B
:100E1E00C007900015E0FFE4FCFDFE7810120B59A0
:100E2E00D003D002D001D000EF4BFFEE4AFEED49C9
:100E3E00FDEC48FCC004C005C006C007A3E0FFE4FB
:100E4E00FCFDFE7818120B59D003D002D001D00051
:100E5E00EF4BFFEE4AFEED49FDEC48FC90000DE035
:100E6E00FBA3E0FAA3E0F9120B8C900010E0FBA3B9
:100E7E00E0FAA3E0F9120943D3940140037F002264
:100E8E0090000DE0FBA3E0FAA3E0F9120B6C74FFE7
:100E9E00FBFAF9F8C3120B357002FF2290000DE039
:100EAE00FBA3E0FAA3E0F9120B6C7BA07A86790122
:0D0EBE007800C3120B3550037F00227F0126
:010ECB002204
:0A18510090000DEEF0FAA3EFF0FB9B
:10185B00A3A3A3A3E0900014F090000FE0FCA3E07F
:10186B00FDA3E0FEA3E0FF7808120B46900015EFF6
:10187B00F090000FE0FCA3E0FDA3E0FEA3E0FF78F7
:10188B0010120B46900016EFF090000FE0FCA3E057
:10189B00FDA3E0FEA3E0FF7818120B46900017EFB4
:1018AB00F0900013E0900018F0AF03AE02121F3D52
:1018BB0090000DE0FEA3E0FF7B017A00791490000D
:0A18CB001EE4F0A37405F0021C8572
:1016B5009000107401F0A37400F0A37408F07B018E
:1016C5007A007900E4FFFE120DC390000AEFF09056
:1016D50000107401F0A37400F0A37409F07B017A83
:1016E5000079047F007E02120DC390000AE06019A4
:1016F500900000E0FCA3E0FDA3E0FEA3E0FF900066
:1017050021120BA6900008801AEF601D900004E0DE
:10171500FCA3E0FDA3E0FEA3E0FF900021120BA6D1
:10172500900009E0900020F022900021120BB200F9
:0B173500000000E4900020F01212AE53
:011740002286
:1012AE00A2AFE43390000BF0E4A3F0C2AF900021A4
:1012BE00E0FCA3E0FDA3E0FEA3E0FF90000F120B05
:1012CE00A6900020E0900013F0E4FFFE121851905B
:1012DE00000CE004F0900021E0FCA3E0FDA3E0FE92
:1012EE00A3E0FF90000F120BA6900020E0900013D9
:1012FE00F0E4FFFE121626EF700990000CE0C39486
:10130E000340AAE490000CF0900021E0FCA3E0FD65
:10131E00A3E0FEA3E0FF90000F120BA6900020E0CA
:10132E00900013F07F007E0212185190000CE00422
:10133E00F0900021E0FCA3E0FDA3E0FEA3E0FF900F
:10134E00000F120BA6900020E0900013F07F007E9D
:10135E0002121626EF700990000CE0C3940340A809
:08136E0090000BE024FF92AF98
:011376002254
:101F6200900025E004F0E0C3940A4005E4F0121268
:021F7200AE229D
:081FD600E4900025F00212AEB8
:1019C70090000112095CFFE5DE54F04FF5DE900050
:1019D7000212095CC43354E0FFE5DE54DF4FF5DE45
:1019E700120943FFD3941F502B90000312095CFE8A
:1019F700D39401501F90000412095CFDD394035047
:101A070013EDC43354E0FDEEC433333354804D4FEC
:051A170090FEA8F02282
:0C1FBF00EFB4010443BC802253BC7F221D
:10194F00EFD3940F4002806BE4F5BDF5BEE5BC54B8
:10195F00F044404FF5BC0000000000000000000004
:10196F00E4FDE5BC30E54753BCDFE5DEAFBD30E558
:10197F000DEFFEACBEECFBEBFF900012802290004F
:10198F0012E4F0A3EFF0E5BEC4540FFBE0C4F8542B
:10199F000FC868FF900012E0C454F048FEEF4BFFF1
:1019AF00EEF0A3EFF0900012E0FEA3E0FF220DEDAA
:0719BF00B4FAAF7E107F00B7
:0119C60022FE
:0E1FA400E4F5C7F5C5F5C675C3FF75C4FF2289
:071E9800ECF5C3AF058FC498
:101E9F00A2AF92D5C2AF75C65A75C6A50000A2D51E
:031EAF0092AF22CD
:101CF000AD07AC0675C78075F51875C501121E983D
:101D0000E5C21209890DBD00010C740129F9E43AFC
:101D1000FA90001E74FFF5F0120A0245F070DE0220
:021D20001FA4FE
:101F3D00AD07AC0675C78075F51875C503121E98EB
:031F4D00021FA4CC
:101C8500AD07AC0675C78075F51875C502ECF5C3CB
:101C9500AF058FC4120943F5C2121E9F0DBD000189
:101CA5000C740129F9E43AFA90001E74FFF5F0125C
:091CB5000A0245F070D7021FA4D9
:10000600FF9FFFFEFB00FDFFFFFFFFFFFFFFFFEF70
:10001600BFAFF6FBEFBFFFFFFBEFBFFFFEFFCFBF9C
:10002600FFFEFBFFBFFFFEFBEFBF9FD6FFEFBFFF4D
:10003600FEFB6B87FD36DB5093FD7CF9EFAFFFFED1
:10004600FBEFBF9FFEFBEFBFFFFFFFFFFFFFFFFFC3
:10005600FFFFFFFFFFFFFFFFFFFFFFFFFFFFFFFFAA
:10006600FFFFFFFFFFFFFFFFFFFFFFFFFFFFFFFF9A
:10007600BF36F0E0A72D00D8EFAFFFFFFBEF9F7D67
:10008600144200002C3620480B3D9C73CA210F00F9
:10009600584C030A1CC0411945B652000004108092
:1000A60000010C80C2402509000041830250C000B7
:1000B60000000000000001000000001000C900015F
:1000C600000048C0010A10C8C38B0D1012000004BE
:1000D600366040035D00608001000000400006308D
:1000E600C00309051A40000016366147053C10D0CA
:1000F6000223082051688300F2F9FFFFFFFEFB2F61
:10010600BFFFFEFBEFBFFFFEFBFFBF0FC0FAEFBF57
:10011600FFFEFFEFFFFFFEFB00817FFCFB7F2FFF53
:10012600FEFBFFFF2FD3FBEBA7FFFEDBC50325205E
:100136008810010D14204003399EF881A70580F828
:10014600E0039E7ED8EFBF0F74F20085FF3EF0EF0E
:1001560027BFBCF3E6270E00E8C0210F7CE04BAFBB
:10016600CF36D20881BDBCF0EFA7BF34F9C52B0F3F
:1001760070D8C907DFFEFBEA0B15100200841534A0
:100186002043071C90700C21058048C4039E34D080
:10019600000144100000800C1420C0039D02C00022
:1001A600200F004060030730C00000000000000080
:1001B60000000000011808000000000008C000123E
:1001C60030C0000000000000000000000000000039
:1001D6000000000000000000000000000000000019
:1001E6000000000000000000000000000000000009
:1001F60000000000FEBFFFFEFBE2BFFFFEFBFFBFED
:10020600FFFEFFEFBFAFDCFBEFBFFFFFFBEFBFFF64
:10021600FEFFD0BB7FFEFBEFBFFFFEFFEFFF8FFAB7
:10022600FBEFBFFFFEDB0B0F1D368B08870D34C9B6
:100236007103FDFEFB6FAF8DF2FBEFAFFFF7FBEF38
:10024600BFFFFEDA40B9FFFAF0EFBF7FF8F1C72330
:100256000A40E8E091AF7EFAE72B1D163800000051
:100266000000000000000000000000000000002068
:100276000000FEFFFFFFFFED87FD76400007190037
:1002860000000000C0FA400000000000000000006E
:100296000000000000000020000000200400000014
:1002A60000000000FFBFFF76000000000000000114
:1002B600E4FFFEFFFFFFFFFFFF3FE5FFFFEFBFFF8E
:1002C600FEFB00BCFFFEFBEFBFFEFAFBEFBF0FD04D
:1002D600FBEF03DFFEFBEFBEFFFEFB001DFD3478E8
:1002E600EFB7FEF6FBEFBF0FF0FBEFBFFF7AFA00AA
:1002F60000000000000000000000000000000000F8
:100306000000000000000000EEBFFFFEFF00811F9E
:100316007CE0ED033DB4F77CBD0F00D0E1235DFC2E
:100326009A0100000000000000000000000000002C
:1003360000000000000000000000000000000000B7
:1003460000000000000001000000000000000000A6
:100356000000000000000000000000000100000195
:10036600000400000000002000080000FEFFFFFF60
:10037600FFFFFFFFFFFFFFFFFFFFFFFFFFFFFFFF87
:10038600FFFFFFFFFFFFFFFFFFFFFFFFFFFFFFFF77
:10039600FFFFFFFFFFFFFFFFFFFFFFFFFFFFFFFF67
:1003A600FFFFFFFFFFFFFFFFFFFFFFFFFFFFFFFF57
:1003B600FFFFFFFFFFFFFFFFFFFFFFFFFFFFFFFF47
:1003C600FFFFFFFFFEFFFFFFFFFEFBEFFFFFFEFB52
:1003D600EFBFFFFFFBEFBFFFFFFBFFBFFFFEFBEF24
:1003E600BFFFFEFBEFBFFFFFFBFFBFFFFEFB0F00E4
:1003F60000000000000000000000000000000000F7
:1004060000000000000000000000000000000000E6
:1004160000000000000000000000000000000000D6
:1004260000000000000000000000000000000000C6
:1004360000000000000000000000000000000000B6
:1004460000000000000000000000000000000001A5
:100456000000000000000000000000000000000096
:10046600000000000000FEFFFFFFFFFFFFEFFFFFA1
:10047600FFFFFFFFFFFFFFFFFFFFFFFFFFFFFFFF86
:10048600FFFFFFFFFFFFFFFFFFFFFFFFFFFFFFFF76
:10049600FFFFFFFDFFFFFFFFFFFFFFFFFFFFFFFF68
:1004A600FFFFFFFFFFFFFFEFFFFFFEFFFFBFFFFFA7
:1004B600FFFFFFFFFFFFBFFFFFFFFFFFFFFFFEFB8B
:1004C600FFBFFFFEFBEFFFFFFFFBFFFFFFFFFFFF8F
:1004D600FFFFFFFBFFFFFFFFFBEFBFFFFEFBFFBFC3
:1004E600FFFFFFFFBFFFFFFBEFBFFFFEFBEFBFFFFF
:1004F600FEFBEFBF2FF0FBEFBFFFFEFBEFBFFFFEE4
:10050600FF4099FF7EFBEFBFFFFEFFEFBF0F32FA02
:10051600EF3FFFFCFB00212C308040030D3080C0F4
:100526000BFCFAFB65AB0DD0F9E989B6FFD9CF2BE9
:1005360047F4530080453E60CD030B0820000000C1
:1005460000000000000000000000000000000000A5
:100556000000000000000000000000000000000095
:10056600EFDFFF7CFAE0847FB6F9CF3F3DDCF17E1A
:10057600150D26D1EBCBBFFFCAD119F44AE0A41260
:10058600F4FC4E10031C0300000008852088CD04EF
:10059600001DACC04C2A5220C000A058002A01738E
:1005A60080CC20200812508C1D0083000100088496
:1005B6000708C142882566A804E0618200900220EF
:1005C60005284481C4072804A7008003C49220900C
:0D05D6000104047018C04422124C6502019B
:1018D500EF8EF0120BE319280000192D00011932C3
:1018E500000219370003193C012C1941012D190F6C
:1018F5000258191402591919025B191E025D1923A0
:1019050002B0194603980000194B7E007F06227E1F
:10191500007F83227E017F00227E017F7D227E0162
:101925007FFA227E027F78227E027FF5227E037F68
:1019350072227E037FEF227E047F6C227E047FE984
:0A194500227E057F6622E4FEFF22E9
:041D2200AB07AA065B
:101D2600AE04ED7803CEC313CE13D8F9F9ED5407FC
:101D3600FFEB29F582E43AF583E493FEA8070880D1
:081D460002C313D8FC5401FF95
:011D4E002272
:101EE400121D7AEF7F00FEC007C006121D7AEFFDB7
:081EF400D0E0FED0E04DFF221A
:100FCF00121EE47C177D1A1209ADC3ED946BEC94DD
:100FDF000350057E027F582274952DFD74FC3CFC56
:100FEF00C3ED94EBEC940050057E027F59227415EB
:100FFF002DFD74FF3CFCC3ED9473EC940250057E01
:10100F00027F5B22748D2DFD74FD3CFCC3ED94714A
:10101F00EC940050057E027F5D22748F2DFD74FFCE
:10102F003CFCC3ED946DEC940250057E027FB02220
:10103F0074932DFD74FD3CFCC3ED94FAEC940150B8
:10104F0004E4FEFF2274062DFD74FE3CFCC3ED94F8
:10105F007AEC940050057E007F012274862DFD747A
:10106F00FF3CFCC3ED94D1EC940350057E007F024E
:10107F0022742F2DFD74FC3CFCC3ED942AEC9400DC
:10108F0050057E007F032274D62DFD74FF3CFCC3F8
:10109F00ED94D3EC940350057E017F2C22742D2DFB
:1010AF00FD74FC3CFEC3ED94D7EE940150057E0118
:0710BF007F2D227E037F98C4
:0110C6002207
:10143A00E4900009F0120FCF900005EEF0A3EFF050
:10144A001218D5900007EEF0A3EFF04E70030214C5
:10145A00EF121D7AEF7F00FEC007C006121D7AEF59
:10146A00FDD0E0FED0E04DFF90000AEEF0A3EFF0D1
:10147A007C037DE81209AD90000AECF0A3EDF09030
:10148A000009E004F0E0D394324008A3E4F0A30496
:10149A00F08016900007E0FEA3E0FF90000AE0FC4F
:1014AA00A3E0FD121D22EF60A8900005E0FEA3E074
:1014BA00FF7C037DE8120C10A804A905AA06AB0755
:1014CA0090000AE0FEA3E0FFE4FCFDEB2FFFEA3EFA
:1014DA00FEED39FDEC38FC121E1CD2A87F207E03DB
:0514EA00121EFCC2A867
:0114EF0022DA
:101ECB00121D7AEF75F00984AFF0121C4AD2A87F6D
:081EDB00207E03121EFCC2A8C8
:011EE30022DC
:0614F000120ECCEF70614A
:1014F600900003F0A3F0121DA59000097402F07B82
:1015060001E4FD7F18121E5F9000097404F07B034E
:10151600E4FD7F38121E5F7B05E4FD7F58121A6CCE
:10152600C3900004E094C8900003E0940050597FF3
:101536000A7E00121EFC900004E004F07006900083
:1015460003E004F020B2D930B2FD7F507E00021EC7
:01155600FC98
:10155700121B8F900020E0B40105121ECB800312EE
:10156700143A121DCE900021E0FCA3E0FDA3E0FE9B
:10157700A3E02401FFE43EFEE43DFDE43CFC9000D3
:0815870021120BA6121F6222C3
:041EC60041002A00AD
:03000300021F13C6
:101F1300C0E0C083C082C2A890002A7401F0D082BE
:051F2300D083D0E03284
:071FDE00D288D2A8D2AF2285
:1011BD00E4900000F0A3F090002AE0FFE4F0EF705F
:1011CD0003021281E4900000F0A3F07F50FE121E86
:1011DD00FC30B204D2A880DFE4900002F07F0A7EDA
:1011ED0000121EFC20B20C900002E004F0E0C3944B
:1011FD006440EA900002E0C39464405E900020E0F9
:10120D0070047F0180027F00900020EFF01212AE7B
:10121D00121DA5900020E0900009B401177416F07E
:10122D007B15E4FD7F20121E5F9000097418F07B82
:10123D0017E480137413F07B12E4FD7F20121E5F00
:10124D00E4900009F07B14FD7F40121E5FD2A87F51
:10125D00207E03121EFCC2A880031214F030B2FDD2
:10126D007F507E00121EFCE490002AF0D2A8121BC3
:10127D00D00211C47F0A7E00121EFC900001E00412
:10128D00F07006900000E004F0C3900001E094F4CB
:10129D00900000E0940150030211C4121F957F01CC
:0112AD00221E
:101F28002B3100081109110A110B110C110D110E9A
:051F3800110F11101152
:101BD000121DA5900020E0900009B401177416F0C2
:101BE0007B15E4FD7F20121E5F9000097418F07BC6
:101BF00017E480137413F07B12E4FD7F20121E5F44
:0E1C0000E4900009F07B14FD7F40121E5F226D
:101C0E00900000120BA6121DA59000097419F07B0E
:101C1E0004E4FD7F28121E5F7B1AE4FD7F48121A32
:101C2E006C900000E0FCA3E0FDA3E0FEA3E0FF90BB
:0C1C3E000012120BA67D027F1C020C8914
:101E1C0090000C120BA6121DA590000CE0FCA3E088
:101E2C00FDA3E0FEA3E0FF900012120BA6E4FD7FE1
:041E3C001C020C89EF
:101DCE00121DA59000097419F07B04E4FD7F1C120E
:101DDE001E5F7B1AE4FD7F3C121A6C7BFF7A1F7923
:081DEE0028E4FD7F4C021B4EAE
:101C4A00900005EFF0C394094002E4F0121DA5903C
:101C5A000005E0FF25E0242BF582E4341FF583E438
:101C6A0093FBEF25E0242CF582E4341FF583E493FB
:0B1C7A00900009F0E4FD7F30021E5FC7
:1005E3000000FE2222FE40A09E8282829EA0200066
:1005F30080601F42827F8080432C102844838000C8
:100603004042CC0000445454547F5454544440005A
:1006130000007F201000FF15151555957F00000081
:1006230000C808090EE808000000FF1010101000B1
:10063300103017100E0908FF4141414141FF0000EE
:10064300080888C8380C0B0808E8080808080800D8
:10065300020100FF40414141417F4141414140008E
:100663004040424458C0407F40C05048464040004C
:100673008080402018070000003F40404040780041
:100683000000FE92929292FE92929292FE000000DD
:10069300404044444444447F444444444440400030
:1006A30000020202028242F20E42820202020000B1
:1006B30010080402010000FF00000001020C00000A
:1006C3000000007E424242C24242427E00000000DD
:1006D3008040300E1020407F444444444440400056
:1006E30000080889CA28980000FF20408000000005
:1006F30000020100FF01060000FF000000030000EC
:10070300100C4424140405060404142444140C009B
:10071300004040414141417F41414141404000004F
:1007230000020212620202FE0202423202020000D0
:1007330001010101010101FF0101010101010100A9
:1007430000020CC000F80848484808FF08098A005E
:1007530002027F80403F001E925E20173846F10060
:1007630000004244584040FF4040504846000000CB
:1007730004040404040404FF04040404040404003F
:100783000484C4B48C10545454FF54547C1010008B
:100793008044281827284949497F49494948400046
:1007A300101010FF1010F00000F8080808F80000FF
:1007B3008040300F40807F00007F2020207F00009A
:1007C300101010FF1010404848487F48C8484000A8
:1007D3000444827F010002020A1242827F02020065
:1007E3001060028C0024242FE42424E42F2424000A
:1007F30004047E0100FF11090719090749917F00CD
:1008030040402020908884838488902020404000AA
:10081300000000003F40404044484740407800000B
:1008230000FE225A8608104424F42C2724E40400F2
:1008330000FF040887413F4080BF8595A59F800046
:100843001010D0FF901000FE020202FE0000000014
:10085300040300FF0083601F0000003F4040780056
:10086300404042CC00504EC8487FC8484840000032
:100873000040201F20504C4340404F50505C4000EC
:10088300101012D2565A5253525A56D21210100006
:100893004030007785858DB5858585E7001060003C
:1008A30000C0301F1010F00000FF20408000000047
:1008B300814021120C03000000FF00000003000030
:1008C3001010FF1090E02F29E909E9292FE000001B
:1008D30042827F414425150D05FE0D152545440033
:1008E300202020FC2426A52C342424FC20202000B6
:1008F30040427D44447C4445447D46457C40400021
:10090300080808F80808081010FF101010F000007D
:100913001030101F088848300E014080403F00000F
:100923001088C43304F49494F49FF49494F404006E
:100933000100FF004232027282869A82E20A32008A
:101B0500121FD6E4F5BC121F95E4F592F591F5B2D6
:101B1500F5B1F5CAF5C9D288D2A8D2AF438702007C
:101B250000F592F591F5B275B10875CA3075C930F1
:101B35007FC8FE121EFC30B2FD7F327E00121EFCF5
:091B4500121DF612158F021BD0CF
:03000000021741A3
:0C174100787FE4F6D8FD75810702178858
:10094300BB010689828A83E0225002E722BBFE02B2
:09095300E32289828A83E49322E5
:10095C00BB010CE58229F582E5833AF583E0225050
:10096C0006E92582F8E622BBFE06E92582F8E2229A
:0D097C00E58229F582E5833AF583E49322B4
:10098900BB010689828A83F0225002F722BBFE014D
:02099900F32247
:10099B00EF8DF0A4A8F0CF8CF0A428CE8DF0A42E70
:0209AB00FE222A
:1009AD00BC000BBE0029EF8DF084FFADF022E4CC2E
:1009BD00F875F008EF2FFFEE33FEEC33FCEE9DECF7
:1009CD00984005FCEE9DFE0FD5F0E9E4CEFD22ED3D
:1009DD00F8F5F0EE8420D21CFEADF075F008EF2F87
:1009ED00FFED33FD4007985006D5F0F222C398FD78
:0509FD000FD5F0EA2215
:100A0200C5F0F8A3E028F0C5F0F8E582158270027F
:060A12001583E038F0221C
:100A1800E88FF0A4CC8BF0A42CFCE98EF0A42CFC7D
:100A28008AF0EDA42CFCEA8EF0A4CDA8F08BF0A4FB
:100A38002DCC3825F0FDE98FF0A42CCD35F0FCEB5A
:100A48008EF0A4FEA9F0EB8FF0A4CFC5F02ECD391F
:0F0A5800FEE43CFCEAA42DCE35F0FDE43CFC228C
:100A670075F008758200EF2FFFEE33FECD33CDCC46
:100A770033CCC58233C5829BED9AEC99E5829840C9
:100A87000CF582EE9BFEED9AFDEC99FC0FD5F0D6A6
:100A9700E4CEFBE4CDFAE4CCF9A88222B800C1B9D0
:100AA7000059BA002DEC8BF084CFCECDFCE5F0CB0E
:100AB700F97818EF2FFFEE33FEED33FDEC33FCEB47
:100AC70033FB10D703994004EB99FB0FD8E5E4F902
:100AD700FA227818EF2FFFEE33FEED33FDEC33FCEF
:100AE700C933C910D7059BE99A4007EC9BFCE99AE3
:100AF700F90FD8E0E4C9FAE4CCFB2275F010EF2F28
:100B0700FFEE33FEED33FDCC33CCC833C810D70727
:100B17009BEC9AE899400AED9BFDEC9AFCE899F862
:0E0B27000FD5F0DAE4CDFBE4CCFAE4C8F922F5
:100B3500EB9FF5F0EA9E42F0E99D42F0E89C45F016
:010B4500228D
:100B4600E8600FECC313FCED13FDEE13FEEF13FF8D
:030B5600D8F122B1
:100B5900E8600FEFC333FFEE33FEED33FDEC33FCFA
:030B6900D8F1229E
:100B6C00BB010789828A83020C495005E9F8020C03
:100B7C003DBBFE05E9F8020C5589828A83020C61A3
:100B8C00BB010789828A83020BA65005E9F8020C87
:0A0B9C0071BBFE05E9F8020C7D2292
:0C0BA600ECF0A3EDF0A3EEF0A3EFF022C2
:100BB200A8828583F0D083D082120BC9120BC9128E
:100BC2000BC9120BC9E473E493A3C583C5F0C583B3
:100BD200C8C582C8F0A3C583C5F0C583C8C582C88D
:010BE20022F0
:100BE300D083D082F8E4937012740193700DA3A3A1
:100BF30093F8740193F5828883E473740293B5F0D8
:0D0C0300067403936860E9A3A3A3A380D83F
:100C1000EC8EF0A4CCC5F0CCCDF8EFA4CEC5F02D71
:100C2000FDE43CFCE8A42EC8C5F03DFDE43CFCEF2F
:0D0C3000A4FFE5F028FEE43DFDE43CFC22BD
:10174D00021A1CE493A3F8E493A34003F68001F27C
:10175D0008DFF48029E493A3F85407240CC8C3339D
:10176D00C4540F4420C8834004F456800146F6DF6C
:10177D00E4800B0102040810204080901EB2E47E2C
:10178D00019360BCA3FF543F30E509541FFEE49361
:10179D00A360010ECF54C025E060A840B8E493A328
:1017AD00FAE493A3F8E493A3C8C582C8CAC583CA53
:1017BD00F0A3C8C582C8CAC583CADFE9DEE780BE0B
:011ECA000017
:0C0C3D00E6FC08E6FD08E6FE08E6FF22E3
:0C0C4900E0FCA3E0FDA3E0FEA3E0FF221E
:0C0C5500E2FC08E2FD08E2FE08E2FF22DB
:100C6100E493FC740193FD740293FE740393FF22D9
:0C0C7100ECF608EDF608EEF608EFF622AF
:0C0C7D00ECF208EDF208EEF208EFF222B3
:00000001FF
