:10197100121F2D12167D121565121701121FD89014
:101981000021E0FCA3E0FDA3E0FEA3E0FF121C03A5
:101991007FF47E01121ED8121BC5121ABA121F53F0
:1019A100EF6005121FA780F2900021E0FCA3E0FD8B
:1019B100A3E0FEA3E0FF121C037FF47E01121ED8F8
:0B19C100121BC51210B8EF60FA80CFB7
:101F2D00E4F592F591F5B275B10875CA3075C93001
:031F3D00021DEF93
:101ED8007D007C08ED1D70011C144C70F7EF1F701D
:061EE800011E144E70EA19
:011EEE0022D1
:101DEF00900000740CF0A3F0A37401F0E4A3F0A32F
:101DFF0004F0FB7A0079001219CC7F01121FC47F07
:061E0F000A7E00021ED84D
:051FDF007F03021883DE
:051FE4007F0F021883CD
:100DC700900003120BB600000000900007120BB64C
:100DD70000000000E490000BF0900003E0F8A3E0AF
:100DE700F9A3E0FAA3E0FBC000C001C002C00312F0
:100DF7001FDFE4FCFDD003D002D001D000EB2FFFB2
:100E0700EA3EFEED39FDEC38FC900003120BAA9088
:100E17000007E0F8A3E0F9A3E0FAA3E0FBC000C0F5
:100E270001C002C003121FE4E4FCFDD003D002D0CE
:100E370001D000EB2FFFEA3EFEED39FDEC38FC90C8
:100E47000007120BAA90000BE004F0E0C3940440E3
:100E570088E4FFFEFDFC900007E0F8A3E0F9A3E0BB
:100E6700FAA3E0FBC3120B39700A900007120BB606
:100E770000000001E47FFF7E0FFDFC900003E0F817
:100E8700A3E0F9A3E0FAA3E0FB120A1C900007E035
:100E9700F8A3E0F9A3E0FAA3E0FB120AA790000C7D
:100EA700120BAAE4FF7E0CFDFC90000CE0F8A3E017
:100EB700F9A3E0FAA3E0FBD3120B3940037F012229
:020EC7007F00AA
:010EC9002206
:101F5300121FE4D3EF94C5EE940540037F01227F63
:011F6300007D
:011F6400225A
:10135800000000000008083E080800363600003E7D
:101368005149453E00427F40004261514946214172
:10137800454B311814127F1027454545393C4A49D9
:101388004930017109050336494949360649492951
:101398001E7E1111117E7F494949363E4141412245
:1013A8007F4141221C7F494949417F090909013E82
:1013B8004149497A7F0808087F00417F4100204061
:1013C800413F017F081422417F404040407F020C8A
:1013D800027F7F0408107F3E4141413E7F09090991
:1013E800063E4151215E7F0919294646494949313E
:1013F80001017F01013F4040403F1F2040201F3F27
:101408004038403F631408146307087008076151A7
:0314180049454300
:101A6F00EFB420037F0022EFB42B037F0122EFB4EA
:101A7F003A037F0222EFC39430400BEFD3943950D7
:101A8F0005EF24D3FF22EFC39441400BEFD3945AB9
:101A9F005005EF24CCFF22EFC39461400BEFD3949A
:0B1AAF007A5005EF24ACFF227F0022DC
:101F7700D2CCD2CD00000000C2CC00000000C2CD00
:011F87002237
:0F1F9800C2CC00000000D2CD00000000D2CC224D
:071D1700AD07121F777F7872
:101D1E00E4FEEF30E703D38001C392CCEF25E0FF62
:101D2E00D2CD00000000C2CD0EEEB408E5D2CCD26A
:071D3E00CD00000000C2CD42
:011D4500227B
:101F8800121D17E4FF121D1EAF05121D1E021F9819
:0F1E3500F583E5822CF582E43583F583E493FF92
:101E4400121D177F40121D1EAF05121D1E021F9882
:10167D007F647E00121ED87FAE121F887FD5121F89
:10168D00887F80121F887FA8121F887F1F121F88D6
:10169D007FD3121F88E4FF121F887F40121F887F9F
:1016AD008D121F887F14121F887F20121F887F02C2
:1016BD00121F887FA1121F887FC8121F887FDA1220
:1016CD001F887F02121F887F81121F887FCF121FF4
:1016DD00887FD9121F887FF1121F887FDB121F8828
:1016ED007F40121F887FA4121F887FA6121F887F3C
:0416FD00AF021F8891
:0F1FA7007FAE121F887F8D121F887F10021F8848
:101D9E00C2AFE4FCEC24B0FF121F88E4FF121F88D0
:101DAE007F10121F88E4FBE4FF121E440BEBB4807D
:081DBE00F60CECB404DED2AF18
:011DC60022FA
:101E7100AC07ED24B0FF121F88EC540FFF121F882E
:0C1E8100AF04EFC4540F2410FF021F88B0
:080FC200900014EFF0A3EDF024
:100FCA00AF03121A6FEF75F005A42458F97413359C
:100FDA00F0FAA374FFF0A3EAF0A3E9F0C2AF90001D
:0B0FEA0014E0FFA3E0FD121E71E4FC08
:100FF500900016E0FBA3E0FAA3E0F98C827583006C
:10100500120960FF900019F0E4A3F0EF30E004E06E
:101015004403F0900019E0FF30E105A3E0440CF033
:10102500EF30E20790001AE04430F0900019E0300C
:10103500E305A3E044C0F090001AE0FF121E44E06F
:04104500FF121E4434
:101049000CECB405A7900014E0FFA3E004FD121E08
:0310590071E4FC43
:10105C00900016E0FBA3E0FAA3E0F98C8275830004
:10106C00120960FF900019F0E4A3F0EF30E404E003
:10107C004403F0900019E0FF30E505A3E0440CF0C8
:10108C00EF30E60790001AE04430F0900019E030A1
:10109C00E705A3E044C0F090001AE0FF121E44E004
:0410AC00FF121E44CD
:0710B0000CECB405A7D2AF60
:0110B7002216
:100C8D0090000EEFF0A3EDF0C007C0057BA07A86B3
:100C9D0079017800A3E0FCA3E0FDA3E0FEA3E0FF53
:100CAD00120AA7EF2430FBD005D007120FC2900017
:100CBD000EE0240CFFC007E47B107A27F9F89000B2
:100CCD0010E0FCA3E0FDA3E0FEA3E0FF120AA7E401
:100CDD007B0AFAF9F8120AA7EB2430FB90000FE01B
:100CED00FDD007120FC290000EE02418FFC007E4DC
:100CFD007BE87A03F9F8900010E0FCA3E0FDA3E097
:100D0D00FEA3E0FF120AA7E47B0AFAF9F8120AA77C
:100D1D00EB2430FB90000FE0FDD007120FC29000C6
:100D2D000EE02424FFC007E47B64FAF9F89000106C
:100D3D00E0FCA3E0FDA3E0FEA3E0FF120AA7E47B25
:100D4D000AFAF9F8120AA7EB2430FB90000FE0FD28
:100D5D00D007120FC290000EE02430FFC007E47BD5
:100D6D000AFAF9F8900010E0FCA3E0FDA3E0FEA361
:100D7D00E0FF120AA7E47B0AFAF9F8120AA7EB249E
:100D8D0030FB90000FE0FDD007120FC290000EE077
:100D9D00243CFFC007E47B0AFAF9F8900010E0FC50
:100DAD00A3E0FDA3E0FEA3E0FF120AA7EB2430FBB6
:0A0DBD0090000FE0FDD007020FC206
:101B030090000DEFF0A3EDF0A3EBF0A3EAF0A3E94F
:101B1300F090000FE0FBA3E0FAA3E0F9120947FB02
:101B2300601E90000DE0FFA3E0FD120FC290000DB8
:101B3300E0240CF0900010E475F001120A0680D145
:011B4300227F
:041A2100A907AA0562
:101A2500EBC3941B5043C2AF121E71E4FC75F0204A
:101A3500EBA424E7F582E5F03405121E350CECB471
:101A450010EBEAC39403501FAF01EA04FD121E71A7
:101A5500E4FC75F020EBA424F7F582E5F0340512DB
:091A65001E350CECB410EBD2AFFD
:011A6E002255
:101E540090000EEFF0A3EDF0121A2190000EE02492
:0D1E640010FFA3E0FD900011E0FB021A2129
:051EA70042002855AACD
:10170100E4900000F0A3F0A3F0121FDF900000E0CE
:101711006EF0A3E06FF0900000E0FCA3E0FDAE04EA
:101721007803C333CE33CED8F9FBAA06ECC41354E5
:1017310007FFEAFEEF4BFF900000EEF0A3EFF0E4AD
:10174100FF000FEFB414FA900002E004F0E0C3943C
:101751002040B6900000E0645AFEA3E064A5FF902B
:101761000000EEF0A3EFF04E700A9000007412F04A
:10177100A37434F0900000E0FFA3E0900028CFF0C4
:03178100A3EFF0E3
:011784002242
:101B4400E4900003F0121FDFAB07AA06900028E020
:101B54006AF0A3E06BF0900028E0FEA3E0FF7C00B5
:101B64007D3D12099FEF2427FFE43E900028F0A357
:101B7400EFF00000900003E004F0E0C3940840C5D7
:011B8400223E
:101D7300900028E0FEA3E0FF7C9D7D6512099FEFA4
:101D8300247AFFEE343B900028F0A3EFF090002874
:0B1D9300E0FCA3E0FDECFFED6FFF2281
:021CB300AB077D
:101CB500EBC39D400122EBFFC3ED9FFFE49400CFF2
:101CC5002401CF3400900026F0A3EFF0121D737E9F
:0F1CD50000900026E0FCA3E0FD1209B1ED2BFF0B
:011CE40022DD
:0F1EAC00440021000000004100200041002500FB
:1014D6007B017A00791490001EE4F0A37405F012E3
:1014E6001CE590000FA3A3A3E0FF900014E0FEEF1D
:1014F6006E60037F002290000FE0FCA3E0FDA3E0F6
:10150600FEA3E0FF7808120B4A900015E06F600317
:101516007F002290000FE0FCA3E0FDA3E0FEA3E025
:10152600FF7810120B4A900016E06F60037F0022CE
:1015360090000FE0FCA3E0FDA3E0FEA3E0FF781817
:10154600120B4A900017E06F60037F002290001391
:0E155600E0FF900018E06F60037F00227F012D
:011564002264
:0B11A50090000DEBF0A3EAF0A3E9F0CE
:1011B0007B017A00791390001EE4F0A37405F0120D
:1011C0001CE5900017E0FF900010E0FBA3E0FAA3FD
:1011D000E0F9EF12098D900014E0FFE4FCFDFE78C9
:1011E00008120B5DA804A905AA06AB07900013E03E
:1011F000FFEB4FFFEAFEE9FDE8FCC004C005C006B6
:10120000C007900015E0FFE4FCFDFE7810120B5DB6
:10121000D003D002D001D000EF4BFFEE4AFEED49E3
:10122000FDEC48FCC004C005C006C007A3E0FFE415
:10123000FCFDFE7818120B5DD003D002D001D00067
:10124000EF4BFFEE4AFEED49FDEC48FC90000DE04F
:10125000FBA3E0FAA3E0F9120B90900010E0FBA3CF
:10126000E0FAA3E0F9120947D3940140037F00227A
:1012700090000DE0FBA3E0FAA3E0F9120B7074FFFD
:0E128000FBFAF9F8C3120B397002FF227F014E
:01128E00223D
:0A17850090000DEEF0FAA3EFF0FB68
:10178F00A3A3A3A3E0900014F090000FE0FCA3E04C
:10179F00FDA3E0FEA3E0FF7808120B4A900015EFBF
:1017AF00F090000FE0FCA3E0FDA3E0FEA3E0FF78C4
:1017BF0010120B4A900016EFF090000FE0FCA3E020
:1017CF00FDA3E0FEA3E0FF7818120B4A900017EF7D
:1017DF00F0900013E0900018F0AF03AE02121F401C
:1017EF0090000DE0FEA3E0FF7B017A0079149000DA
:0A17FF001EE4F0A37405F0021C7A4A
:101565009000107401F0A37400F0A37408F07B01DF
:101575007A007900E4FFFE1211A590000AEFF090C1
:1015850000107401F0A37400F0A37409F07B017AD4
:101595000079047F107E001211A590000AE0601901
:1015A500900000E0FCA3E0FDA3E0FEA3E0FF9000B7
:1015B50021120BAA900008801AEF601D900004E02C
:1015C500FCA3E0FDA3E0FEA3E0FF900021120BAA1F
:1015D500900009E0900020F022900021120BB60047
:0B15E500000000E4900020F012128FC4
:0115F00022D8
:10128F00A2AFE43390000BF0E4A3F0C2AF900021C3
:10129F00E0FCA3E0FDA3E0FEA3E0FF90000F120B24
:1012AF00AA900020E0900013F0E4FFFE1217859043
:1012BF00000CE004F0900021E0FCA3E0FDA3E0FEB1
:1012CF00A3E0FF90000F120BAA900020E0900013F4
:1012DF00F0E4FFFE1214D6EF700990000CE0C394F7
:1012EF000340AAE490000CF0900021E0FCA3E0FD85
:1012FF00A3E0FEA3E0FF90000F120BAA900020E0E6
:10130F00900013F07F107E0012178590000CE00400
:10131F00F0900021E0FCA3E0FDA3E0FEA3E0FF902E
:10132F00000F120BAA900020E0900013F07F107EA8
:10133F00001214D6EF700990000CE0C3940340A87C
:08134F0090000BE024FF92AFB7
:011357002273
:101F6500900025E004F0E0C3940A4005E4F0121265
:021F75008F22B9
:081FD000E4900025F002128FDD
:1019CC00900001120960FFE5DE54F04FF5DE900047
:1019DC0002120960C43354E0FFE5DE54DF4FF5DE3C
:1019EC00120947FFD3941F502B900003120960FE7D
:1019FC00D39401501F900004120960FDD39403503E
:101A0C0013EDC43354E0FDEEC433333354804D4FE7
:051A1C0090FEA8F0227D
:0C1FC400EFB4010443BC802253BC7F2218
:10188300EFD3940F4002806BE4F5BDF5BEE5BC5485
:10189300F044404FF5BC00000000000000000000D1
:1018A300E4FDE5BC30E54753BCDFE5DEAFBD30E525
:1018B3000DEFFEACBEECFBEBFF900010802290001E
:1018C30010E4F0A3EFF0E5BEC4540FFBE0C4F854FA
:1018D3000FC868FF900010E0C454F048FEEF4BFFC0
:1018E300EEF0A3EFF0900010E0FEA3E0FF220DED79
:0718F300B4FAAF7E107F0084
:0118FA0022CB
:0E1FB600E4F5C7F5C5F5C675C3FF75C4FF2277
:071E8D00ECF5C3AF058FC4A3
:101E9400A2AF92D5C2AF75C65A75C6A50000A2D529
:031EA40092AF22D8
:101CE500AD07AC0675C78075F51875C501121E8D53
:101CF500E5C212098D0DBD00010C740129F9E43A04
:101D0500FA90001E74FFF5F0120A0645F070DE0227
:021D15001FB6F7
:101F4000AD07AC0675C78075F51875C503121E8DF3
:031F5000021FB6B7
:101C7A00AD07AC0675C78075F51875C502ECF5C3D6
:101C8A00AF058FC4120947F5C2121E940DBD00019B
:101C9A000C740129F9E43AFA90001E74FFF5F01267
:091CAA000A0645F070D7021FB6CE
:1000060045525200FF9FFFFEFB00FDFFFFFFFFFF73
:10001600FFFFFFEFBFAFF6FBEFBFFFFFFBEFBFFF3B
:10002600FEFFCFBFFFFEFBFFBFFFFEFBEFBF9FD66E
:10003600FFEFBFFFFEFB6B87FD36DB5093FD7CF9C0
:10004600EFAFFFFEFBEFBF9FFEFBEFBFFFFFFFFF24
:10005600FFFFFFFFFFFFFFFFFFFFFFFFFFFFFFFFAA
:10006600FFFFFFFFFFFFFFFFFFFFFFFFFFFFFFFF9A
:10007600FFFFFFFFBF36F0E0A72D00D8EFAFFFFF71
:10008600FBEF9F7D144200002C3620480B3D9C73ED
:10009600CA210F00584C030A1CC0411945B652002C
:1000A6000004108000010C80C24025090000418335
:1000B6000250C00000000000000001000000001017
:1000C60000C90001000048C0010A10C8C38B0D100A
:1000D60012000004366040035D00608001000000ED
:1000E60040000630C00309051A4000001636614775
:1000F600053C10D00223082051688300F2F9FFFF67
:10010600FFFEFB2FBFFFFEFBEFBFFFFEFBFFBF0F98
:10011600C0FAEFBFFFFEFFEFFFFFFEFB00817FFC93
:10012600FB7F2FFFFEFBFFFF2FD3FBEBA7FFFEDBC3
:10013600C50325208810010D14204003399EF8813F
:10014600A70580F8E0039E7ED8EFBF0F74F2008506
:10015600FF3EF0EF27BFBCF3E6270E00E8C0210FF5
:100166007CE04BAFCF36D20881BDBCF0EFA7BF34E1
:10017600F9C52B0F70D8C907DFFEFBEA0B15100275
:10018600008415342043071C90700C21058048C458
:10019600039E34D0000144100000800C1420C003DC
:1001A6009D02C000200F004060030730C000000021
:1001B6000000000000000000011808000000000018
:1001C60008C0001230C0000000000000000000005F
:1001D6000000000000000000000000000000000019
:1001E6000000000000000000000000000000000009
:1001F6000000000000000000FEBFFFFEFBE2BFFFA4
:10020600FEFBFFBFFFFEFFEFBFAFDCFBEFBFFFFF55
:10021600FBEFBFFFFEFFD0BB7FFEFBEFBFFFFEFF86
:10022600EFFF8FFAFBEFBFFFFEDB0B0F1D368B08D0
:10023600870D34C97103FDFEFB6FAF8DF2FBEFAF87
:10024600FFF7FBEFBFFFFEDA40B9FFFAF0EFBF7F23
:10025600F8F1C7230A40E8E091AF7EFAE72B1D16B6
:100266003800000000000000000000000000000050
:10027600000000200000FEFFFFFFFFED87FD764037
:100286000007190000000000C0FA4000000000004E
:100296000000000000000000000000200000002018
:1002A6000400000000000000FFBFFF760000000011
:1002B60000000001E4FFFEFFFFFFFFFFFF3FE5FF39
:1002C600FFEFBFFFFEFB00BCFFFEFBEFBFFEFAFB2E
:1002D600EFBF0FD0FBEF03DFFEFBEFBEFFFEFB0021
:1002E6001DFD3478EFB7FEF6FBEFBF0FF0FBEFBF57
:1002F600FF7AFA0000000000000000000000000085
:10030600000000000000000000000000EEBFFFFE3D
:10031600FF00811F7CE0ED033DB4F77CBD0F00D0EC
:10032600E1235DFC9A0100000000000000000000CF
:1003360000000000000000000000000000000000B7
:1003460000000000000000000000010000000000A6
:100356000000000000000000000000000000000097
:100366000100000100040000000000200008000059
:10037600FEFFFFFFFFFFFFFFFFFFFFFFFFFFFFFF88
:10038600FFFFFFFFFFFFFFFFFFFFFFFFFFFFFFFF77
:10039600FFFFFFFFFFFFFFFFFFFFFFFFFFFFFFFF67
:1003A600FFFFFFFFFFFFFFFFFFFFFFFFFFFFFFFF57
:1003B600FFFFFFFFFFFFFFFFFFFFFFFFFFFFFFFF47
:1003C600FFFFFFFFFFFFFFFFFEFFFFFFFFFEFBEF4D
:1003D600FFFFFEFBEFBFFFFFFBEFBFFFFFFBFFBF14
:1003E600FFFEFBEFBFFFFEFBEFBFFFFFFBFFBFFF05
:1003F600FEFB0F00000000000000000000000000EF
:1004060000000000000000000000000000000000E6
:1004160000000000000000000000000000000000D6
:1004260000000000000000000000000000000000C6
:1004360000000000000000000000000000000000B6
:1004460000000000000000000000000000000000A6
:100456000000000100000000000000000000000095
:1004660000000000000000000000FEFFFFFFFFFF8D
:10047600FFEFFFFFFFFFFFFFFFFFFFFFFFFFFFFF96
:10048600FFFFFFFFFFFFFFFFFFFFFFFFFFFFFFFF76
:10049600FFFFFFFFFFFFFFFDFFFFFFFFFFFFFFFF68
:1004A600FFFFFFFFFFFFFFFFFFFFFFEFFFFFFEFF67
:1004B600FFBFFFFFFFFFFFFFFFFFBFFFFFFFFFFFC6
:1004C600FFFFFEFBFFBFFFFEFBEFFFFFFFFBFFFF94
:1004D600FFFFFFFFFFFFFFFBFFFFFFFFFBEFBFFF7E
:1004E600FEFBFFBFFFFFFFFFBFFFFFFBEFBFFFFEF0
:1004F600FBEFBFFFFEFBEFBF2FF0FBEFBFFFFEFBE7
:10050600EFBFFFFEFF4099FF7EFBEFBFFFFEFFEF51
:10051600BF0F32FAEF3FFFFCFB00212C3080400377
:100526000D3080C00BFCFAFB65AB0DD0F9E989B63E
:10053600FFD9CF2B47F4530080453E60CD030B080F
:100546002000000000000000000000000000000085
:100556000000000000000000000000000000000095
:1005660000000000EFDFFF7CFAE0847FB6F9CF3FA2
:100576003DDCF17E150D26D1EBCBBFFFCAD119F4B8
:100586004AE0A412F4FC4E10031C03000000088588
:100596002088CD04001DACC04C2A5220C000A058B3
:1005A600002A017380CC20200812508C1D00830085
:1005B600010008840708C142882566A804E0618214
:1005C6000090022005284481C4072804A700800360
:1005D600C49220900104047018C04422124C650293
:0105E6000113
:10180900EF8EF0120BE7185C0000186100011866F2
:101819000002186B00031870012C1875012D18436C
:10182900025818480259184D025B1852025D1857A0
:1018390002B0187A03980000187F7E007F0A227E82
:10184900007F87227E017F04227E017F81227E0123
:101859007FFE227E027F7C227E027FF9227E037F29
:1018690076227E037FF3227E047F70227E047FED41
:0A187900227E057F6A22E4FEFF22B2
:041D4600AB07AA0637
:101D4A00AE04ED7803CEC313CE13D8F9F9ED5407D8
:101D5A00FFEB29F582E43AF583E493FEA8070880AD
:081D6A0002C313D8FC5401FF71
:011D7200224E
:101EC000121D73EF7F00FEC007C006121D73EFFDE9
:081ED000D0E0FED0E04DFF223E
:100ECA00121EC07C177D1A1209B1C3ED946BEC9403
:100EDA000350057E027F582274952DFD74FC3CFC5C
:100EEA00C3ED94EBEC940050057E027F59227415F1
:100EFA002DFD74FF3CFCC3ED9473EC940250057E07
:100F0A00027F5B22748D2DFD74FD3CFCC3ED947150
:100F1A00EC940050057E027F5D22748F2DFD74FFD4
:100F2A003CFCC3ED946DEC940250057E027FB02226
:100F3A0074932DFD74FD3CFCC3ED94FAEC940150BE
:100F4A0004E4FEFF2274062DFD74FE3CFCC3ED94FE
:100F5A007AEC940050057E007F012274862DFD7480
:100F6A00FF3CFCC3ED94D1EC940350057E007F0254
:100F7A0022742F2DFD74FC3CFCC3ED942AEC9400E2
:100F8A0050057E007F032274D62DFD74FF3CFCC3FE
:100F9A00ED94D3EC940350057E017F2C22742D2D01
:100FAA00FD74FC3CFEC3ED94D7EE940150057E011E
:070FBA007F2D227E037F98CA
:010FC100220D
:10141B00E4900007F0120ECA900003EEF0A3EFF079
:10142B00121809900005EEF0A3EFF04E700C7BFF45
:10143B007A007906121E150214CE121D73EF7F006F
:10144B00FEC007C006121D73EFFDD0E0FED0E04DCD
:10145B00FF900008EEF0A3EFF07C037DE81209B1DA
:10146B00900008ECF0A3EDF0900007E004F0E0D35F
:10147B0094324008A3E4F0A304F08016900005E03A
:10148B00FEA3E0FF900008E0FCA3E0FD121D46EF79
:10149B0060A8900003E0FEA3E0FF7C037DE8120C44
:1014AB0014A804A905AA06AB07900008E0FEA3E068
:1014BB00FFE4FCFDEB2FFFEA3EFEED39FDEC38FCC3
:0A14CB00121B857FDC7E05121ED87F
:0114D50022F4
:101F1900121D73EF75F00984AFF0121C3F7FDC7E50
:041F290005021ED8B7
:1018FB00120DC7EF7031121D9E9000117402F07B18
:10190B0001E4FD7F18121E549000117404F07B0348
:10191B00E4FD7F38121E547B05E4FD7F58121A211B
:10192B007FD07E07021ED8121B44900020E0B4012A
:10193B0005121F19800312141B121DC77FF47E01A1
:10194B00121ED8900021E0FCA3E0FDA3E0FEA3E073
:10195B002401FFE43EFEE43DFDE43CFC900021123B
:06196B000BAA121F652209
:041EBB0041002A00B8
:03000300021EEFEB
:101EEF00C0E0C083C082C2A890002A7401F0D082E3
:051EFF00D083D0E032A9
:071FD800D288D2A8D2AF228B
:1010B800E4900000F0A3F090002AE0FFE4F0EF7065
:1010C80003021178E4900000F0A3F07F50FE121E96
:1010D800D830B204D2A880DFE4900002F07F0A7E04
:1010E80000121ED820B20C900002E004F0E0C39475
:1010F8006440EA900002E0C39464405A900020E003
:1011080070047F0180027F00900020EFF012128FA0
:10111800121D9E900020E0900011B401177416F083
:101128007B15E4FD7F20121E549000117418F07B8B
:1011380017E480137413F07B12E4FD7F20121E5411
:10114800E4900011F07B14FD7F40121E547FDC7E7A
:1011580005121ED880031218FB30B2FD7F507E00A6
:10116800121ED8E490002AF0D2A8121BC50210BFA4
:101178007F0A7E00121ED8900001E004F0700690ED
:101188000000E004F0C3900001E094F4900000E057
:0C119800940150030210BF121FA77F013A
:0111A4002228
:101F04002B3100081109110A110B110C110D110EBE
:051F1400110F11101176
:101BC500121D9E900020E0900011B401177416F0CC
:101BD5007B15E4FD7F20121E549000117418F07BD4
:101BE50017E480137413F07B12E4FD7F20121E545A
:0E1BF500E4900011F07B14FD7F40121E54227C
:101C0300900000120BAA121D9E9000117419F07B14
:101C130004E4FD7F28121E547B1AE4FD7F48121A48
:101C230021900000E0FCA3E0FDA3E0FEA3E0FF9011
:0C1C33000010120BAA7D027F1C020C8D19
:101B850090000A120BAA121D9E9000117413F07B8F
:101B950012E4FD7F20121E54E4900011F07B14FD29
:101BA5007F40121E5490000AE0FCA3E0FDA3E0FE76
:101BB500A3E0FF900010120BAA7D027F1C020C8D82
:101DC700121D9E9000117419F07B04E4FD7F1C1214
:101DD7001E547B1AE4FD7F3C121A217BFF7A1F7980
:081DE70004E4FD7F4C021B0324
:101E150090000AEBF0A3EAF0A3E9F0121D9E9000F2
:101E25000AE0FBA3E0FAA3E0F97D017F22021B0390
:101C3F00900003EFF0C394094002E4F0121D9E9050
:101C4F000003E0FF25E02407F582E4341FF583E469
:101C5F0093FBEF25E02408F582E4341FF583E4932A
:0B1C6F00900011F0E4FD7F30021E54D5
:1005E7000000FE2222FE40A09E8282829EA0200062
:1005F70080601F42827F8080432C102844838000C4
:100607004042CC0000445454547F54545444400056
:1006170000007F201000FF15151555957F0000007D
:1006270000C808090EE808000000FF1010101000AD
:10063700103017100E0908FF4141414141FF0000EA
:10064700080888C8380C0B0808E8080808080800D4
:10065700020100FF40414141417F4141414140008A
:100667004040424458C0407F40C050484640400048
:100677008080402018070000003F4040404078003D
:100687000000FE92929292FE92929292FE000000D9
:10069700404044444444447F44444444444040002C
:1006A70000020202028242F20E42820202020000AD
:1006B70010080402010000FF00000001020C000006
:1006C7000000007E424242C24242427E00000000D9
:1006D7008040300E1020407F444444444440400052
:1006E70000080889CA28980000FF20408000000001
:1006F70000020100FF01060000FF000000030000E8
:10070700100C4424140405060404142444140C0097
:10071700004040414141417F41414141404000004B
:1007270000020212620202FE0202423202020000CC
:1007370001010101010101FF0101010101010100A5
:1007470000020CC000F80848484808FF08098A005A
:1007570002027F80403F001E925E20173846F1005C
:1007670000004244584040FF4040504846000000C7
:1007770004040404040404FF04040404040404003B
:100787000484C4B48C10545454FF54547C10100087
:100797008044281827284949497F49494948400042
:1007A700101010FF1010F00000F8080808F80000FB
:1007B7008040300F40807F00007F2020207F000096
:1007C700101010FF1010404848487F48C8484000A4
:1007D7000444827F010002020A1242827F02020061
:1007E7001060028C0024242FE42424E42F24240006
:1007F70004047E0100FF11090719090749917F00C9
:1008070040402020908884838488902020404000A6
:10081700000000003F404040444847404078000007
:1008270000FE225A8608104424F42C2724E40400EE
:1008370000FF040887413F4080BF8595A59F800042
:100847001010D0FF901000FE020202FE0000000010
:10085700040300FF0083601F0000003F4040780052
:10086700404042CC00504EC8487FC848484000002E
:100877000040201F20504C4340404F50505C4000E8
:10088700101012D2565A5253525A56D21210100002
:100897004030007785858DB5858585E70010600038
:1008A70000C0301F1010F00000FF20408000000043
:1008B700814021120C03000000FF0000000300002C
:1008C7001010FF1090E02F29E909E9292FE0000017
:1008D70042827F414425150D05FE0D15254544002F
:1008E700202020FC2426A52C342424FC20202000B2
:1008F70040427D44447C4445447D46457C4040001D
:10090700080808F80808081010FF101010F0000079
:100917001030101F088848300E014080403F00000B
:100927001088C43304F49494F49FF49494F404006A
:100937000100FF004232027282869A82E20A320086
:101ABA00121FD0E4F5BC121FA7E4F592F591F5B216
:101ACA00F5B1F5CAF5C9D288D2A8D2AF43870200C8
:101ADA0000F592F591F5B275B10875CA3075C9303D
:101AEA007FC8FE121ED830B2FD7F327E00121ED889
:091AFA00121DEF12167D021BC53E
:030000000215F1F5
:0C15F100787FE4F6D8FD758107021638FB
:10094700BB010689828A83E0225002E722BBFE02AE
:09095700E32289828A83E49322E1
:10096000BB010CE58229F582E5833AF583E022504C
:1009700006E92582F8E622BBFE06E92582F8E22296
:0D098000E58229F582E5833AF583E49322B0
:10098D00BB010689828A83F0225002F722BBFE0149
:02099D00F32243
:10099F00EF8DF0A4A8F0CF8CF0A428CE8DF0A42E6C
:0209AF00FE2226
:1009B100BC000BBE0029EF8DF084FFADF022E4CC2A
:1009C100F875F008EF2FFFEE33FEEC33FCEE9DECF3
:1009D100984005FCEE9DFE0FD5F0E9E4CEFD22ED39
:1009E100F8F5F0EE8420D21CFEADF075F008EF2F83
:1009F100FFED33FD4007985006D5F0F222C398FD74
:050A01000FD5F0EA2210
:100A0600C5F0F8A3E028F0C5F0F8E582158270027B
:060A16001583E038F02218
:100A1C00E88FF0A4CC8BF0A42CFCE98EF0A42CFC79
:100A2C008AF0EDA42CFCEA8EF0A4CDA8F08BF0A4F7
:100A3C002DCC3825F0FDE98FF0A42CCD35F0FCEB56
:100A4C008EF0A4FEA9F0EB8FF0A4CFC5F02ECD391B
:0F0A5C00FEE43CFCEAA42DCE35F0FDE43CFC2288
:100A6B0075F008758200EF2FFFEE33FECD33CDCC42
:100A7B0033CCC58233C5829BED9AEC99E5829840C5
:100A8B000CF582EE9BFEED9AFDEC99FC0FD5F0D6A2
:100A9B00E4CEFBE4CDFAE4CCF9A88222B800C1B9CC
:100AAB000059BA002DEC8BF084CFCECDFCE5F0CB0A
:100ABB00F97818EF2FFFEE33FEED33FDEC33FCEB43
:100ACB0033FB10D703994004EB99FB0FD8E5E4F9FE
:100ADB00FA227818EF2FFFEE33FEED33FDEC33FCEB
:100AEB00C933C910D7059BE99A4007EC9BFCE99ADF
:100AFB00F90FD8E0E4C9FAE4CCFB2275F010EF2F24
:100B0B00FFEE33FEED33FDCC33CCC833C810D70723
:100B1B009BEC9AE899400AED9BFDEC9AFCE899F85E
:0E0B2B000FD5F0DAE4CDFBE4CCFAE4C8F922F1
:100B3900EB9FF5F0EA9E42F0E99D42F0E89C45F012
:010B49002289
:100B4A00E8600FECC313FCED13FDEE13FEEF13FF89
:030B5A00D8F122AD
:100B5D00E8600FEFC333FFEE33FEED33FDEC33FCF6
:030B6D00D8F1229A
:100B7000BB010789828A83020C4D5005E9F8020CFB
:100B800041BBFE05E9F8020C5989828A83020C6593
:100B9000BB010789828A83020BAA5005E9F8020C7F
:0A0BA00075BBFE05E9F8020C812286
:0C0BAA00ECF0A3EDF0A3EEF0A3EFF022BE
:100BB600A8828583F0D083D082120BCD120BCD1282
:100BC6000BCD120BCDE473E493A3C583C5F0C583A7
:100BD600C8C582C8F0A3C583C5F0C583C8C582C889
:010BE60022EC
:100BE700D083D082F8E4937012740193700DA3A39D
:100BF70093F8740193F5828883E473740293B5F0D4
:0D0C0700067403936860E9A3A3A3A380D83B
:100C1400EC8EF0A4CCC5F0CCCDF8EFA4CEC5F02D6D
:100C2400FDE43CFCE8A42EC8C5F03DFDE43CFCEF2B
:0D0C3400A4FFE5F028FEE43DFDE43CFC22B9
:1015FD00021971E493A3F8E493A34003F68001F27A
:10160D0008DFF48029E493A3F85407240CC8C333EE
:10161D00C4540F4420C8834004F456800146F6DFBD
:10162D00E4800B0102040810204080901EA7E47E88
:10163D00019360BCA3FF543F30E509541FFEE493B2
:10164D00A360010ECF54C025E060A840B8E493A379
:10165D00FAE493A3F8E493A3C8C582C8CAC583CAA4
:10166D00F0A3C8C582C8CAC583CADFE9DEE780BE5C
:011EBF000022
:0C0C4100E6FC08E6FD08E6FE08E6FF22DF
:0C0C4D00E0FCA3E0FDA3E0FEA3E0FF221A
:0C0C5900E2FC08E2FD08E2FE08E2FF22D7
:100C6500E493FC740193FD740293FE740393FF22D5
:0C0C7500ECF608EDF608EEF608EFF622AB
:0C0C8100ECF208EDF208EEF208EFF222AF
:00000001FF
