:10196D00121EDB1216791215611216FD121F7290DE
:10197D000021E0FCA3E0FDA3E0FEA3E0FF121B7D30
:10198D007FF47E01121E6F121F83121AB2121F01F5
:10199D00EF6005121F3680F2900021E0FCA3E0FD00
:1019AD00A3E0FEA3E0FF121B7D7FF47E01121E6FEC
:0B19BD00121F831210B4EF60FA80CFFD
:101EDB00E4F592F591F5B275B10875CA3075C93054
:031EEB00021D4293
:101E6F007D007C08ED1D70011C144C70F7EF1F7086
:061E7F00011E144E70EA82
:011E8500223A
:101D4200900000740CF0A3F0A37401F0E4A3F0A3DC
:101D520004F0FB7A0079001219C87F01121F537F29
:061D62000A7E00021E6F64
:051F79007F0302187F48
:051F7E007F0F02187F37
:100DC700900003120BB600000000900007120BB64C
:100DD70000000000E490000BF0900003E0F8A3E0AF
:100DE700F9A3E0FAA3E0FBC000C001C002C00312F0
:100DF7001F79E4FCFDD003D002D001D000EB2FFF18
:100E0700EA3EFEED39FDEC38FC900003120BAA9088
:100E17000007E0F8A3E0F9A3E0FAA3E0FBC000C0F5
:100E270001C002C003121F7EE4FCFDD003D002D034
:100E370001D000EB2FFFEA3EFEED39FDEC38FC90C8
:100E47000007120BAA90000BE004F0E0C3940440E3
:100E570088E4FFFEFDFC900007E0F8A3E0F9A3E0BB
:100E6700FAA3E0FBC3120B39700A900007120BB606
:100E770000000001E47FFF7E0FFDFC900003E0F817
:100E8700A3E0F9A3E0FAA3E0FB120A1C900007E035
:100E9700F8A3E0F9A3E0FAA3E0FB120AA790000C7D
:100EA700120BAAE4FF7E0CFDFC90000CE0F8A3E017
:100EB700F9A3E0FAA3E0FBD3120B3940037F012229
:020EC7007F00AA
:010EC9002206
:101F0100121F7ED3EF94C5EE940540037F01227F1B
:011F110000CF
:011F120022AC
:10135400000000000008083E080800363600003E81
:101364005149453E00427F40004261514946214176
:10137400454B311814127F1027454545393C4A49DD
:101384004930017109050336494949360649492955
:101394001E7E1111117E7F494949363E4141412249
:1013A4007F4141221C7F494949417F090909013E86
:1013B4004149497A7F0808087F00417F4100204065
:1013C400413F017F081422417F404040407F020C8E
:1013D400027F7F0408107F3E4141413E7F09090995
:1013E400063E4151215E7F09192946464949493142
:1013F40001017F01013F4040403F1F2040201F3F2B
:101404004038403F631408146307087008076151AB
:0314140049454304
:101A1D00EFB420037F0022EFB42B037F0122EFB43C
:101A2D003A037F0222EFC39430400BEFD394395029
:101A3D0005EF24D3FF22EFC39441400BEFD3945A0B
:101A4D005005EF24CCFF22EFC39461400BEFD394EC
:0B1A5D007A5005EF24ACFF227F00222E
:101F2500D2CCD2CD00000000C2CC00000000C2CD52
:011F35002289
:081E8600121C9AAF05121C9A10
:0F1E8E00C2CC00000000D2CD00000000D2CC2258
:091C9100AD07C2AF121F257F78D8
:101C9A00E4FEEF30E703D38001C392CCEF25E0FFE7
:101CAA00D2CD00000000C2CD0EEEB408E5D2CCD2EF
:071CBA00CD00000000C2CDC7
:011CC1002200
:0B1F5F00121C91E4FF121E86D2AF227C
:0F1E0A00F583E5822CF582E43583F583E493FFBD
:0B1E1900121C917F40121E86D2AF22E7
:101679007F647E00121E6F7FAE121F5F7FD5121F1F
:101689005F7F80121F5F7FA8121F5F7F1F121F5F7E
:101699007FD3121F5FE4FF121F5F7F40121F5F7F1E
:1016A9008D121F5F7F14121F5F7F20121F5F7F0241
:1016B900121F5F7FA1121F5F7FC8121F5F7FDA129F
:1016C9001F5F7F02121F5F7F81121F5F7FCF121F73
:1016D9005F7FD9121F5F7FF1121F5F7FDB121F5FD0
:1016E9007F40121F5F7FA4121F5F7FA6121F5F7FBB
:0416F900AF021F5FBE
:0F1F36007FAE121F5F7F8D121F5F7F10021F5F34
:101D6800E4FCEC24B0FF121F5FE4FF121F5F7F103A
:101D7800121F5FE4FBE4FF121E190BEBB480F60C94
:041D8800ECB404DED5
:011D8C002234
:101DEE00AC07ED24B0FF121F5FEC540FFF121F5F04
:0C1DFE00AF04EFC4540F2410FF021F5F5D
:080FC200900014EFF0A3EDF024
:100FCA00AF03121A1DEF75F005A42454F9741335F2
:100FDA00F0FAA374FFF0A3EAF0A3E9F0900014E09A
:090FEA00FFA3E0FD121DEEE4FC82
:100FF300900016E0FBA3E0FAA3E0F98C827583006E
:10100300120960FF900019F0E4A3F0EF30E004E070
:101013004403F0900019E0FF30E105A3E0440CF035
:10102300EF30E20790001AE04430F0900019E0300E
:10103300E305A3E044C0F090001AE0FF121E19E09C
:04104300FF121E1961
:101047000CECB405A7900014E0FFA3E004FD121D0B
:03105700EEE4FCC8
:10105A00900016E0FBA3E0FAA3E0F98C8275830006
:10106A00120960FF900019F0E4A3F0EF30E404E005
:10107A004403F0900019E0FF30E505A3E0440CF0CA
:10108A00EF30E60790001AE04430F0900019E030A3
:10109A00E705A3E044C0F090001AE0FF121E19E031
:0410AA00FF121E19FA
:0510AE000CECB405A7E5
:0110B300221A
:100C8D0090000EEFF0A3EDF0C007C0057BA07A86B3
:100C9D0079017800A3E0FCA3E0FDA3E0FEA3E0FF53
:100CAD00120AA7EF2430FBD005D007120FC2900017
:100CBD000EE0240CFFC007E47B107A27F9F89000B2
:100CCD0010E0FCA3E0FDA3E0FEA3E0FF120AA7E401
:100CDD007B0AFAF9F8120AA7EB2430FB90000FE01B
:100CED00FDD007120FC290000EE02418FFC007E4DC
:100CFD007BE87A03F9F8900010E0FCA3E0FDA3E097
:100D0D00FEA3E0FF120AA7E47B0AFAF9F8120AA77C
:100D1D00EB2430FB90000FE0FDD007120FC29000C6
:100D2D000EE02424FFC007E47B64FAF9F89000106C
:100D3D00E0FCA3E0FDA3E0FEA3E0FF120AA7E47B25
:100D4D000AFAF9F8120AA7EB2430FB90000FE0FD28
:100D5D00D007120FC290000EE02430FFC007E47BD5
:100D6D000AFAF9F8900010E0FCA3E0FDA3E0FEA361
:100D7D00E0FF120AA7E47B0AFAF9F8120AA7EB249E
:100D8D0030FB90000FE0FDD007120FC290000EE077
:100D9D00243CFFC007E47B0AFAF9F8900010E0FC50
:100DAD00A3E0FDA3E0FEA3E0FF120AA7EB2430FBB6
:0A0DBD0090000FE0FDD007020FC206
:101AFB0090000DEFF0A3EDF0A3EBF0A3EAF0A3E958
:101B0B00F090000FE0FBA3E0FAA3E0F9120947FB0A
:101B1B00601E90000DE0FFA3E0FD120FC290000DC0
:101B2B00E0240CF0900010E475F001120A0680D14D
:011B3B002287
:041A6800A907AA051B
:101A6C00EBC3941B503F121DEEE4FC75F020EBA46D
:101A7C0024E7F582E5F03405121E0A0CECB410EBE9
:101A8C00EAC39403501FAF01EA04FD121DEEE4FCFF
:101A9C0075F020EBA424F7F582E5F03405121E0A4C
:051AAC000CECB410EB8E
:011AB1002212
:101DD100900004EFF0A3EDF0121A68900004E024E3
:0D1DE10010FFA3E0FD900007E0FB021A6870
:051E3E0042002855AA36
:1016FD00E4900000F0A3F0A3F0121F79900000E039
:10170D006EF0A3E06FF0900000E0FCA3E0FDAE04EE
:10171D007803C333CE33CED8F9FBAA06ECC41354E9
:10172D0007FFEAFEEF4BFF900000EEF0A3EFF0E4B1
:10173D00FF000FEFB414FA900002E004F0E0C39440
:10174D002040B6900000E0645AFEA3E064A5FF902F
:10175D000000EEF0A3EFF04E700A9000007412F04E
:10176D00A37434F0900000E0FFA3E0900028CFF0C8
:03177D00A3EFF0E7
:011780002246
:101B3C00E4900003F0121F79AB07AA06900028E08E
:101B4C006AF0A3E06BF0900028E0FEA3E0FF7C00BD
:101B5C007D3D12099FEF2427FFE43E900028F0A35F
:101B6C00EFF00000900003E004F0E0C3940840C5DF
:011B7C002246
:101CEF00900028E0FEA3E0FF7C9D7D6512099FEF29
:101CFF00247AFFEE343B900028F0A3EFF0900028F9
:0B1D0F00E0FCA3E0FDECFFED6FFF2205
:021C2D00AB0703
:101C2F00EBC39D400122EBFFC3ED9FFFE49400CF78
:101C3F002401CF3400900026F0A3EFF0121CEF7EAA
:0F1C4F0000900026E0FCA3E0FD1209B1ED2BFF91
:011C5E002263
:0F1E430044002100000000410020004100250064
:1014D2007B017A00791490001EE4F0A37405F012E7
:1014E2001C5F90000FA3A3A3E0FF900014E0FEEFA7
:1014F2006E60037F002290000FE0FCA3E0FDA3E0FA
:10150200FEA3E0FF7808120B4A900015E06F60031B
:101512007F002290000FE0FCA3E0FDA3E0FEA3E029
:10152200FF7810120B4A900016E06F60037F0022D2
:1015320090000FE0FCA3E0FDA3E0FEA3E0FF78181B
:10154200120B4A900017E06F60037F002290001395
:0E155200E0FF900018E06F60037F00227F0131
:011560002268
:0B11A10090000DEBF0A3EAF0A3E9F0D2
:1011AC007B017A00791390001EE4F0A37405F01211
:1011BC001C5F900017E0FF900010E0FBA3E0FAA387
:1011CC00E0F9EF12098D900014E0FFE4FCFDFE78CD
:1011DC0008120B5DA804A905AA06AB07900013E042
:1011EC00FFEB4FFFEAFEE9FDE8FCC004C005C006BA
:1011FC00C007900015E0FFE4FCFDFE7810120B5DBB
:10120C00D003D002D001D000EF4BFFEE4AFEED49E7
:10121C00FDEC48FCC004C005C006C007A3E0FFE419
:10122C00FCFDFE7818120B5DD003D002D001D0006B
:10123C00EF4BFFEE4AFEED49FDEC48FC90000DE053
:10124C00FBA3E0FAA3E0F9120B90900010E0FBA3D3
:10125C00E0FAA3E0F9120947D3940140037F00227E
:10126C0090000DE0FBA3E0FAA3E0F9120B7074FF01
:0E127C00FBFAF9F8C3120B397002FF227F0152
:01128A002241
:0A17810090000DEEF0FAA3EFF0FB6C
:10178B00A3A3A3A3E0900014F090000FE0FCA3E050
:10179B00FDA3E0FEA3E0FF7808120B4A900015EFC3
:1017AB00F090000FE0FCA3E0FDA3E0FEA3E0FF78C8
:1017BB0010120B4A900016EFF090000FE0FCA3E024
:1017CB00FDA3E0FEA3E0FF7818120B4A900017EF81
:1017DB00F0900013E0900018F0AF03AE02121EEE73
:1017EB0090000DE0FEA3E0FF7B017A0079149000DE
:0A17FB001EE4F0A37405F0021BF4D5
:101561009000107401F0A37400F0A37408F07B01E3
:101571007A007900E4FFFE1211A190000AEFF090C9
:1015810000107401F0A37400F0A37409F07B017AD8
:101591000079047F107E001211A190000AE0601909
:1015A100900000E0FCA3E0FDA3E0FEA3E0FF9000BB
:1015B10021120BAA900008801AEF601D900004E030
:1015C100FCA3E0FDA3E0FEA3E0FF900021120BAA23
:1015D100900009E0900020F022900021120BB6004B
:0B15E100000000E4900020F012128BCC
:0115EC0022DC
:10128B00A2AFE43390000BF0E4A3F0C2AF900021C7
:10129B00E0FCA3E0FDA3E0FEA3E0FF90000F120B28
:1012AB00AA900020E0900013F0E4FFFE121781904B
:1012BB00000CE004F0900021E0FCA3E0FDA3E0FEB5
:1012CB00A3E0FF90000F120BAA900020E0900013F8
:1012DB00F0E4FFFE1214D2EF700990000CE0C394FF
:1012EB000340AAE490000CF0900021E0FCA3E0FD89
:1012FB00A3E0FEA3E0FF90000F120BAA900020E0EA
:10130B00900013F07F107E0012178190000CE00408
:10131B00F0900021E0FCA3E0FDA3E0FEA3E0FF9032
:10132B00000F120BAA900020E0900013F07F107EAC
:10133B00001214D2EF700990000CE0C3940340A884
:08134B0090000BE024FF92AFBB
:011353002277
:101F1300900025E004F0E0C3940A4005E4F01212B7
:021F23008B220F
:081F6A00E4900025F002128B47
:1019C800900001120960FFE5DE54F04FF5DE90004B
:1019D80002120960C43354E0FFE5DE54DF4FF5DE40
:1019E800120947FFD3941F502B900003120960FE81
:1019F800D39401501F900004120960FDD394035042
:101A080013EDC43354E0FDEEC433333354804D4FEB
:051A180090FEA8F02281
:0C1F5300EFB4010443BC802253BC7F2289
:10187F00EFD3940F4002806BE4F5BDF5BEE5BC5489
:10188F00F044404FF5BC00000000000000000000D5
:10189F00E4FDE5BC30E54753BCDFE5DEAFBD30E529
:1018AF000DEFFEACBEECFBEBFF9000108022900022
:1018BF0010E4F0A3EFF0E5BEC4540FFBE0C4F854FE
:1018CF000FC868FF900010E0C454F048FEEF4BFFC4
:1018DF00EEF0A3EFF0900010E0FEA3E0FF220DED7D
:0718EF00B4FAAF7E107F0088
:0118F60022CF
:0E1F4500E4F5C7F5C5F5C675C3FF75C4FF22E8
:071E2400ECF5C3AF058FC40C
:101E2B00A2AF92D5C2AF75C65A75C6A50000A2D592
:031E3B0092AF2241
:101C5F00AD07AC0675C78075F51875C501121E2442
:101C6F00E5C212098D0DBD00010C740129F9E43A8A
:101C7F00FA90001E74FFF5F0120A0645F070DE02AE
:021C8F001F45EF
:101EEE00AD07AC0675C78075F51875C503121E24AF
:031EFE00021F457B
:101BF400AD07AC0675C78075F51875C502ECF5C35D
:101C0400AF058FC4120947F5C2121E2B0DBD00018A
:101C14000C740129F9E43AFA90001E74FFF5F012ED
:091C24000A0645F070D7021F45C5
:1000060045525200FF9FFFFEFB00FDFFFFFFFFFF73
:10001600FFFFFFEFBFAFF6FBEFBFFFFFFBEFBFFF3B
:10002600FEFFCFBFFFFEFBFFBFFFFEFBEFBF9FD66E
:10003600FFEFBFFFFEFB6B87FD36DB5093FD7CF9C0
:10004600EFAFFFFEFBEFBF9FFEFBEFBFFFFFFFFF24
:10005600FFFFFFFFFFFFFFFFFFFFFFFFFFFFFFFFAA
:10006600FFFFFFFFFFFFFFFFFFFFFFFFFFFFFFFF9A
:10007600FFFFFFFFBF36F0E0A72D00D8EFAFFFFF71
:10008600FBEF9F7D144200002C3620480B3D9C73ED
:10009600CA210F00584C030A1CC0411945B652002C
:1000A6000004108000010C80C24025090000418335
:1000B6000250C00000000000000001000000001017
:1000C60000C90001000048C0010A10C8C38B0D100A
:1000D60012000004366040035D00608001000000ED
:1000E60040000630C00309051A4000001636614775
:1000F600053C10D00223082051688300F2F9FFFF67
:10010600FFFEFB2FBFFFFEFBEFBFFFFEFBFFBF0F98
:10011600C0FAEFBFFFFEFFEFFFFFFEFB00817FFC93
:10012600FB7F2FFFFEFBFFFF2FD3FBEBA7FFFEDBC3
:10013600C50325208810010D14204003399EF8813F
:10014600A70580F8E0039E7ED8EFBF0F74F2008506
:10015600FF3EF0EF27BFBCF3E6270E00E8C0210FF5
:100166007CE04BAFCF36D20881BDBCF0EFA7BF34E1
:10017600F9C52B0F70D8C907DFFEFBEA0B15100275
:10018600008415342043071C90700C21058048C458
:10019600039E34D0000144100000800C1420C003DC
:1001A6009D02C000200F004060030730C000000021
:1001B6000000000000000000011808000000000018
:1001C60008C0001230C0000000000000000000005F
:1001D6000000000000000000000000000000000019
:1001E6000000000000000000000000000000000009
:1001F6000000000000000000FEBFFFFEFBE2BFFFA4
:10020600FEFBFFBFFFFEFFEFBFAFDCFBEFBFFFFF55
:10021600FBEFBFFFFEFFD0BB7FFEFBEFBFFFFEFF86
:10022600EFFF8FFAFBEFBFFFFEDB0B0F1D368B08D0
:10023600870D34C97103FDFEFB6FAF8DF2FBEFAF87
:10024600FFF7FBEFBFFFFEDA40B9FFFAF0EFBF7F23
:10025600F8F1C7230A40E8E091AF7EFAE72B1D16B6
:100266003800000000000000000000000000000050
:10027600000000200000FEFFFFFFFFED87FD764037
:100286000007190000000000C0FA4000000000004E
:100296000000000000000000000000200000002018
:1002A6000400000000000000FFBFFF760000000011
:1002B60000000001E4FFFEFFFFFFFFFFFF3FE5FF39
:1002C600FFEFBFFFFEFB00BCFFFEFBEFBFFEFAFB2E
:1002D600EFBF0FD0FBEF03DFFEFBEFBEFFFEFB0021
:1002E6001DFD3478EFB7FEF6FBEFBF0FF0FBEFBF57
:1002F600FF7AFA0000000000000000000000000085
:10030600000000000000000000000000EEBFFFFE3D
:10031600FF00811F7CE0ED033DB4F77CBD0F00D0EC
:10032600E1235DFC9A0100000000000000000000CF
:1003360000000000000000000000000000000000B7
:1003460000000000000000000000010000000000A6
:100356000000000000000000000000000000000097
:100366000100000100040000000000200008000059
:10037600FEFFFFFFFFFFFFFFFFFFFFFFFFFFFFFF88
:10038600FFFFFFFFFFFFFFFFFFFFFFFFFFFFFFFF77
:10039600FFFFFFFFFFFFFFFFFFFFFFFFFFFFFFFF67
:1003A600FFFFFFFFFFFFFFFFFFFFFFFFFFFFFFFF57
:1003B600FFFFFFFFFFFFFFFFFFFFFFFFFFFFFFFF47
:1003C600FFFFFFFFFFFFFFFFFEFFFFFFFFFEFBEF4D
:1003D600FFFFFEFBEFBFFFFFFBEFBFFFFFFBFFBF14
:1003E600FFFEFBEFBFFFFEFBEFBFFFFFFBFFBFFF05
:1003F600FEFB0F00000000000000000000000000EF
:1004060000000000000000000000000000000000E6
:1004160000000000000000000000000000000000D6
:1004260000000000000000000000000000000000C6
:1004360000000000000000000000000000000000B6
:1004460000000000000000000000000000000000A6
:100456000000000100000000000000000000000095
:1004660000000000000000000000FEFFFFFFFFFF8D
:10047600FFEFFFFFFFFFFFFFFFFFFFFFFFFFFFFF96
:10048600FFFFFFFFFFFFFFFFFFFFFFFFFFFFFFFF76
:10049600FFFFFFFFFFFFFFFDFFFFFFFFFFFFFFFF68
:1004A600FFFFFFFFFFFFFFFFFFFFFFEFFFFFFEFF67
:1004B600FFBFFFFFFFFFFFFFFFFFBFFFFFFFFFFFC6
:1004C600FFFFFEFBFFBFFFFEFBEFFFFFFFFBFFFF94
:1004D600FFFFFFFFFFFFFFFBFFFFFFFFFBEFBFFF7E
:1004E600FEFBFFBFFFFFFFFFBFFFFFFBEFBFFFFEF0
:1004F600FBEFBFFFFEFBEFBF2FF0FBEFBFFFFEFBE7
:10050600EFBFFFFEFF4099FF7EFBEFBFFFFEFFEF51
:10051600BF0F32FAEF3FFFFCFB00212C3080400377
:100526000D3080C00BFCFAFB65AB0DD0F9E989B63E
:10053600FFD9CF2B47F4530080453E60CD030B080F
:100546002000000000000000000000000000000085
:100556000000000000000000000000000000000095
:1005660000000000EFDFFF7CFAE0847FB6F9CF3FA2
:100576003DDCF17E150D26D1EBCBBFFFCAD119F4B8
:100586004AE0A412F4FC4E10031C03000000088588
:100596002088CD04001DACC04C2A5220C000A058B3
:1005A600002A017380CC20200812508C1D00830085
:1005B600010008840708C142882566A804E0618214
:1005C6000090022005284481C4072804A700800360
:1005D600C49220900104047018C04422124C650293
:0105E6000113
:10180500EF8EF0120BE718580000185D0001186202
:10181500000218670003186C012C1871012D183F80
:101825000258184402591849025B184E025D1853B4
:1018350002B0187603980000187B7E007F0A227E8E
:10184500007F87227E017F04227E017F81227E0127
:101855007FFE227E027F7C227E027FF9227E037F2D
:1018650076227E037FF3227E047F70227E047FED45
:0A187500227E057F6A22E4FEFF22B6
:041CC200AB07AA06BC
:101CC600AE04ED7803CEC313CE13D8F9F9ED54075D
:101CD600FFEB29F582E43AF583E493FEA807088032
:081CE60002C313D8FC5401FFF6
:011CEE0022D3
:101E5700121CEFEF7F00FEC007C006121CEFEFFD5C
:081E6700D0E0FED0E04DFF22A7
:100ECA00121E577C177D1A1209B1C3ED946BEC946C
:100EDA000350057E027F582274952DFD74FC3CFC5C
:100EEA00C3ED94EBEC940050057E027F59227415F1
:100EFA002DFD74FF3CFCC3ED9473EC940250057E07
:100F0A00027F5B22748D2DFD74FD3CFCC3ED947150
:100F1A00EC940050057E027F5D22748F2DFD74FFD4
:100F2A003CFCC3ED946DEC940250057E027FB02226
:100F3A0074932DFD74FD3CFCC3ED94FAEC940150BE
:100F4A0004E4FEFF2274062DFD74FE3CFCC3ED94FE
:100F5A007AEC940050057E007F012274862DFD7480
:100F6A00FF3CFCC3ED94D1EC940350057E007F0254
:100F7A0022742F2DFD74FC3CFCC3ED942AEC9400E2
:100F8A0050057E007F032274D62DFD74FF3CFCC3FE
:100F9A00ED94D3EC940350057E017F2C22742D2D01
:100FAA00FD74FC3CFEC3ED94D7EE940150057E011E
:070FBA007F2D227E037F98CA
:010FC100220D
:10141700E4900007F0120ECA900003EEF0A3EFF07D
:10142700121805900005EEF0A3EFF04E700C7BFF4D
:101437007A007906121DB10214CA121CEFEF7F0061
:10144700FEC007C006121CEFEFFDD0E0FED0E04D56
:10145700FF900008EEF0A3EFF07C037DE81209B1DE
:10146700900008ECF0A3EDF0900007E004F0E0D363
:1014770094324008A3E4F0A304F08016900005E03E
:10148700FEA3E0FF900008E0FCA3E0FD121CC2EF02
:1014970060A8900003E0FEA3E0FF7C037DE8120C48
:1014A70014A804A905AA06AB07900008E0FEA3E06C
:1014B700FFE4FCFDEB2FFFEA3EFEED39FDEC38FCC7
:0A14C700121D8D7FDC7E05121E6FE2
:0114D10022F8
:101EC700121CEFEF75F00984AFF0121BB97FDC7EAF
:041ED70005021E6F73
:1018F700120DC7EF7031121D689000077402F07B5C
:1019070001E4FD7F18121DD19000077404F07B03DA
:10191700E4FD7F38121DD17B05E4FD7F58121A685C
:101927007FD07E07021E6F121B3C900020E0B4019F
:1019370005121EC78003121417121D1A7FF47E01A9
:10194700121E6F900021E0FCA3E0FDA3E0FEA3E0E0
:101957002401FFE43EFEE43DFDE43CFC900021123F
:061967000BAA121F13225F
:041E520041002A0021
:03000300021E9D3D
:101E9D00C0E0C083C082C2A890002A7401F0D08235
:051EAD00D083D0E032FB
:071F7200D288D2A8D2AF22F1
:1010B400E4900000F0A3F090002AE0FFE4F0EF7069
:1010C40003021174E4900000F0A3F07F50FE121E9E
:1010D4006F30B204D2A880DFE4900002F07F0A7E71
:1010E40000121E6F20B20C900002E004F0E0C394E2
:1010F4006440EA900002E0C39464405A900020E007
:1011040070047F0180027F00900020EFF012128BA8
:10111400121D68900020E0900007B401177416F0C7
:101124007B15E4FD7F20121DD19000077418F07B1D
:1011340017E480137413F07B12E4FD7F20121DD199
:10114400E4900007F07B14FD7F40121DD17FDC7E0C
:1011540005121E6F80031218F730B2FD7F507E0017
:10116400121E6FE490002AF0D2A8121F830210BB53
:101174007F0A7E00121E6F900001E004F07006905A
:101184000000E004F0C3900001E094F4900000E05B
:0C119400940150030210BB121F367F01B3
:0111A000222C
:101EB2002B3100081109110A110B110C110D110E11
:051EC200110F111011C9
:031F8300021D68D4
:101B7D00900000120BAA121D689000077419F07BDB
:101B8D0004E4FD7F28121DD17B1AE4FD7F48121A53
:101B9D0068900000E0FCA3E0FDA3E0FEA3E0FF9051
:0C1BAD000010120BAA7D027F1C020C8DA0
:101D8D0090000A120BAA121D6890000AE0FCA3E055
:101D9D00FDA3E0FEA3E0FF900010120BAAE4FD7F6F
:041DAD001C020C8D7B
:101D1A00121D689000077419F07B04E4FD7F1C1201
:101D2A001DD17B1AE4FD7F3C121A687BFF7A1E796B
:081D3A00B2E4FD7F4C021AFB2C
:101DB10090000AEBF0A3EAF0A3E9F0121D6890008D
:101DC1000AE0FBA3E0FAA3E0F97D017F22021AFBFE
:101BB900900003EFF0C394094002E4F0121D68900D
:101BC9000003E0FF25E024B5F582E4341EF583E443
:101BD90093FBEF25E024B6F582E4341EF583E49304
:0B1BE900900007F0E4FD7F30021DD1EA
:1005E7000000FE2222FE40A09E8282829EA0200062
:1005F70080601F42827F8080432C102844838000C4
:100607004042CC0000445454547F54545444400056
:1006170000007F201000FF15151555957F0000007D
:1006270000C808090EE808000000FF1010101000AD
:10063700103017100E0908FF4141414141FF0000EA
:10064700080888C8380C0B0808E8080808080800D4
:10065700020100FF40414141417F4141414140008A
:100667004040424458C0407F40C050484640400048
:100677008080402018070000003F4040404078003D
:100687000000FE92929292FE92929292FE000000D9
:10069700404044444444447F44444444444040002C
:1006A70000020202028242F20E42820202020000AD
:1006B70010080402010000FF00000001020C000006
:1006C7000000007E424242C24242427E00000000D9
:1006D7008040300E1020407F444444444440400052
:1006E70000080889CA28980000FF20408000000001
:1006F70000020100FF01060000FF000000030000E8
:10070700100C4424140405060404142444140C0097
:10071700004040414141417F41414141404000004B
:1007270000020212620202FE0202423202020000CC
:1007370001010101010101FF0101010101010100A5
:1007470000020CC000F80848484808FF08098A005A
:1007570002027F80403F001E925E20173846F1005C
:1007670000004244584040FF4040504846000000C7
:1007770004040404040404FF04040404040404003B
:100787000484C4B48C10545454FF54547C10100087
:100797008044281827284949497F49494948400042
:1007A700101010FF1010F00000F8080808F80000FB
:1007B7008040300F40807F00007F2020207F000096
:1007C700101010FF1010404848487F48C8484000A4
:1007D7000444827F010002020A1242827F02020061
:1007E7001060028C0024242FE42424E42F24240006
:1007F70004047E0100FF11090719090749917F00C9
:1008070040402020908884838488902020404000A6
:10081700000000003F404040444847404078000007
:1008270000FE225A8608104424F42C2724E40400EE
:1008370000FF040887413F4080BF8595A59F800042
:100847001010D0FF901000FE020202FE0000000010
:10085700040300FF0083601F0000003F4040780052
:10086700404042CC00504EC8487FC848484000002E
:100877000040201F20504C4340404F50505C4000E8
:10088700101012D2565A5253525A56D21210100002
:100897004030007785858DB5858585E70010600038
:1008A70000C0301F1010F00000FF20408000000043
:1008B700814021120C03000000FF0000000300002C
:1008C7001010FF1090E02F29E909E9292FE0000017
:1008D70042827F414425150D05FE0D15254544002F
:1008E700202020FC2426A52C342424FC20202000B2
:1008F70040427D44447C4445447D46457C4040001D
:10090700080808F80808081010FF101010F0000079
:100917001030101F088848300E014080403F00000B
:100927001088C43304F49494F49FF49494F404006A
:100937000100FF004232027282869A82E20A320086
:101AB200121F6AE4F5BC121F36E4F592F591F5B2F5
:101AC200F5B1F5CAF5C9D288D2A8D2AF43870200D0
:101AD20000F592F591F5B275B10875CA3075C93045
:101AE2007FC8FE121E6F30B2FD7F327E00121E6F63
:091AF200121D42121679021F8335
:030000000215EDF9
:0C15ED00787FE4F6D8FD75810702163403
:10094700BB010689828A83E0225002E722BBFE02AE
:09095700E32289828A83E49322E1
:10096000BB010CE58229F582E5833AF583E022504C
:1009700006E92582F8E622BBFE06E92582F8E22296
:0D098000E58229F582E5833AF583E49322B0
:10098D00BB010689828A83F0225002F722BBFE0149
:02099D00F32243
:10099F00EF8DF0A4A8F0CF8CF0A428CE8DF0A42E6C
:0209AF00FE2226
:1009B100BC000BBE0029EF8DF084FFADF022E4CC2A
:1009C100F875F008EF2FFFEE33FEEC33FCEE9DECF3
:1009D100984005FCEE9DFE0FD5F0E9E4CEFD22ED39
:1009E100F8F5F0EE8420D21CFEADF075F008EF2F83
:1009F100FFED33FD4007985006D5F0F222C398FD74
:050A01000FD5F0EA2210
:100A0600C5F0F8A3E028F0C5F0F8E582158270027B
:060A16001583E038F02218
:100A1C00E88FF0A4CC8BF0A42CFCE98EF0A42CFC79
:100A2C008AF0EDA42CFCEA8EF0A4CDA8F08BF0A4F7
:100A3C002DCC3825F0FDE98FF0A42CCD35F0FCEB56
:100A4C008EF0A4FEA9F0EB8FF0A4CFC5F02ECD391B
:0F0A5C00FEE43CFCEAA42DCE35F0FDE43CFC2288
:100A6B0075F008758200EF2FFFEE33FECD33CDCC42
:100A7B0033CCC58233C5829BED9AEC99E5829840C5
:100A8B000CF582EE9BFEED9AFDEC99FC0FD5F0D6A2
:100A9B00E4CEFBE4CDFAE4CCF9A88222B800C1B9CC
:100AAB000059BA002DEC8BF084CFCECDFCE5F0CB0A
:100ABB00F97818EF2FFFEE33FEED33FDEC33FCEB43
:100ACB0033FB10D703994004EB99FB0FD8E5E4F9FE
:100ADB00FA227818EF2FFFEE33FEED33FDEC33FCEB
:100AEB00C933C910D7059BE99A4007EC9BFCE99ADF
:100AFB00F90FD8E0E4C9FAE4CCFB2275F010EF2F24
:100B0B00FFEE33FEED33FDCC33CCC833C810D70723
:100B1B009BEC9AE899400AED9BFDEC9AFCE899F85E
:0E0B2B000FD5F0DAE4CDFBE4CCFAE4C8F922F1
:100B3900EB9FF5F0EA9E42F0E99D42F0E89C45F012
:010B49002289
:100B4A00E8600FECC313FCED13FDEE13FEEF13FF89
:030B5A00D8F122AD
:100B5D00E8600FEFC333FFEE33FEED33FDEC33FCF6
:030B6D00D8F1229A
:100B7000BB010789828A83020C4D5005E9F8020CFB
:100B800041BBFE05E9F8020C5989828A83020C6593
:100B9000BB010789828A83020BAA5005E9F8020C7F
:0A0BA00075BBFE05E9F8020C812286
:0C0BAA00ECF0A3EDF0A3EEF0A3EFF022BE
:100BB600A8828583F0D083D082120BCD120BCD1282
:100BC6000BCD120BCDE473E493A3C583C5F0C583A7
:100BD600C8C582C8F0A3C583C5F0C583C8C582C889
:010BE60022EC
:100BE700D083D082F8E4937012740193700DA3A39D
:100BF70093F8740193F5828883E473740293B5F0D4
:0D0C0700067403936860E9A3A3A3A380D83B
:100C1400EC8EF0A4CCC5F0CCCDF8EFA4CEC5F02D6D
:100C2400FDE43CFCE8A42EC8C5F03DFDE43CFCEF2B
:0D0C3400A4FFE5F028FEE43DFDE43CFC22B9
:1015F90002196DE493A3F8E493A34003F68001F282
:1016090008DFF48029E493A3F85407240CC8C333F2
:10161900C4540F4420C8834004F456800146F6DFC1
:10162900E4800B0102040810204080901E3EE47EF5
:10163900019360BCA3FF543F30E509541FFEE493B6
:10164900A360010ECF54C025E060A840B8E493A37D
:10165900FAE493A3F8E493A3C8C582C8CAC583CAA8
:10166900F0A3C8C582C8CAC583CADFE9DEE780BE60
:011E5600008B
:0C0C4100E6FC08E6FD08E6FE08E6FF22DF
:0C0C4D00E0FCA3E0FDA3E0FEA3E0FF221A
:0C0C5900E2FC08E2FD08E2FE08E2FF22D7
:100C6500E493FC740193FD740293FE740393FF22D5
:0C0C7500ECF608EDF608EEF608EFF622AB
:0C0C8100ECF208EDF208EEF208EFF222AF
:00000001FF
