:1019C200121F8212158A1216B01217C8121FE09047
:1019D2000021E0FCA3E0FDA3E0FEA3E0FF121C0D4A
:1019E2007FF47E01121EDF121BCF121B8F121DD23B
:1019F200121F5EEF6005121FA480EF12158A90007D
:101A020021E0FCA3E0FDA3E0FEA3E0FF121C0D7F9A
:101A1200F47E01121EDF121BCF1211B9EF60FA80A1
:011A2200C9FA
:101F8200E4F592F591F5B275B10875CA3075C930AC
:011F9200222C
:101EDF007D007C08ED1D70011C144C70F7EF1F7016
:061EEF00011E144E70EA12
:011EF50022CA
:101DD200900000740CF0A3F0A37401F0E4A3F0A34C
:101DE20004F0FB7A007900121A237F01121FC17FCF
:061DF2000A7E00021EDF64
:051FE7007F0302194A0E
:051FEC007F0F02194AFD
:100ECC00900005120BB200000000900009120BB24A
:100EDC0000000000E490000DF0900005E0F8A3E0A5
:100EEC00F9A3E0FAA3E0FBC000C001C002C00312EA
:100EFC001FE7E4FCFDD003D002D001D000EB2FFFA4
:100F0C00EA3EFEED39FDEC38FC900005120BA69084
:100F1C000009E0F8A3E0F9A3E0FAA3E0FBC000C0ED
:100F2C0001C002C003121FECE4FCFDD003D002D0C0
:100F3C0001D000EB2FFFEA3EFEED39FDEC38FC90C2
:100F4C000009120BA690000DE004F0E0C3940440DD
:100F5C0088E4FFFEFDFC900009E0F8A3E0F9A3E0B3
:100F6C00FAA3E0FBC3120B35700A900009120BB206
:100F7C0000000001E47FFF7E0FFDFC900005E0F80F
:100F8C00A3E0F9A3E0FAA3E0FB120A18900009E031
:100F9C00F8A3E0F9A3E0FAA3E0FB120AA390000E79
:100FAC00120BA6E4FF7E0CFDFC90000EE0F8A3E013
:100FBC00F9A3E0FAA3E0FBD3120B3540037F012227
:020FCC007F00A4
:010FCE002200
:101F5E00121FECD3EF94C5EE940540037F01227F50
:011F6E000072
:011F6F00224F
:10136F00000000000008083E080800363600003E66
:10137F005149453E00427F4000426151494621415B
:10138F00454B311814127F1027454545393C4A49C2
:10139F00493001710905033649494936064949293A
:1013AF001E7E1111117E7F494949363E414141222E
:1013BF007F4141221C7F494949417F090909013E6B
:1013CF004149497A7F0808087F00417F410020404A
:1013DF00413F017F081422417F404040407F020C73
:1013EF00027F7F0408107F3E4141413E7F0909097A
:1013FF00063E4151215E7F09192946464949493127
:10140F0001017F01013F4040403F1F2040201F3F0F
:10141F004038403F63140814630708700807615190
:03142F00494543E9
:101A7800EFB420037F0022EFB42B037F0122EFB4E1
:101A88003A037F0222EFC39430400BEFD3943950CE
:101A980005EF24D3FF22EFC39441400BEFD3945AB0
:101AA8005005EF24CCFF22EFC39461400BEFD39491
:0B1AB8007A5005EF24ACFF227F0022D3
:101F9300D2CCD2CD00000000C2CC00000000C2CDE4
:011FA300221B
:081EF600121D2AAF05121D2A7E
:0F1EFE00C2CC00000000D2CD00000000D2CC22E8
:091D2100AD07C2AF121F937F78D9
:101D2A00E4FEEF30E703D38001C392CCEF25E0FF56
:101D3A00D2CD00000000C2CD0EEEB408E5D2CCD25E
:071D4A00CD00000000C2CD36
:011D5100226F
:0B1FCD00121D21E4FF121EF6D2AF220D
:0F1E7A00F583E5822CF582E43583F583E493FF4D
:0B1E8900121D217F40121EF6D2AF2276
:10158A00D2CCE4FFC2CDD2CD0FEFB409F7121F932C
:10159A00121EFE7FC87E00121EDF7FAE121FCD7F95
:1015AA00D5121FCD7F80121FCD7FA8121FCD7F1F9E
:1015BA00121FCD7FD3121FCDE4FF121FCD7F401221
:1015CA001FCD7F8D121FCD7F14121FCD7F20121FBA
:1015DA00CD7F02121FCD7FA1121FCD7FC8121FCD52
:1015EA007FDA121FCD7F02121FCD7F81121FCD7F9E
:1015FA00CF121FCD7FD9121FCD7FF1121FCD7FDBF6
:10160A00121FCD7F40121FCD7FA4121FCD7FA612BD
:07161A001FCD7FAF021FCDC1
:0F1FA4007FAE121FCD7F8D121FCD7F10021FCD7C
:101DF800E4FCEC24B0FF121FCDE4FF121FCD7F10CE
:101E0800121FCDE4FBE4FF121E890BEBB480F60C25
:041E1800ECB404DE44
:011E1C0022A3
:101E5E00AC07ED24B0FF121FCDEC540FFF121FCDB7
:0C1E6E00AF04EFC4540F2410FF021FCD7E
:0810C700900016EFF0A3EDF01C
:1010CF00AF03121A78EF75F005A4246FF974133576
:1010DF00F0FAA374FFF0A3EAF0A3E9F0900016E092
:0910EF00FFA3E0FD121E5EE4FC0B
:1010F800900018E0FBA3E0FAA3E0F98C8275830066
:1011080012095CFF90001BF0E4A3F0EF30E004E06C
:101118004403F090001BE0FF30E105A3E0440CF02D
:10112800EF30E20790001CE04430F090001BE03004
:10113800E305A3E044C0F090001CE0FF121E89E024
:04114800FF121E89EB
:10114C000CECB405A7900016E0FFA3E004FD121E02
:03115C005EE4FC52
:10115F00900018E0FBA3E0FAA3E0F98C82758300FE
:10116F0012095CFF90001BF0E4A3F0EF30E404E001
:10117F004403F090001BE0FF30E505A3E0440CF0C2
:10118F00EF30E60790001CE04430F090001BE03099
:10119F00E705A3E044C0F090001CE0FF121E89E0B9
:0411AF00FF121E8984
:0511B3000CECB405A7DF
:0111B8002214
:100C8900900010EFF0A3EDF0C007C0057BA07A86B5
:100C990079017800A3E0FCA3E0FDA3E0FEA3E0FF57
:100CA900120AA3EF2430FBD005D0071210C7900019
:100CB90010E0240CFFC007E47B107A27F9F89000B4
:100CC90012E0FCA3E0FDA3E0FEA3E0FF120AA3E407
:100CD9007B0AFAF9F8120AA3EB2430FB900011E021
:100CE900FDD0071210C7900010E02418FFC007E4D8
:100CF9007BE87A03F9F8900012E0FCA3E0FDA3E099
:100D0900FEA3E0FF120AA3E47B0AFAF9F8120AA388
:100D1900EB2430FB900011E0FDD0071210C79000C2
:100D290010E02424FFC007E47B64FAF9F89000126C
:100D3900E0FCA3E0FDA3E0FEA3E0FF120AA3E47B2D
:100D49000AFAF9F8120AA3EB2430FB900011E0FD2E
:100D5900D0071210C7900010E02430FFC007E47BD1
:100D69000AFAF9F8900012E0FCA3E0FDA3E0FEA363
:100D7900E0FF120AA3E47B0AFAF9F8120AA3EB24AA
:100D890030FB900011E0FDD0071210C7900010E071
:100D9900243CFFC007E47B0AFAF9F8900012E0FC52
:100DA900A3E0FDA3E0FEA3E0FF120AA3EB2430FBBE
:0A0DB900900011E0FDD0070210C702
:101B0D00900005EFF0A3EDF0A3EBF0A3EAF0A3E94D
:101B1D00F0900007E0FBA3E0FAA3E0F9120943FB04
:101B2D00601E900005E0FFA3E0FD1210C7900005B8
:101B3D00E0240CF0900008E475F001120A0280D147
:011B4D002275
:041AC300A907AA05C0
:101AC700EBC3941B503F121E5EE4FC75F020EBA4A1
:101AD70024E3F582E5F03405121E7A0CECB410EB22
:101AE700EAC39403501FAF01EA04FD121E5EE4FC33
:101AF70075F020EBA424F3F582E5F03405121E7A85
:051B07000CECB410EB32
:011B0C0022B6
:101E4100900006EFF0A3EDF0121AC3900006E02413
:0D1E510010FFA3E0FD900009E0FB021AC3A2
:051EAE0042002855AAC6
:1017C800E4900000F0A3F0A3F0121FE7900000E0FF
:1017D8006EF0A3E06FF0900000E0FCA3E0FDAE0423
:1017E8007803C333CE33CED8F9FBAA06ECC413541E
:1017F80007FFEAFEEF4BFF900000EEF0A3EFF0E4E6
:10180800FF000FEFB414FA900002E004F0E0C39474
:101818002040B6900000E0645AFEA3E064A5FF9063
:101828000000EEF0A3EFF04E700A9000007412F082
:10183800A37434F0900000E0FFA3E0900028CFF0FC
:03184800A3EFF01B
:01184B00227A
:101B4E00E4900005F0121FE7AB07AA06900028E00C
:101B5E006AF0A3E06BF0900028E0FEA3E0FF7C00AB
:101B6E007D3D12099BEF2427FFE43E900028F0A351
:101B7E00EFF00000900005E004F0E0C3940840C5CB
:011B8E002234
:101D7F00900028E0FEA3E0FF7C9D7D6512099BEF9C
:101D8F00247AFFEE343B900028F0A3EFF090002868
:0B1D9F00E0FCA3E0FDECFFED6FFF2275
:021CBD00AB0773
:101CBF00EBC39D400122EBFFC3ED9FFFE49400CFE8
:101CCF002401CF3400900026F0A3EFF0121D7F7E89
:0F1CDF0000900026E0FCA3E0FD1209ADED2BFF05
:011CEE0022D3
:0F1EB300440021000000004100200041002500F4
:101621007B017A00791490001EE4F0A37405F01296
:101631001CEF90000FA3A3A3E0FF900014E0FEEFC6
:101641006E60037F002290000FE0FCA3E0FDA3E0A9
:10165100FEA3E0FF7808120B46900015E06F6003CF
:101661007F002290000FE0FCA3E0FDA3E0FEA3E0D9
:10167100FF7810120B46900016E06F60037F002286
:1016810090000FE0FCA3E0FDA3E0FEA3E0FF7818CB
:10169100120B46900017E06F60037F002290001349
:0E16A100E0FF900018E06F60037F00227F01E1
:0116AF002218
:0B0DC30090000DEBF0A3EAF0A3E9F0B4
:100DCE007B017A00791390001EE4F0A37405F012F3
:100DDE001CEF900017E0FF900010E0FBA3E0FAA3D9
:100DEE00E0F9EF120989900014E0FFE4FCFDFE78B3
:100DFE0008120B59A804A905AA06AB07900013E028
:100E0E00FFEB4FFFEAFEE9FDE8FCC004C005C0069B
:100E1E00C007900015E0FFE4FCFDFE7810120B59A0
:100E2E00D003D002D001D000EF4BFFEE4AFEED49C9
:100E3E00FDEC48FCC004C005C006C007A3E0FFE4FB
:100E4E00FCFDFE7818120B59D003D002D001D00051
:100E5E00EF4BFFEE4AFEED49FDEC48FC90000DE035
:100E6E00FBA3E0FAA3E0F9120B8C900010E0FBA3B9
:100E7E00E0FAA3E0F9120943D3940140037F002264
:100E8E0090000DE0FBA3E0FAA3E0F9120B6C74FFE7
:100E9E00FBFAF9F8C3120B357002FF2290000DE039
:100EAE00FBA3E0FAA3E0F9120B6C7BA07A86790122
:0D0EBE007800C3120B3550037F00227F0126
:010ECB002204
:0A184C0090000DEEF0FAA3EFF0FBA0
:10185600A3A3A3A3E0900014F090000FE0FCA3E084
:10186600FDA3E0FEA3E0FF7808120B46900015EFFB
:10187600F090000FE0FCA3E0FDA3E0FEA3E0FF78FC
:1018860010120B46900016EFF090000FE0FCA3E05C
:10189600FDA3E0FEA3E0FF7818120B46900017EFB9
:1018A600F0900013E0900018F0AF03AE02121F4B49
:1018B60090000DE0FEA3E0FF7B017A007914900012
:0A18C6001EE4F0A37405F0021C8478
:1016B0009000107401F0A37400F0A37408F07B0193
:1016C0007A007900E4FFFE120DC390000AEFF0905B
:1016D00000107401F0A37400F0A37409F07B017A88
:1016E0000079047F007E02120DC390000AE06019A9
:1016F000900000E0FCA3E0FDA3E0FEA3E0FF90006B
:1017000021120BA6900008801AEF601D900004E0E3
:10171000FCA3E0FDA3E0FEA3E0FF900021120BA6D6
:10172000900009E0900020F022900021120BB200FE
:0B173000000000E4900020F01212A660
:01173B00228B
:1012A600A2AFE43390000BF0E4A3F0C2AF900021AC
:1012B600E0FCA3E0FDA3E0FEA3E0FF90000F120B0D
:1012C600A6900020E0900013F0E4FFFE12184C9068
:1012D600000CE004F0900021E0FCA3E0FDA3E0FE9A
:1012E600A3E0FF90000F120BA6900020E0900013E1
:1012F600F0E4FFFE121621EF700990000CE0C39493
:101306000340AAE490000CF0900021E0FCA3E0FD6D
:10131600A3E0FEA3E0FF90000F120BA6900020E0D2
:10132600900013F07F007E0212184C90000CE0042F
:10133600F0900021E0FCA3E0FDA3E0FEA3E0FF9017
:10134600000F120BA6900020E0900013F07F007EA5
:1013560002121621EF700990000CE0C3940340A816
:0813660090000BE024FF92AFA0
:01136E00225C
:101F7000900025E004F0E0C3940A4005E4F012125A
:021F8000A62297
:081FD800E4900025F00212A6BE
:101A230090000112095CFFE5DE54F04FF5DE9000F3
:101A33000212095CC43354E0FFE5DE54DF4FF5DEE8
:101A4300120943FFD3941F502B90000312095CFE2D
:101A5300D39401501F90000412095CFDD3940350EA
:101A630013EDC43354E0FDEEC433333354804D4F90
:051A730090FEA8F02226
:0C1FC100EFB4010443BC802253BC7F221B
:10194A00EFD3940F4002806BE4F5BDF5BEE5BC54BD
:10195A00F044404FF5BC0000000000000000000009
:10196A00E4FDE5BC30E54753BCDFE5DEAFBD30E55D
:10197A000DEFFEACBEECFBEBFF9000128022900054
:10198A0012E4F0A3EFF0E5BEC4540FFBE0C4F85430
:10199A000FC868FF900012E0C454F048FEEF4BFFF6
:1019AA00EEF0A3EFF0900012E0FEA3E0FF220DEDAF
:0719BA00B4FAAF7E107F00BC
:0119C1002203
:0E1FB300E4F5C7F5C5F5C675C3FF75C4FF227A
:071E9400ECF5C3AF058FC49C
:101E9B00A2AF92D5C2AF75C65A75C6A50000A2D522
:031EAB0092AF22D1
:101CEF00AD07AC0675C78075F51875C501121E9442
:101CFF00E5C21209890DBD00010C740129F9E43AFE
:101D0F00FA90001E74FFF5F0120A0245F070DE0221
:021D1F001FB3F0
:101F4B00AD07AC0675C78075F51875C503121E94E1
:031F5B00021FB3AF
:101C8400AD07AC0675C78075F51875C502ECF5C3CC
:101C9400AF058FC4120943F5C2121E9B0DBD00018E
:101CA4000C740129F9E43AFA90001E74FFF5F0125D
:091CB4000A0245F070D7021FB3CB
:10000600FF9FFFFEFB00FDFFFFFFFFFFFFFFFFEF70
:10001600BFAFF6FBEFBFFFFFFBEFBFFFFEFFCFBF9C
:10002600FFFEFBFFBFFFFEFBEFBF9FD6FFEFBFFF4D
:10003600FEFB6B87FD36DB5093FD7CF9EFAFFFFED1
:10004600FBEFBF9FFEFBEFBFFFFFFFFFFFFFFFFFC3
:10005600FFFFFFFFFFFFFFFFFFFFFFFFFFFFFFFFAA
:10006600FFFFFFFFFFFFFFFFFFFFFFFFFFFFFFFF9A
:10007600BF36F0E0A72D00D8EFAFFFFFFBEF9F7D67
:10008600144200002C3620480B3D9C73CA210F00F9
:10009600584C030A1CC0411945B652000004108092
:1000A60000010C80C2402509000041830250C000B7
:1000B60000000000000001000000001000C900015F
:1000C600000048C0010A10C8C38B0D1012000004BE
:1000D600366040035D00608001000000400006308D
:1000E600C00309051A40000016366147053C10D0CA
:1000F6000223082051688300F2F9FFFFFFFEFB2F61
:10010600BFFFFEFBEFBFFFFEFBFFBF0FC0FAEFBF57
:10011600FFFEFFEFFFFFFEFB00817FFCFB7F2FFF53
:10012600FEFBFFFF2FD3FBEBA7FFFEDBC50325205E
:100136008810010D14204003399EF881A70580F828
:10014600E0039E7ED8EFBF0F74F20085FF3EF0EF0E
:1001560027BFBCF3E6270E00E8C0210F7CE04BAFBB
:10016600CF36D20881BDBCF0EFA7BF34F9C52B0F3F
:1001760070D8C907DFFEFBEA0B15100200841534A0
:100186002043071C90700C21058048C4039E34D080
:10019600000144100000800C1420C0039D02C00022
:1001A600200F004060030730C00000000000000080
:1001B60000000000011808000000000008C000123E
:1001C60030C0000000000000000000000000000039
:1001D6000000000000000000000000000000000019
:1001E6000000000000000000000000000000000009
:1001F60000000000FEBFFFFEFBE2BFFFFEFBFFBFED
:10020600FFFEFFEFBFAFDCFBEFBFFFFFFBEFBFFF64
:10021600FEFFD0BB7FFEFBEFBFFFFEFFEFFF8FFAB7
:10022600FBEFBFFFFEDB0B0F1D368B08870D34C9B6
:100236007103FDFEFB6FAF8DF2FBEFAFFFF7FBEF38
:10024600BFFFFEDA40B9FFFAF0EFBF7FF8F1C72330
:100256000A40E8E091AF7EFAE72B1D163800000051
:100266000000000000000000000000000000002068
:100276000000FEFFFFFFFFED87FD76400007190037
:1002860000000000C0FA400000000000000000006E
:100296000000000000000020000000200400000014
:1002A60000000000FFBFFF76000000000000000114
:1002B600E4FFFEFFFFFFFFFFFF3FE5FFFFEFBFFF8E
:1002C600FEFB00BCFFFEFBEFBFFEFAFBEFBF0FD04D
:1002D600FBEF03DFFEFBEFBEFFFEFB001DFD3478E8
:1002E600EFB7FEF6FBEFBF0FF0FBEFBFFF7AFA00AA
:1002F60000000000000000000000000000000000F8
:100306000000000000000000EEBFFFFEFF00811F9E
:100316007CE0ED033DB4F77CBD0F00D0E1235DFC2E
:100326009A0100000000000000000000000000002C
:1003360000000000000000000000000000000000B7
:1003460000000000000001000000000000000000A6
:100356000000000000000000000000000100000195
:10036600000400000000002000080000FEFFFFFF60
:10037600FFFFFFFFFFFFFFFFFFFFFFFFFFFFFFFF87
:10038600FFFFFFFFFFFFFFFFFFFFFFFFFFFFFFFF77
:10039600FFFFFFFFFFFFFFFFFFFFFFFFFFFFFFFF67
:1003A600FFFFFFFFFFFFFFFFFFFFFFFFFFFFFFFF57
:1003B600FFFFFFFFFFFFFFFFFFFFFFFFFFFFFFFF47
:1003C600FFFFFFFFFEFFFFFFFFFEFBEFFFFFFEFB52
:1003D600EFBFFFFFFBEFBFFFFFFBFFBFFFFEFBEF24
:1003E600BFFFFEFBEFBFFFFFFBFFBFFFFEFB0F00E4
:1003F60000000000000000000000000000000000F7
:1004060000000000000000000000000000000000E6
:1004160000000000000000000000000000000000D6
:1004260000000000000000000000000000000000C6
:1004360000000000000000000000000000000000B6
:1004460000000000000000000000000000000001A5
:100456000000000000000000000000000000000096
:10046600000000000000FEFFFFFFFFFFFFEFFFFFA1
:10047600FFFFFFFFFFFFFFFFFFFFFFFFFFFFFFFF86
:10048600FFFFFFFFFFFFFFFFFFFFFFFFFFFFFFFF76
:10049600FFFFFFFDFFFFFFFFFFFFFFFFFFFFFFFF68
:1004A600FFFFFFFFFFFFFFEFFFFFFEFFFFBFFFFFA7
:1004B600FFFFFFFFFFFFBFFFFFFFFFFFFFFFFEFB8B
:1004C600FFBFFFFEFBEFFFFFFFFBFFFFFFFFFFFF8F
:1004D600FFFFFFFBFFFFFFFFFBEFBFFFFEFBFFBFC3
:1004E600FFFFFFFFBFFFFFFBEFBFFFFEFBEFBFFFFF
:1004F600FEFBEFBF2FF0FBEFBFFFFEFBEFBFFFFEE4
:10050600FF4099FF7EFBEFBFFFFEFFEFBF0F32FA02
:10051600EF3FFFFCFB00212C308040030D3080C0F4
:100526000BFCFAFB65AB0DD0F9E989B6FFD9CF2BE9
:1005360047F4530080453E60CD030B0820000000C1
:1005460000000000000000000000000000000000A5
:100556000000000000000000000000000000000095
:10056600EFDFFF7CFAE0847FB6F9CF3F3DDCF17E1A
:10057600150D26D1EBCBBFFFCAD119F44AE0A41260
:10058600F4FC4E10031C0300000008852088CD04EF
:10059600001DACC04C2A5220C000A058002A01738E
:1005A60080CC20200812508C1D0083000100088496
:1005B6000708C142882566A804E0618200900220EF
:1005C60005284481C4072804A7008003C49220900C
:0D05D6000104047018C04422124C6502019B
:1018D000EF8EF0120BE31923000019280001192DD7
:1018E0000002193200031937012C193C012D190A85
:1018F0000258190F02591914025B1919025D191EB9
:1019000002B019410398000019467E007F06227E2E
:10191000007F83227E017F00227E017F7D227E0167
:101920007FFA227E027F78227E027FF5227E037F6D
:1019300072227E037FEF227E047F6C227E047FE989
:0A194000227E057F6622E4FEFF22EE
:041D5200AB07AA062B
:101D5600AE04ED7803CEC313CE13D8F9F9ED5407CC
:101D6600FFEB29F582E43AF583E493FEA8070880A1
:081D760002C313D8FC5401FF65
:011D7E002242
:101EC700121D7FEF7F00FEC007C006121D7FEFFDCA
:081ED700D0E0FED0E04DFF2237
:100FCF00121EC77C177D1A1209ADC3ED946BEC94FA
:100FDF000350057E027F582274952DFD74FC3CFC56
:100FEF00C3ED94EBEC940050057E027F59227415EB
:100FFF002DFD74FF3CFCC3ED9473EC940250057E01
:10100F00027F5B22748D2DFD74FD3CFCC3ED94714A
:10101F00EC940050057E027F5D22748F2DFD74FFCE
:10102F003CFCC3ED946DEC940250057E027FB02220
:10103F0074932DFD74FD3CFCC3ED94FAEC940150B8
:10104F0004E4FEFF2274062DFD74FE3CFCC3ED94F8
:10105F007AEC940050057E007F012274862DFD747A
:10106F00FF3CFCC3ED94D1EC940350057E007F024E
:10107F0022742F2DFD74FC3CFCC3ED942AEC9400DC
:10108F0050057E007F032274D62DFD74FF3CFCC3F8
:10109F00ED94D3EC940350057E017F2C22742D2DFB
:1010AF00FD74FC3CFEC3ED94D7EE940150057E0118
:0710BF007F2D227E037F98C4
:0110C6002207
:10143200E4900009F0120FCF900005EEF0A3EFF058
:101442001218D0900007EEF0A3EFF04E70030214D2
:10145200E3121D7FEF7F00FEC007C006121D7FEF63
:10146200FDD0E0FED0E04DFF90000AEEF0A3EFF0D9
:101472007C037DE81209AD90000AECF0A3EDF09038
:101482000009E004F0E0D394324008A3E4F0A3049E
:10149200F08016900007E0FEA3E0FF90000AE0FC57
:1014A200A3E0FD121D52EF60A8900005E0FEA3E04C
:1014B200FF7C037DE8120C10A804A905AA06AB075D
:1014C20090000AE0FEA3E0FFE4FCFDEB2FFFEA3E02
:1014D200FEED39FDEC38FC121E1D7FDC7E05121E6E
:0114E200DF2A
:0114E30022E6
:101F3700121D7FEF75F00984AFF0121C497FDC7E1C
:041F470005021EDF92
:0614E400120ECCEF706156
:1014EA00900003F0A3F0121DF89000097402F07B3B
:1014FA0001E4FD7F18121E419000097404F07B0379
:10150A00E4FD7F38121E417B05E4FD7F58121AC3A1
:10151A00C3900004E094C8900003E0940050607FF8
:10152A000A7E00121EDF900004E004F070069000AC
:10153A0003E004F020B2D930B2FD7F507E00021ED3
:01154A00DFC1
:10154B00121B4E900020E0B40105121F37800312CE
:10155B001432121DAA7FF47E01121EDF900021E0CF
:10156B00FCA3E0FDA3E0FEA3E02401FFE43EFEE4C8
:0F157B003DFDE43CFC900021120BA6121F7022D4
:041EC20041002A00B1
:03000300021F0DCC
:101F0D00C0E0C083C082C2A890002A7401F0D082C4
:051F1D00D083D0E0328A
:071FE000D288D2A8D2AF2283
:1011B900E4900000F0A3F090002AE0FFE4F0EF7063
:1011C90003021279E4900000F0A3F07F50FE121E92
:1011D900DF30B204D2A880DFE4900002F07F0A7EFB
:1011E90000121EDF20B20C900002E004F0E0C3946C
:1011F9006440EA900002E0C39464405A900020E001
:1012090070047F0180027F00900020EFF01212A687
:10121900121DF8900020E0900009B401177416F02F
:101229007B15E4FD7F20121E419000097418F07BA4
:1012390017E480137413F07B12E4FD7F20121E4122
:10124900E4900009F07B14FD7F40121E417FDC7E93
:1012590005121EDF80031214E430B2FD7F507E00B8
:10126900121EDFE490002AF0D2A8121BCF0211C08F
:101279007F0A7E00121EDF900001E004F0700690E4
:101289000000E004F0C3900001E094F4900000E055
:0C129900940150030211C0121FA47F0139
:0112A5002226
:101F22002B3100081109110A110B110C110D110EA0
:051F3200110F11101158
:101BCF00121DF8900020E0900009B401177416F070
:101BDF007B15E4FD7F20121E419000097418F07BE5
:101BEF0017E480137413F07B12E4FD7F20121E4163
:0E1BFF00E4900009F07B14FD7F40121E41228D
:101C0D00900000120BA6121DF89000097419F07BBC
:101C1D0004E4FD7F28121E417B1AE4FD7F48121A51
:101C2D00C3900000E0FCA3E0FDA3E0FEA3E0FF9065
:0C1C3D000012120BA67D027F1C020C8915
:101E1D0090000C120BA6121DF890000CE0FCA3E034
:101E2D00FDA3E0FEA3E0FF900012120BA6E4FD7FE0
:041E3D001C020C89EE
:101DAA00121DF89000097419F07B04E4FD7F1C12DF
:101DBA001E417B1AE4FD7F3C121AC37BFF7A1F790E
:081DCA0022E4FD7F4C021B0D19
:101C4900900005EFF0C394094002E4F0121DF890EA
:101C59000005E0FF25E02425F582E4341FF583E43F
:101C690093FBEF25E02426F582E4341FF583E49302
:0B1C7900900009F0E4FD7F30021E41E6
:1005E3000000FE2222FE40A09E8282829EA0200066
:1005F30080601F42827F8080432C102844838000C8
:100603004042CC0000445454547F5454544440005A
:1006130000007F201000FF15151555957F00000081
:1006230000C808090EE808000000FF1010101000B1
:10063300103017100E0908FF4141414141FF0000EE
:10064300080888C8380C0B0808E8080808080800D8
:10065300020100FF40414141417F4141414140008E
:100663004040424458C0407F40C05048464040004C
:100673008080402018070000003F40404040780041
:100683000000FE92929292FE92929292FE000000DD
:10069300404044444444447F444444444440400030
:1006A30000020202028242F20E42820202020000B1
:1006B30010080402010000FF00000001020C00000A
:1006C3000000007E424242C24242427E00000000DD
:1006D3008040300E1020407F444444444440400056
:1006E30000080889CA28980000FF20408000000005
:1006F30000020100FF01060000FF000000030000EC
:10070300100C4424140405060404142444140C009B
:10071300004040414141417F41414141404000004F
:1007230000020212620202FE0202423202020000D0
:1007330001010101010101FF0101010101010100A9
:1007430000020CC000F80848484808FF08098A005E
:1007530002027F80403F001E925E20173846F10060
:1007630000004244584040FF4040504846000000CB
:1007730004040404040404FF04040404040404003F
:100783000484C4B48C10545454FF54547C1010008B
:100793008044281827284949497F49494948400046
:1007A300101010FF1010F00000F8080808F80000FF
:1007B3008040300F40807F00007F2020207F00009A
:1007C300101010FF1010404848487F48C8484000A8
:1007D3000444827F010002020A1242827F02020065
:1007E3001060028C0024242FE42424E42F2424000A
:1007F30004047E0100FF11090719090749917F00CD
:1008030040402020908884838488902020404000AA
:10081300000000003F40404044484740407800000B
:1008230000FE225A8608104424F42C2724E40400F2
:1008330000FF040887413F4080BF8595A59F800046
:100843001010D0FF901000FE020202FE0000000014
:10085300040300FF0083601F0000003F4040780056
:10086300404042CC00504EC8487FC8484840000032
:100873000040201F20504C4340404F50505C4000EC
:10088300101012D2565A5253525A56D21210100006
:100893004030007785858DB5858585E7001060003C
:1008A30000C0301F1010F00000FF20408000000047
:1008B300814021120C03000000FF00000003000030
:1008C3001010FF1090E02F29E909E9292FE000001B
:1008D30042827F414425150D05FE0D152545440033
:1008E300202020FC2426A52C342424FC20202000B6
:1008F30040427D44447C4445447D46457C40400021
:10090300080808F80808081010FF101010F000007D
:100913001030101F088848300E014080403F00000F
:100923001088C43304F49494F49FF49494F404006E
:100933000100FF004232027282869A82E20A32008A
:101B8F00121FD8E4F5BC121FA4E4F592F591F5B23B
:101B9F00F5B1F5CAF5C9D288D2A8D2AF43870200F2
:101BAF0000F592F591F5B275B10875CA3075C93067
:101BBF007FC8FE121EDF30B2FD7F327E00021EDFB5
:0300000002173CA8
:0C173C00787FE4F6D8FD75810702178362
:10094300BB010689828A83E0225002E722BBFE02B2
:09095300E32289828A83E49322E5
:10095C00BB010CE58229F582E5833AF583E0225050
:10096C0006E92582F8E622BBFE06E92582F8E2229A
:0D097C00E58229F582E5833AF583E49322B4
:10098900BB010689828A83F0225002F722BBFE014D
:02099900F32247
:10099B00EF8DF0A4A8F0CF8CF0A428CE8DF0A42E70
:0209AB00FE222A
:1009AD00BC000BBE0029EF8DF084FFADF022E4CC2E
:1009BD00F875F008EF2FFFEE33FEEC33FCEE9DECF7
:1009CD00984005FCEE9DFE0FD5F0E9E4CEFD22ED3D
:1009DD00F8F5F0EE8420D21CFEADF075F008EF2F87
:1009ED00FFED33FD4007985006D5F0F222C398FD78
:0509FD000FD5F0EA2215
:100A0200C5F0F8A3E028F0C5F0F8E582158270027F
:060A12001583E038F0221C
:100A1800E88FF0A4CC8BF0A42CFCE98EF0A42CFC7D
:100A28008AF0EDA42CFCEA8EF0A4CDA8F08BF0A4FB
:100A38002DCC3825F0FDE98FF0A42CCD35F0FCEB5A
:100A48008EF0A4FEA9F0EB8FF0A4CFC5F02ECD391F
:0F0A5800FEE43CFCEAA42DCE35F0FDE43CFC228C
:100A670075F008758200EF2FFFEE33FECD33CDCC46
:100A770033CCC58233C5829BED9AEC99E5829840C9
:100A87000CF582EE9BFEED9AFDEC99FC0FD5F0D6A6
:100A9700E4CEFBE4CDFAE4CCF9A88222B800C1B9D0
:100AA7000059BA002DEC8BF084CFCECDFCE5F0CB0E
:100AB700F97818EF2FFFEE33FEED33FDEC33FCEB47
:100AC70033FB10D703994004EB99FB0FD8E5E4F902
:100AD700FA227818EF2FFFEE33FEED33FDEC33FCEF
:100AE700C933C910D7059BE99A4007EC9BFCE99AE3
:100AF700F90FD8E0E4C9FAE4CCFB2275F010EF2F28
:100B0700FFEE33FEED33FDCC33CCC833C810D70727
:100B17009BEC9AE899400AED9BFDEC9AFCE899F862
:0E0B27000FD5F0DAE4CDFBE4CCFAE4C8F922F5
:100B3500EB9FF5F0EA9E42F0E99D42F0E89C45F016
:010B4500228D
:100B4600E8600FECC313FCED13FDEE13FEEF13FF8D
:030B5600D8F122B1
:100B5900E8600FEFC333FFEE33FEED33FDEC33FCFA
:030B6900D8F1229E
:100B6C00BB010789828A83020C495005E9F8020C03
:100B7C003DBBFE05E9F8020C5589828A83020C61A3
:100B8C00BB010789828A83020BA65005E9F8020C87
:0A0B9C0071BBFE05E9F8020C7D2292
:0C0BA600ECF0A3EDF0A3EEF0A3EFF022C2
:100BB200A8828583F0D083D082120BC9120BC9128E
:100BC2000BC9120BC9E473E493A3C583C5F0C583B3
:100BD200C8C582C8F0A3C583C5F0C583C8C582C88D
:010BE20022F0
:100BE300D083D082F8E4937012740193700DA3A3A1
:100BF30093F8740193F5828883E473740293B5F0D8
:0D0C0300067403936860E9A3A3A3A380D83F
:100C1000EC8EF0A4CCC5F0CCCDF8EFA4CEC5F02D71
:100C2000FDE43CFCE8A42EC8C5F03DFDE43CFCEF2F
:0D0C3000A4FFE5F028FEE43DFDE43CFC22BD
:101748000219C2E493A3F8E493A34003F68001F2DC
:1017580008DFF48029E493A3F85407240CC8C333A2
:10176800C4540F4420C8834004F456800146F6DF71
:10177800E4800B0102040810204080901EAEE47E35
:10178800019360BCA3FF543F30E509541FFEE49366
:10179800A360010ECF54C025E060A840B8E493A32D
:1017A800FAE493A3F8E493A3C8C582C8CAC583CA58
:1017B800F0A3C8C582C8CAC583CADFE9DEE780BE10
:011EC600001B
:0C0C3D00E6FC08E6FD08E6FE08E6FF22E3
:0C0C4900E0FCA3E0FDA3E0FEA3E0FF221E
:0C0C5500E2FC08E2FD08E2FE08E2FF22DB
:100C6100E493FC740193FD740293FE740393FF22D9
:0C0C7100ECF608EDF608EEF608EFF622AF
:0C0C7D00ECF208EDF208EEF208EFF222B3
:00000001FF
