:10196E00121F1E12167A1215621216FE121FC19047
:10197E000021E0FCA3E0FDA3E0FEA3E0FF121BFCB0
:10198E007FF47E01121EC9121BBE121AB3121F441F
:10199E00EF6005121F7880F2900021E0FCA3E0FDBD
:1019AE00A3E0FEA3E0FF121BFC7FF47E01121EC912
:0B19BE00121BBE1210B5EF60FA80CFC4
:101F1E00E4F592F591F5B275B10875CA3075C93010
:031F2E00021DBBD6
:101EC9007D007C08ED1D70011C144C70F7EF1F702C
:061ED900011E144E70EA28
:011EDF0022E0
:101DBB00900000740CF0A3F0A37401F0E4A3F0A363
:101DCB0004F0FB7A0079001219C97F01121FA27F60
:061DDB000A7E00021EC991
:051FC8007F03021880F8
:051FCD007F0F021880E7
:100DC700900003120BB600000000900007120BB64C
:100DD70000000000E490000BF0900003E0F8A3E0AF
:100DE700F9A3E0FAA3E0FBC000C001C002C00312F0
:100DF7001FC8E4FCFDD003D002D001D000EB2FFFC9
:100E0700EA3EFEED39FDEC38FC900003120BAA9088
:100E17000007E0F8A3E0F9A3E0FAA3E0FBC000C0F5
:100E270001C002C003121FCDE4FCFDD003D002D0E5
:100E370001D000EB2FFFEA3EFEED39FDEC38FC90C8
:100E47000007120BAA90000BE004F0E0C3940440E3
:100E570088E4FFFEFDFC900007E0F8A3E0F9A3E0BB
:100E6700FAA3E0FBC3120B39700A900007120BB606
:100E770000000001E47FFF7E0FFDFC900003E0F817
:100E8700A3E0F9A3E0FAA3E0FB120A1C900007E035
:100E9700F8A3E0F9A3E0FAA3E0FB120AA790000C7D
:100EA700120BAAE47F187E0CFDFC90000CE0F8A35F
:100EB700E0F9A3E0FAA3E0FBD3120B3940037F016B
:030EC700227F0087
:010ECA002205
:101F4400121FCDD3EF94C5EE940540037F01227F89
:011F5400008C
:011F55002269
:10135500000000000008083E080800363600003E80
:101365005149453E00427F40004261514946214175
:10137500454B311814127F1027454545393C4A49DC
:101385004930017109050336494949360649492954
:101395001E7E1111117E7F494949363E4141412248
:1013A5007F4141221C7F494949417F090909013E85
:1013B5004149497A7F0808087F00417F4100204064
:1013C500413F017F081422417F404040407F020C8D
:1013D500027F7F0408107F3E4141413E7F09090994
:1013E500063E4151215E7F09192946464949493141
:1013F50001017F01013F4040403F1F2040201F3F2A
:101405004038403F631408146307087008076151AA
:0314150049454303
:101A1E00EFB420037F0022EFB42B037F0122EFB43B
:101A2E003A037F0222EFC39430400BEFD394395028
:101A3E0005EF24D3FF22EFC39441400BEFD3945A0A
:101A4E005005EF24CCFF22EFC39461400BEFD394EB
:0B1A5E007A5005EF24ACFF227F00222D
:0D1F9500D2CCD2CD0000C2CC0000C2CD22C3
:0B1FAE00C2CC0000D2CD0000D2CC223B
:071D3D00AD07121F957F782E
:101D4400E4FEEF30E703D38001C392CCEF25E0FF3C
:101D5400D2CD0000C2CD0EEEB408E7D2CCD2CD0075
:031D640000C2CDED
:011D67002259
:101F6800121D3DE4FF121D44AF05121D44021FAEB1
:0F1E2600F583E5822CF582E43583F583E493FFA1
:101E3500121D3D7F40121D44AF05121D44021FAE09
:10167A007F647E00121EC97FAE121F687FD5121FBB
:10168A00687F80121F687FA8121F687F1F121F6859
:10169A007FD3121F68E4FF121F687F40121F687F02
:1016AA008D121F687F14121F687F20121F687F0225
:1016BA00121F687FA1121F687FC8121F687FDA1283
:1016CA001F687F02121F687F81121F687FCF121F57
:1016DA00687FD9121F687FF1121F687FDB121F68AB
:1016EA007F40121F687FA4121F687FA6121F687F9F
:0416FA00AF021F68B4
:0F1F78007FAE121F687F8D121F687F10021F68D7
:101DE100E4FCEC24B0FF121F68E4FF121F687F10AF
:101DF100121F68E4FBE4FF121E350BEBB480F60CF6
:041E0100ECB404DE5B
:011E050022BA
:101E6200AC07ED24B0FF121F68EC540FFF121F687D
:0C1E7200AF04EFC4540F2410FF021F68DF
:080FC300900014EFF0A3EDF023
:100FCB00AF03121A1EEF75F005A42455F9741335EF
:100FDB00F0FAA374FFF0A3EAF0A3E9F0900014E099
:090FEB00FFA3E0FD121E62E4FC0C
:100FF400900016E0FBA3E0FAA3E0F98C827583006D
:10100400120960FF900019F0E4A3F0EF30E004E06F
:101014004403F0900019E0FF30E105A3E0440CF034
:10102400EF30E20790001AE04430F0900019E0300D
:10103400E305A3E044C0F090001AE0FF121E35E07F
:04104400FF121E3544
:101048000CECB405A7900014E0FFA3E004FD121E09
:0310580062E4FC53
:10105B00900016E0FBA3E0FAA3E0F98C8275830005
:10106B00120960FF900019F0E4A3F0EF30E404E004
:10107B004403F0900019E0FF30E505A3E0440CF0C9
:10108B00EF30E60790001AE04430F0900019E030A2
:10109B00E705A3E044C0F090001AE0FF121E35E014
:0410AB00FF121E35DD
:0510AF000CECB405A7E4
:0110B4002219
:100C8D0090000EEFF0A3EDF0C007C0057BA07A86B3
:100C9D0079017800A3E0FCA3E0FDA3E0FEA3E0FF53
:100CAD00120AA7EF2430FBD005D007120FC3900016
:100CBD000EE0240CFFC007E47B107A27F9F89000B2
:100CCD0010E0FCA3E0FDA3E0FEA3E0FF120AA7E401
:100CDD007B0AFAF9F8120AA7EB2430FB90000FE01B
:100CED00FDD007120FC390000EE02418FFC007E4DB
:100CFD007BE87A03F9F8900010E0FCA3E0FDA3E097
:100D0D00FEA3E0FF120AA7E47B0AFAF9F8120AA77C
:100D1D00EB2430FB90000FE0FDD007120FC39000C5
:100D2D000EE02424FFC007E47B64FAF9F89000106C
:100D3D00E0FCA3E0FDA3E0FEA3E0FF120AA7E47B25
:100D4D000AFAF9F8120AA7EB2430FB90000FE0FD28
:100D5D00D007120FC390000EE02430FFC007E47BD4
:100D6D000AFAF9F8900010E0FCA3E0FDA3E0FEA361
:100D7D00E0FF120AA7E47B0AFAF9F8120AA7EB249E
:100D8D0030FB90000FE0FDD007120FC390000EE076
:100D9D00243CFFC007E47B0AFAF9F8900010E0FC50
:100DAD00A3E0FDA3E0FEA3E0FF120AA7EB2430FBB6
:0A0DBD0090000FE0FDD007020FC305
:101AFC0090000DEFF0A3EDF0A3EBF0A3EAF0A3E957
:101B0C00F090000FE0FBA3E0FAA3E0F9120947FB09
:101B1C00601E90000DE0FFA3E0FD120FC390000DBE
:101B2C00E0240CF0900010E475F001120A0680D14C
:011B3C002286
:041A6900A907AA051A
:101A6D00EBC3941B503F121E62E4FC75F020EBA4F7
:101A7D0024E7F582E5F03405121E260CECB410EBCC
:101A8D00EAC39403501FAF01EA04FD121E62E4FC89
:101A9D0075F020EBA424F7F582E5F03405121E262F
:051AAD000CECB410EB8D
:011AB2002211
:101E450090000EEFF0A3EDF0121A6990000EE02459
:0D1E550010FFA3E0FD900011E0FB021A69F0
:051E980042002855AADC
:1016FE00E4900000F0A3F0A3F0121FC8900000E0E9
:10170E006EF0A3E06FF0900000E0FCA3E0FDAE04ED
:10171E007803C333CE33CED8F9FBAA06ECC41354E8
:10172E0007FFEAFEEF4BFF900000EEF0A3EFF0E4B0
:10173E00FF000FEFB414FA900002E004F0E0C3943F
:10174E002040B6900000E0645AFEA3E064A5FF902E
:10175E000000EEF0A3EFF04E700A9000007412F04D
:10176E00A37434F0900000E0FFA3E0900028CFF0C7
:03177E00A3EFF0E6
:011781002245
:101B3D00E4900003F0121FC8AB07AA06900028E03E
:101B4D006AF0A3E06BF0900028E0FEA3E0FF7C00BC
:101B5D007D3D12099FEF2427FFE43E900028F0A35E
:101B6D00EFF00000900003E004F0E0C3940840C5DE
:011B7D002245
:101D6800900028E0FEA3E0FF7C9D7D6512099FEFAF
:101D7800247AFFEE343B900028F0A3EFF09000287F
:0B1D8800E0FCA3E0FDECFFED6FFF228C
:021CAC00AB0784
:101CAE00EBC39D400122EBFFC3ED9FFFE49400CFF9
:101CBE002401CF3400900026F0A3EFF0121D687EB1
:0F1CCE0000900026E0FCA3E0FD1209B1ED2BFF12
:011CDD0022E4
:0F1E9D004400210000000041002000410025000A
:1014D3007B017A00791490001EE4F0A37405F012E6
:1014E3001CDE90000FA3A3A3E0FF900014E0FEEF27
:1014F3006E60037F002290000FE0FCA3E0FDA3E0F9
:10150300FEA3E0FF7808120B4A900015E06F60031A
:101513007F002290000FE0FCA3E0FDA3E0FEA3E028
:10152300FF7810120B4A900016E06F60037F0022D1
:1015330090000FE0FCA3E0FDA3E0FEA3E0FF78181A
:10154300120B4A900017E06F60037F002290001394
:0E155300E0FF900018E06F60037F00227F0130
:011561002267
:0B11A20090000DEBF0A3EAF0A3E9F0D1
:1011AD007B017A00791390001EE4F0A37405F01210
:1011BD001CDE900017E0FF900010E0FBA3E0FAA307
:1011CD00E0F9EF12098D900014E0FFE4FCFDFE78CC
:1011DD0008120B5DA804A905AA06AB07900013E041
:1011ED00FFEB4FFFEAFEE9FDE8FCC004C005C006B9
:1011FD00C007900015E0FFE4FCFDFE7810120B5DBA
:10120D00D003D002D001D000EF4BFFEE4AFEED49E6
:10121D00FDEC48FCC004C005C006C007A3E0FFE418
:10122D00FCFDFE7818120B5DD003D002D001D0006A
:10123D00EF4BFFEE4AFEED49FDEC48FC90000DE052
:10124D00FBA3E0FAA3E0F9120B90900010E0FBA3D2
:10125D00E0FAA3E0F9120947D3940140037F00227D
:10126D0090000DE0FBA3E0FAA3E0F9120B7074FF00
:0E127D00FBFAF9F8C3120B397002FF227F0151
:01128B002240
:0A17820090000DEEF0FAA3EFF0FB6B
:10178C00A3A3A3A3E0900014F090000FE0FCA3E04F
:10179C00FDA3E0FEA3E0FF7808120B4A900015EFC2
:1017AC00F090000FE0FCA3E0FDA3E0FEA3E0FF78C7
:1017BC0010120B4A900016EFF090000FE0FCA3E023
:1017CC00FDA3E0FEA3E0FF7818120B4A900017EF80
:1017DC00F0900013E0900018F0AF03AE02121F312E
:1017EC0090000DE0FEA3E0FF7B017A0079149000DD
:0A17FC001EE4F0A37405F0021C7354
:101562009000107401F0A37400F0A37408F07B01E2
:101572007A007900E4FFFE1211A290000AEFF090C7
:1015820000107401F0A37400F0A37409F07B017AD7
:101592000079047F107E001211A290000AE0601907
:1015A200900000E0FCA3E0FDA3E0FEA3E0FF9000BA
:1015B20021120BAA900008801AEF601D900004E02F
:1015C200FCA3E0FDA3E0FEA3E0FF900021120BAA22
:1015D200900009E0900020F022900021120BB6004A
:0B15E200000000E4900020F012128CCA
:0115ED0022DB
:10128C00A2AFE43390000BF0E4A3F0C2AF900021C6
:10129C00E0FCA3E0FDA3E0FEA3E0FF90000F120B27
:1012AC00AA900020E0900013F0E4FFFE1217829049
:1012BC00000CE004F0900021E0FCA3E0FDA3E0FEB4
:1012CC00A3E0FF90000F120BAA900020E0900013F7
:1012DC00F0E4FFFE1214D3EF700990000CE0C394FD
:1012EC000340AAE490000CF0900021E0FCA3E0FD88
:1012FC00A3E0FEA3E0FF90000F120BAA900020E0E9
:10130C00900013F07F107E0012178290000CE00406
:10131C00F0900021E0FCA3E0FDA3E0FEA3E0FF9031
:10132C00000F120BAA900020E0900013F07F107EAB
:10133C00001214D3EF700990000CE0C3940340A882
:08134C0090000BE024FF92AFBA
:011354002276
:101F5600900025E004F0E0C3940A4005E4F0121274
:021F66008C22CB
:081FB900E4900025F002128CF7
:1019C900900001120960FFE5DE54F04FF5DE90004A
:1019D90002120960C43354E0FFE5DE54DF4FF5DE3F
:1019E900120947FFD3941F502B900003120960FE80
:1019F900D39401501F900004120960FDD394035041
:101A090013EDC43354E0FDEEC433333354804D4FEA
:051A190090FEA8F02280
:0C1FA200EFB4010443BC802253BC7F223A
:10188000EFD3940F4002806BE4F5BDF5BEE5BC5488
:10189000F044404FF5BC00000000000000000000D4
:1018A000E4FDE5BC30E54753BCDFE5DEAFBD30E528
:1018B0000DEFFEACBEECFBEBFF9000108022900021
:1018C00010E4F0A3EFF0E5BEC4540FFBE0C4F854FD
:1018D0000FC868FF900010E0C454F048FEEF4BFFC3
:1018E000EEF0A3EFF0900010E0FEA3E0FF220DED7C
:0718F000B4FAAF7E107F0087
:0118F70022CE
:0E1F8700E4F5C7F5C5F5C675C3FF75C4FF22A6
:071E7E00ECF5C3AF058FC4B2
:101E8500A2AF92D5C2AF75C65A75C6A50000A2D538
:031E950092AF22E7
:101CDE00AD07AC0675C78075F51875C501121E7E69
:101CEE00E5C212098D0DBD00010C740129F9E43A0B
:101CFE00FA90001E74FFF5F0120A0645F070DE022F
:021D0E001F872D
:101F3100AD07AC0675C78075F51875C503121E7E11
:031F4100021F87F5
:101C7300AD07AC0675C78075F51875C502ECF5C3DD
:101C8300AF058FC4120947F5C2121E850DBD0001B1
:101C93000C740129F9E43AFA90001E74FFF5F0126E
:091CA3000A0645F070D7021F8704
:1000060045525200FF9FFFFEFB00FDFFFFFFFFFF73
:10001600FFFFFFEFBFAFF6FBEFBFFFFFFBEFBFFF3B
:10002600FEFFCFBFFFFEFBFFBFFFFEFBEFBF9FD66E
:10003600FFEFBFFFFEFB6B87FD36DB5093FD7CF9C0
:10004600EFAFFFFEFBEFBF9FFEFBEFBFFFFFFFFF24
:10005600FFFFFFFFFFFFFFFFFFFFFFFFFFFFFFFFAA
:10006600FFFFFFFFFFFFFFFFFFFFFFFFFFFFFFFF9A
:10007600FFFFFFFFBF36F0E0A72D00D8EFAFFFFF71
:10008600FBEF9F7D144200002C3620480B3D9C73ED
:10009600CA210F00584C030A1CC0411945B652002C
:1000A6000004108000010C80C24025090000418335
:1000B6000250C00000000000000001000000001017
:1000C60000C90001000048C0010A10C8C38B0D100A
:1000D60012000004366040035D00608001000000ED
:1000E60040000630C00309051A4000001636614775
:1000F600053C10D00223082051688300F2F9FFFF67
:10010600FFFEFB2FBFFFFEFBEFBFFFFEFBFFBF0F98
:10011600C0FAEFBFFFFEFFEFFFFFFEFB00817FFC93
:10012600FB7F2FFFFEFBFFFF2FD3FBEBA7FFFEDBC3
:10013600C50325208810010D14204003399EF8813F
:10014600A70580F8E0039E7ED8EFBF0F74F2008506
:10015600FF3EF0EF27BFBCF3E6270E00E8C0210FF5
:100166007CE04BAFCF36D20881BDBCF0EFA7BF34E1
:10017600F9C52B0F70D8C907DFFEFBEA0B15100275
:10018600008415342043071C90700C21058048C458
:10019600039E34D0000144100000800C1420C003DC
:1001A6009D02C000200F004060030730C000000021
:1001B6000000000000000000011808000000000018
:1001C60008C0001230C0000000000000000000005F
:1001D6000000000000000000000000000000000019
:1001E6000000000000000000000000000000000009
:1001F6000000000000000000FEBFFFFEFBE2BFFFA4
:10020600FEFBFFBFFFFEFFEFBFAFDCFBEFBFFFFF55
:10021600FBEFBFFFFEFFD0BB7FFEFBEFBFFFFEFF86
:10022600EFFF8FFAFBEFBFFFFEDB0B0F1D368B08D0
:10023600870D34C97103FDFEFB6FAF8DF2FBEFAF87
:10024600FFF7FBEFBFFFFEDA40B9FFFAF0EFBF7F23
:10025600F8F1C7230A40E8E091AF7EFAE72B1D16B6
:100266003800000000000000000000000000000050
:10027600000000200000FEFFFFFFFFED87FD764037
:100286000007190000000000C0FA4000000000004E
:100296000000000000000000000000200000002018
:1002A6000400000000000000FFBFFF760000000011
:1002B60000000001E4FFFEFFFFFFFFFFFF3FE5FF39
:1002C600FFEFBFFFFEFB00BCFFFEFBEFBFFEFAFB2E
:1002D600EFBF0FD0FBEF03DFFEFBEFBEFFFEFB0021
:1002E6001DFD3478EFB7FEF6FBEFBF0FF0FBEFBF57
:1002F600FF7AFA0000000000000000000000000085
:10030600000000000000000000000000EEBFFFFE3D
:10031600FF00811F7CE0ED033DB4F77CBD0F00D0EC
:10032600E1235DFC9A0100000000000000000000CF
:1003360000000000000000000000000000000000B7
:1003460000000000000000000000010000000000A6
:100356000000000000000000000000000000000097
:100366000100000100040000000000200008000059
:10037600FEFFFFFFFFFFFFFFFFFFFFFFFFFFFFFF88
:10038600FFFFFFFFFFFFFFFFFFFFFFFFFFFFFFFF77
:10039600FFFFFFFFFFFFFFFFFFFFFFFFFFFFFFFF67
:1003A600FFFFFFFFFFFFFFFFFFFFFFFFFFFFFFFF57
:1003B600FFFFFFFFFFFFFFFFFFFFFFFFFFFFFFFF47
:1003C600FFFFFFFFFFFFFFFFFEFFFFFFFFFEFBEF4D
:1003D600FFFFFEFBEFBFFFFFFBEFBFFFFFFBFFBF14
:1003E600FFFEFBEFBFFFFEFBEFBFFFFFFBFFBFFF05
:1003F600FEFB0F00000000000000000000000000EF
:1004060000000000000000000000000000000000E6
:1004160000000000000000000000000000000000D6
:1004260000000000000000000000000000000000C6
:1004360000000000000000000000000000000000B6
:1004460000000000000000000000000000000000A6
:100456000000000100000000000000000000000095
:1004660000000000000000000000FEFFFFFFFFFF8D
:10047600FFEFFFFFFFFFFFFFFFFFFFFFFFFFFFFF96
:10048600FFFFFFFFFFFFFFFFFFFFFFFFFFFFFFFF76
:10049600FFFFFFFFFFFFFFFDFFFFFFFFFFFFFFFF68
:1004A600FFFFFFFFFFFFFFFFFFFFFFEFFFFFFEFF67
:1004B600FFBFFFFFFFFFFFFFFFFFBFFFFFFFFFFFC6
:1004C600FFFFFEFBFFBFFFFEFBEFFFFFFFFBFFFF94
:1004D600FFFFFFFFFFFFFFFBFFFFFFFFFBEFBFFF7E
:1004E600FEFBFFBFFFFFFFFFBFFFFFFBEFBFFFFEF0
:1004F600FBEFBFFFFEFBEFBF2FF0FBEFBFFFFEFBE7
:10050600EFBFFFFEFF4099FF7EFBEFBFFFFEFFEF51
:10051600BF0F32FAEF3FFFFCFB00212C3080400377
:100526000D3080C00BFCFAFB65AB0DD0F9E989B63E
:10053600FFD9CF2B47F4530080453E60CD030B080F
:100546002000000000000000000000000000000085
:100556000000000000000000000000000000000095
:1005660000000000EFDFFF7CFAE0847FB6F9CF3FA2
:100576003DDCF17E150D26D1EBCBBFFFCAD119F4B8
:100586004AE0A412F4FC4E10031C03000000088588
:100596002088CD04001DACC04C2A5220C000A058B3
:1005A600002A017380CC20200812508C1D00830085
:1005B600010008840708C142882566A804E0618214
:1005C6000090022005284481C4072804A700800360
:1005D600C49220900104047018C04422124C650293
:0105E6000113
:10180600EF8EF0120BE718590000185E00011863FE
:10181600000218680003186D012C1872012D18407B
:10182600025818450259184A025B184F025D1854AF
:1018360002B0187703980000187C7E007F0A227E8B
:10184600007F87227E017F04227E017F81227E0126
:101856007FFE227E027F7C227E027FF9227E037F2C
:1018660076227E037FF3227E047F70227E047FED44
:0A187600227E057F6A22E4FEFF22B5
:041D1000AB07AA066D
:101D1400AE04ED7803CEC313CE13D8F9F9ED54070E
:101D2400FFEB29F582E43AF583E493FEA8070880E3
:081D340002C313D8FC5401FFA7
:011D3C002284
:101EB100121D68EF7F00FEC007C006121D68EFFD0E
:081EC100D0E0FED0E04DFF224D
:100ECB00121EB17C177D1A1209B1C3ED946BEC9411
:100EDB000350057E027F582274952DFD74FC3CFC5B
:100EEB00C3ED94EBEC940050057E027F59227415F0
:100EFB002DFD74FF3CFCC3ED9473EC940250057E06
:100F0B00027F5B22748D2DFD74FD3CFCC3ED94714F
:100F1B00EC940050057E027F5D22748F2DFD74FFD3
:100F2B003CFCC3ED946DEC940250057E027FB02225
:100F3B0074932DFD74FD3CFCC3ED94FAEC940150BD
:100F4B0004E4FEFF2274062DFD74FE3CFCC3ED94FD
:100F5B007AEC940050057E007F012274862DFD747F
:100F6B00FF3CFCC3ED94D1EC940350057E007F0253
:100F7B0022742F2DFD74FC3CFCC3ED942AEC9400E1
:100F8B0050057E007F032274D62DFD74FF3CFCC3FD
:100F9B00ED94D3EC940350057E017F2C22742D2D00
:100FAB00FD74FC3CFEC3ED94D7EE940150057E011D
:070FBB007F2D227E037F98C9
:010FC200220C
:10141800E4900007F0120ECB900003EEF0A3EFF07B
:10142800121806900005EEF0A3EFF04E700C7BFF4B
:101438007A007906121E060214CB121D68EF7F008F
:10144800FEC007C006121D68EFFDD0E0FED0E04DDB
:10145800FF900008EEF0A3EFF07C037DE81209B1DD
:10146800900008ECF0A3EDF0900007E004F0E0D362
:1014780094324008A3E4F0A304F08016900005E03D
:10148800FEA3E0FF900008E0FCA3E0FD121D10EFB2
:1014980060A8900003E0FEA3E0FF7C037DE8120C47
:1014A80014A804A905AA06AB07900008E0FEA3E06B
:1014B800FFE4FCFDEB2FFFEA3EFEED39FDEC38FCC6
:0A14C800121B7E7FDC7E05121EC998
:0114D20022F7
:101F0A00121D68EF75F00984AFF0121C387FDC7E71
:041F1A0005021EC9D5
:1018F800120DC7EF7031121DE19000117402F07BD8
:1019080001E4FD7F18121E459000117404F07B035A
:10191800E4FD7F38121E457B05E4FD7F58121A69E5
:101928007FD07E07021EC9121B3D900020E0B40143
:1019380005121F0A8003121418121D937FF47E01EA
:10194800121EC9900021E0FCA3E0FDA3E0FEA3E085
:101958002401FFE43EFEE43DFDE43CFC900021123E
:061968000BAA121F56221B
:041EAC0041002A00C7
:03000300021EE0FA
:101EE000C0E0C083C082C2A890002A7401F0D082F2
:051EF000D083D0E032B8
:071FC100D288D2A8D2AF22A2
:1010B500E4900000F0A3F090002AE0FFE4F0EF7068
:1010C50003021175E4900000F0A3F07F50FE121E9C
:1010D500C930B204D2A880DFE4900002F07F0A7E16
:1010E50000121EC920B20C900002E004F0E0C39487
:1010F5006440EA900002E0C39464405A900020E006
:1011050070047F0180027F00900020EFF012128CA6
:10111500121DE1900020E0900011B401177416F043
:101125007B15E4FD7F20121E459000117418F07B9D
:1011350017E480137413F07B12E4FD7F20121E4523
:10114500E4900011F07B14FD7F40121E457FDC7E8C
:1011550005121EC980031218F830B2FD7F507E00BB
:10116500121EC9E490002AF0D2A8121BBE0210BCC0
:101175007F0A7E00121EC9900001E004F0700690FF
:101185000000E004F0C3900001E094F4900000E05A
:0C119500940150030210BC121F787F016F
:0111A100222B
:101EF5002B3100081109110A110B110C110D110ECE
:051F0500110F11101185
:101BBE00121DE1900020E0900011B401177416F090
:101BCE007B15E4FD7F20121E459000117418F07BEA
:101BDE0017E480137413F07B12E4FD7F20121E4570
:0E1BEE00E4900011F07B14FD7F40121E452292
:101BFC00900000120BAA121DE19000117419F07BD9
:101C0C0004E4FD7F28121E457B1AE4FD7F48121A5E
:101C1C0069900000E0FCA3E0FDA3E0FEA3E0FF90D0
:0C1C2C000010120BAA7D027F1C020C8D20
:101B7E0090000A120BAA121DE19000117413F07B53
:101B8E0012E4FD7F20121E45E4900011F07B14FD3F
:101B9E007F40121E4590000AE0FCA3E0FDA3E0FE8C
:101BAE00A3E0FF900010120BAA7D027F1C020C8D89
:101D9300121DE19000117419F07B04E4FD7F1C1205
:101DA3001E457B1AE4FD7F3C121A697BFF7A1E797C
:081DB300F5E4FD7F4C021AFC6F
:101E060090000AEBF0A3EAF0A3E9F0121DE19000BE
:101E16000AE0FBA3E0FAA3E0F97D017F22021AFCA7
:101C3800900003EFF0C394094002E4F0121DE19014
:101C48000003E0FF25E024F8F582E4341EF583E480
:101C580093FBEF25E024F9F582E4341EF583E49341
:0B1C6800900011F0E4FD7F30021E45EB
:1005E7000000FE2222FE40A09E8282829EA0200062
:1005F70080601F42827F8080432C102844838000C4
:100607004042CC0000445454547F54545444400056
:1006170000007F201000FF15151555957F0000007D
:1006270000C808090EE808000000FF1010101000AD
:10063700103017100E0908FF4141414141FF0000EA
:10064700080888C8380C0B0808E8080808080800D4
:10065700020100FF40414141417F4141414140008A
:100667004040424458C0407F40C050484640400048
:100677008080402018070000003F4040404078003D
:100687000000FE92929292FE92929292FE000000D9
:10069700404044444444447F44444444444040002C
:1006A70000020202028242F20E42820202020000AD
:1006B70010080402010000FF00000001020C000006
:1006C7000000007E424242C24242427E00000000D9
:1006D7008040300E1020407F444444444440400052
:1006E70000080889CA28980000FF20408000000001
:1006F70000020100FF01060000FF000000030000E8
:10070700100C4424140405060404142444140C0097
:10071700004040414141417F41414141404000004B
:1007270000020212620202FE0202423202020000CC
:1007370001010101010101FF0101010101010100A5
:1007470000020CC000F80848484808FF08098A005A
:1007570002027F80403F001E925E20173846F1005C
:1007670000004244584040FF4040504846000000C7
:1007770004040404040404FF04040404040404003B
:100787000484C4B48C10545454FF54547C10100087
:100797008044281827284949497F49494948400042
:1007A700101010FF1010F00000F8080808F80000FB
:1007B7008040300F40807F00007F2020207F000096
:1007C700101010FF1010404848487F48C8484000A4
:1007D7000444827F010002020A1242827F02020061
:1007E7001060028C0024242FE42424E42F24240006
:1007F70004047E0100FF11090719090749917F00C9
:1008070040402020908884838488902020404000A6
:10081700000000003F404040444847404078000007
:1008270000FE225A8608104424F42C2724E40400EE
:1008370000FF040887413F4080BF8595A59F800042
:100847001010D0FF901000FE020202FE0000000010
:10085700040300FF0083601F0000003F4040780052
:10086700404042CC00504EC8487FC848484000002E
:100877000040201F20504C4340404F50505C4000E8
:10088700101012D2565A5253525A56D21210100002
:100897004030007785858DB5858585E70010600038
:1008A70000C0301F1010F00000FF20408000000043
:1008B700814021120C03000000FF0000000300002C
:1008C7001010FF1090E02F29E909E9292FE0000017
:1008D70042827F414425150D05FE0D15254544002F
:1008E700202020FC2426A52C342424FC20202000B2
:1008F70040427D44447C4445447D46457C4040001D
:10090700080808F80808081010FF101010F0000079
:100917001030101F088848300E014080403F00000B
:100927001088C43304F49494F49FF49494F404006A
:100937000100FF004232027282869A82E20A320086
:101AB300121FB9E4F5BC121F78E4F592F591F5B263
:101AC300F5B1F5CAF5C9D288D2A8D2AF43870200CF
:101AD30000F592F591F5B275B10875CA3075C93044
:101AE3007FC8FE121EC930B2FD7F327E00121EC9AE
:091AF300121DBB12167A021BBE83
:030000000215EEF8
:0C15EE00787FE4F6D8FD75810702163501
:10094700BB010689828A83E0225002E722BBFE02AE
:09095700E32289828A83E49322E1
:10096000BB010CE58229F582E5833AF583E022504C
:1009700006E92582F8E622BBFE06E92582F8E22296
:0D098000E58229F582E5833AF583E49322B0
:10098D00BB010689828A83F0225002F722BBFE0149
:02099D00F32243
:10099F00EF8DF0A4A8F0CF8CF0A428CE8DF0A42E6C
:0209AF00FE2226
:1009B100BC000BBE0029EF8DF084FFADF022E4CC2A
:1009C100F875F008EF2FFFEE33FEEC33FCEE9DECF3
:1009D100984005FCEE9DFE0FD5F0E9E4CEFD22ED39
:1009E100F8F5F0EE8420D21CFEADF075F008EF2F83
:1009F100FFED33FD4007985006D5F0F222C398FD74
:050A01000FD5F0EA2210
:100A0600C5F0F8A3E028F0C5F0F8E582158270027B
:060A16001583E038F02218
:100A1C00E88FF0A4CC8BF0A42CFCE98EF0A42CFC79
:100A2C008AF0EDA42CFCEA8EF0A4CDA8F08BF0A4F7
:100A3C002DCC3825F0FDE98FF0A42CCD35F0FCEB56
:100A4C008EF0A4FEA9F0EB8FF0A4CFC5F02ECD391B
:0F0A5C00FEE43CFCEAA42DCE35F0FDE43CFC2288
:100A6B0075F008758200EF2FFFEE33FECD33CDCC42
:100A7B0033CCC58233C5829BED9AEC99E5829840C5
:100A8B000CF582EE9BFEED9AFDEC99FC0FD5F0D6A2
:100A9B00E4CEFBE4CDFAE4CCF9A88222B800C1B9CC
:100AAB000059BA002DEC8BF084CFCECDFCE5F0CB0A
:100ABB00F97818EF2FFFEE33FEED33FDEC33FCEB43
:100ACB0033FB10D703994004EB99FB0FD8E5E4F9FE
:100ADB00FA227818EF2FFFEE33FEED33FDEC33FCEB
:100AEB00C933C910D7059BE99A4007EC9BFCE99ADF
:100AFB00F90FD8E0E4C9FAE4CCFB2275F010EF2F24
:100B0B00FFEE33FEED33FDCC33CCC833C810D70723
:100B1B009BEC9AE899400AED9BFDEC9AFCE899F85E
:0E0B2B000FD5F0DAE4CDFBE4CCFAE4C8F922F1
:100B3900EB9FF5F0EA9E42F0E99D42F0E89C45F012
:010B49002289
:100B4A00E8600FECC313FCED13FDEE13FEEF13FF89
:030B5A00D8F122AD
:100B5D00E8600FEFC333FFEE33FEED33FDEC33FCF6
:030B6D00D8F1229A
:100B7000BB010789828A83020C4D5005E9F8020CFB
:100B800041BBFE05E9F8020C5989828A83020C6593
:100B9000BB010789828A83020BAA5005E9F8020C7F
:0A0BA00075BBFE05E9F8020C812286
:0C0BAA00ECF0A3EDF0A3EEF0A3EFF022BE
:100BB600A8828583F0D083D082120BCD120BCD1282
:100BC6000BCD120BCDE473E493A3C583C5F0C583A7
:100BD600C8C582C8F0A3C583C5F0C583C8C582C889
:010BE60022EC
:100BE700D083D082F8E4937012740193700DA3A39D
:100BF70093F8740193F5828883E473740293B5F0D4
:0D0C0700067403936860E9A3A3A3A380D83B
:100C1400EC8EF0A4CCC5F0CCCDF8EFA4CEC5F02D6D
:100C2400FDE43CFCE8A42EC8C5F03DFDE43CFCEF2B
:0D0C3400A4FFE5F028FEE43DFDE43CFC22B9
:1015FA0002196EE493A3F8E493A34003F68001F280
:10160A0008DFF48029E493A3F85407240CC8C333F1
:10161A00C4540F4420C8834004F456800146F6DFC0
:10162A00E4800B0102040810204080901E98E47E9A
:10163A00019360BCA3FF543F30E509541FFEE493B5
:10164A00A360010ECF54C025E060A840B8E493A37C
:10165A00FAE493A3F8E493A3C8C582C8CAC583CAA7
:10166A00F0A3C8C582C8CAC583CADFE9DEE780BE5F
:011EB0000031
:0C0C4100E6FC08E6FD08E6FE08E6FF22DF
:0C0C4D00E0FCA3E0FDA3E0FEA3E0FF221A
:0C0C5900E2FC08E2FD08E2FE08E2FF22D7
:100C6500E493FC740193FD740293FE740393FF22D5
:0C0C7500ECF608EDF608EEF608EFF622AB
:0C0C8100ECF208EDF208EEF208EFF222AF
:00000001FF
